{
	"audits.sol": {
		"auditoriasContract": {
			"abi": [
				{
					"inputs": [],
					"stateMutability": "nonpayable",
					"type": "constructor"
				},
				{
					"anonymous": false,
					"inputs": [
						{
							"indexed": false,
							"internalType": "uint256",
							"name": "id",
							"type": "uint256"
						},
						{
							"indexed": false,
							"internalType": "string",
							"name": "serviceName",
							"type": "string"
						},
						{
							"indexed": false,
							"internalType": "address",
							"name": "owner",
							"type": "address"
						},
						{
							"indexed": false,
							"internalType": "string",
							"name": "uri",
							"type": "string"
						},
						{
							"indexed": false,
							"internalType": "string",
							"name": "port",
							"type": "string"
						},
						{
							"indexed": false,
							"internalType": "bool",
							"name": "valid",
							"type": "bool"
						},
						{
							"indexed": false,
							"internalType": "uint256",
							"name": "timestamp",
							"type": "uint256"
						}
					],
					"name": "AuditoriaCreada",
					"type": "event"
				},
				{
					"anonymous": false,
					"inputs": [
						{
							"indexed": false,
							"internalType": "uint256",
							"name": "id",
							"type": "uint256"
						},
						{
							"indexed": false,
							"internalType": "string",
							"name": "evidencia",
							"type": "string"
						},
						{
							"indexed": false,
							"internalType": "uint256",
							"name": "timestamp",
							"type": "uint256"
						}
					],
					"name": "EvidenciaAnadida",
					"type": "event"
				},
				{
					"inputs": [
						{
							"internalType": "uint256",
							"name": "_id",
							"type": "uint256"
						},
						{
							"internalType": "string",
							"name": "_evidencia",
							"type": "string"
						}
					],
					"name": "anadirEvidencia",
					"outputs": [],
					"stateMutability": "nonpayable",
					"type": "function"
				},
				{
					"inputs": [
						{
							"internalType": "uint256",
							"name": "",
							"type": "uint256"
						}
					],
					"name": "auditorias",
					"outputs": [
						{
							"internalType": "uint256",
							"name": "id",
							"type": "uint256"
						},
						{
							"internalType": "string",
							"name": "serviceName",
							"type": "string"
						},
						{
							"internalType": "address",
							"name": "owner",
							"type": "address"
						},
						{
							"internalType": "string",
							"name": "uri",
							"type": "string"
						},
						{
							"internalType": "string",
							"name": "port",
							"type": "string"
						},
						{
							"internalType": "bool",
							"name": "valid",
							"type": "bool"
						},
						{
							"internalType": "uint256",
							"name": "timestamp",
							"type": "uint256"
						}
					],
					"stateMutability": "view",
					"type": "function"
				},
				{
					"inputs": [],
					"name": "auditoriasCount",
					"outputs": [
						{
							"internalType": "uint256",
							"name": "",
							"type": "uint256"
						}
					],
					"stateMutability": "view",
					"type": "function"
				},
				{
					"inputs": [
						{
							"internalType": "string",
							"name": "_serviceName",
							"type": "string"
						},
						{
							"internalType": "string",
							"name": "_uri",
							"type": "string"
						},
						{
							"internalType": "string",
							"name": "_port",
							"type": "string"
						}
					],
					"name": "crearAuditoria",
					"outputs": [],
					"stateMutability": "nonpayable",
					"type": "function"
				},
				{
					"inputs": [
						{
							"internalType": "uint256",
							"name": "",
							"type": "uint256"
						},
						{
							"internalType": "uint256",
							"name": "",
							"type": "uint256"
						}
					],
					"name": "evidencias",
					"outputs": [
						{
							"internalType": "string",
							"name": "evidencia",
							"type": "string"
						},
						{
							"internalType": "uint256",
							"name": "timestamp",
							"type": "uint256"
						}
					],
					"stateMutability": "view",
					"type": "function"
				},
				{
					"inputs": [],
					"name": "name",
					"outputs": [
						{
							"internalType": "string",
							"name": "",
							"type": "string"
						}
					],
					"stateMutability": "view",
					"type": "function"
				},
				{
					"inputs": [
						{
							"internalType": "uint256",
							"name": "_id",
							"type": "uint256"
						}
					],
					"name": "obtenerAuditoria",
					"outputs": [
						{
							"internalType": "uint256",
							"name": "",
							"type": "uint256"
						},
						{
							"internalType": "string",
							"name": "",
							"type": "string"
						},
						{
							"internalType": "address",
							"name": "",
							"type": "address"
						},
						{
							"internalType": "string",
							"name": "",
							"type": "string"
						},
						{
							"internalType": "string",
							"name": "",
							"type": "string"
						},
						{
							"internalType": "bool",
							"name": "",
							"type": "bool"
						},
						{
							"internalType": "uint256",
							"name": "",
							"type": "uint256"
						}
					],
					"stateMutability": "view",
					"type": "function"
				},
				{
					"inputs": [
						{
							"internalType": "uint256",
							"name": "_id",
							"type": "uint256"
						}
					],
					"name": "obtenerEvidencias",
					"outputs": [
						{
							"internalType": "string[]",
							"name": "",
							"type": "string[]"
						},
						{
							"internalType": "uint256[]",
							"name": "",
							"type": "uint256[]"
						}
					],
					"stateMutability": "view",
					"type": "function"
				},
				{
					"inputs": [],
					"name": "obtenerTodasLasAuditorias",
					"outputs": [
						{
							"internalType": "uint256[]",
							"name": "",
							"type": "uint256[]"
						}
					],
					"stateMutability": "view",
					"type": "function"
				},
				{
					"inputs": [],
					"name": "operator",
					"outputs": [
						{
							"internalType": "address",
							"name": "",
							"type": "address"
						}
					],
					"stateMutability": "view",
					"type": "function"
				}
			],
			"devdoc": {
				"kind": "dev",
				"methods": {},
				"version": 1
			},
			"evm": {
				"assembly": "    /* \"audits.sol\":81:3229  contract auditoriasContract {... */\n  mstore(0x40, 0x80)\n    /* \"audits.sol\":1001:1002  0 */\n  0x00\n    /* \"audits.sol\":971:1002  uint public auditoriasCount = 0 */\n  0x04\n  sstore\n    /* \"audits.sol\":1028:1109  constructor() {... */\n  callvalue\n  dup1\n  iszero\n  tag_1\n  jumpi\n  0x00\n  dup1\n  revert\ntag_1:\n  pop\n    /* \"audits.sol\":1052:1071  name = \"auditorias\" */\n  mload(0x40)\n  dup1\n  0x40\n  add\n  0x40\n  mstore\n  dup1\n  0x0a\n  dup2\n  mstore\n  0x20\n  add\n  0x61756469746f7269617300000000000000000000000000000000000000000000\n  dup2\n  mstore\n  pop\n    /* \"audits.sol\":1052:1056  name */\n  0x02\n    /* \"audits.sol\":1052:1071  name = \"auditorias\" */\n  swap1\n  dup2\n  tag_4\n  swap2\n  swap1\n  tag_5\n  jump\t// in\ntag_4:\n  pop\n    /* \"audits.sol\":1092:1102  msg.sender */\n  caller\n    /* \"audits.sol\":1081:1089  operator */\n  0x03\n  0x00\n    /* \"audits.sol\":1081:1102  operator = msg.sender */\n  0x0100\n  exp\n  dup2\n  sload\n  dup2\n  0xffffffffffffffffffffffffffffffffffffffff\n  mul\n  not\n  and\n  swap1\n  dup4\n  0xffffffffffffffffffffffffffffffffffffffff\n  and\n  mul\n  or\n  swap1\n  sstore\n  pop\n    /* \"audits.sol\":81:3229  contract auditoriasContract {... */\n  jump(tag_6)\n    /* \"#utility.yul\":7:106   */\ntag_7:\n    /* \"#utility.yul\":59:65   */\n  0x00\n    /* \"#utility.yul\":93:98   */\n  dup2\n    /* \"#utility.yul\":87:99   */\n  mload\n    /* \"#utility.yul\":77:99   */\n  swap1\n  pop\n    /* \"#utility.yul\":7:106   */\n  swap2\n  swap1\n  pop\n  jump\t// out\n    /* \"#utility.yul\":112:292   */\ntag_8:\n    /* \"#utility.yul\":160:237   */\n  0x4e487b7100000000000000000000000000000000000000000000000000000000\n    /* \"#utility.yul\":157:158   */\n  0x00\n    /* \"#utility.yul\":150:238   */\n  mstore\n    /* \"#utility.yul\":257:261   */\n  0x41\n    /* \"#utility.yul\":254:255   */\n  0x04\n    /* \"#utility.yul\":247:262   */\n  mstore\n    /* \"#utility.yul\":281:285   */\n  0x24\n    /* \"#utility.yul\":278:279   */\n  0x00\n    /* \"#utility.yul\":271:286   */\n  revert\n    /* \"#utility.yul\":298:478   */\ntag_9:\n    /* \"#utility.yul\":346:423   */\n  0x4e487b7100000000000000000000000000000000000000000000000000000000\n    /* \"#utility.yul\":343:344   */\n  0x00\n    /* \"#utility.yul\":336:424   */\n  mstore\n    /* \"#utility.yul\":443:447   */\n  0x22\n    /* \"#utility.yul\":440:441   */\n  0x04\n    /* \"#utility.yul\":433:448   */\n  mstore\n    /* \"#utility.yul\":467:471   */\n  0x24\n    /* \"#utility.yul\":464:465   */\n  0x00\n    /* \"#utility.yul\":457:472   */\n  revert\n    /* \"#utility.yul\":484:804   */\ntag_10:\n    /* \"#utility.yul\":528:534   */\n  0x00\n    /* \"#utility.yul\":565:566   */\n  0x02\n    /* \"#utility.yul\":559:563   */\n  dup3\n    /* \"#utility.yul\":555:567   */\n  div\n    /* \"#utility.yul\":545:567   */\n  swap1\n  pop\n    /* \"#utility.yul\":612:613   */\n  0x01\n    /* \"#utility.yul\":606:610   */\n  dup3\n    /* \"#utility.yul\":602:614   */\n  and\n    /* \"#utility.yul\":633:651   */\n  dup1\n    /* \"#utility.yul\":623:704   */\n  tag_32\n  jumpi\n    /* \"#utility.yul\":689:693   */\n  0x7f\n    /* \"#utility.yul\":681:687   */\n  dup3\n    /* \"#utility.yul\":677:694   */\n  and\n    /* \"#utility.yul\":667:694   */\n  swap2\n  pop\n    /* \"#utility.yul\":623:704   */\ntag_32:\n    /* \"#utility.yul\":751:753   */\n  0x20\n    /* \"#utility.yul\":743:749   */\n  dup3\n    /* \"#utility.yul\":740:754   */\n  lt\n    /* \"#utility.yul\":720:738   */\n  dup2\n    /* \"#utility.yul\":717:755   */\n  sub\n    /* \"#utility.yul\":714:798   */\n  tag_33\n  jumpi\n    /* \"#utility.yul\":770:788   */\n  tag_34\n  tag_9\n  jump\t// in\ntag_34:\n    /* \"#utility.yul\":714:798   */\ntag_33:\n    /* \"#utility.yul\":535:804   */\n  pop\n    /* \"#utility.yul\":484:804   */\n  swap2\n  swap1\n  pop\n  jump\t// out\n    /* \"#utility.yul\":810:951   */\ntag_11:\n    /* \"#utility.yul\":859:863   */\n  0x00\n    /* \"#utility.yul\":882:885   */\n  dup2\n    /* \"#utility.yul\":874:885   */\n  swap1\n  pop\n    /* \"#utility.yul\":905:908   */\n  dup2\n    /* \"#utility.yul\":902:903   */\n  0x00\n    /* \"#utility.yul\":895:909   */\n  mstore\n    /* \"#utility.yul\":939:943   */\n  0x20\n    /* \"#utility.yul\":936:937   */\n  0x00\n    /* \"#utility.yul\":926:944   */\n  keccak256\n    /* \"#utility.yul\":918:944   */\n  swap1\n  pop\n    /* \"#utility.yul\":810:951   */\n  swap2\n  swap1\n  pop\n  jump\t// out\n    /* \"#utility.yul\":957:1050   */\ntag_12:\n    /* \"#utility.yul\":994:1000   */\n  0x00\n    /* \"#utility.yul\":1041:1043   */\n  0x20\n    /* \"#utility.yul\":1036:1038   */\n  0x1f\n    /* \"#utility.yul\":1029:1034   */\n  dup4\n    /* \"#utility.yul\":1025:1039   */\n  add\n    /* \"#utility.yul\":1021:1044   */\n  div\n    /* \"#utility.yul\":1011:1044   */\n  swap1\n  pop\n    /* \"#utility.yul\":957:1050   */\n  swap2\n  swap1\n  pop\n  jump\t// out\n    /* \"#utility.yul\":1056:1163   */\ntag_13:\n    /* \"#utility.yul\":1100:1108   */\n  0x00\n    /* \"#utility.yul\":1150:1155   */\n  dup3\n    /* \"#utility.yul\":1144:1148   */\n  dup3\n    /* \"#utility.yul\":1140:1156   */\n  shl\n    /* \"#utility.yul\":1119:1156   */\n  swap1\n  pop\n    /* \"#utility.yul\":1056:1163   */\n  swap3\n  swap2\n  pop\n  pop\n  jump\t// out\n    /* \"#utility.yul\":1169:1562   */\ntag_14:\n    /* \"#utility.yul\":1238:1244   */\n  0x00\n    /* \"#utility.yul\":1288:1289   */\n  0x08\n    /* \"#utility.yul\":1276:1286   */\n  dup4\n    /* \"#utility.yul\":1272:1290   */\n  mul\n    /* \"#utility.yul\":1311:1408   */\n  tag_39\n    /* \"#utility.yul\":1341:1407   */\n  0xffffffffffffffffffffffffffffffffffffffffffffffffffffffffffffffff\n    /* \"#utility.yul\":1330:1339   */\n  dup3\n    /* \"#utility.yul\":1311:1408   */\n  tag_13\n  jump\t// in\ntag_39:\n    /* \"#utility.yul\":1429:1468   */\n  tag_40\n    /* \"#utility.yul\":1459:1467   */\n  dup7\n    /* \"#utility.yul\":1448:1457   */\n  dup4\n    /* \"#utility.yul\":1429:1468   */\n  tag_13\n  jump\t// in\ntag_40:\n    /* \"#utility.yul\":1417:1468   */\n  swap6\n  pop\n    /* \"#utility.yul\":1501:1505   */\n  dup1\n    /* \"#utility.yul\":1497:1506   */\n  not\n    /* \"#utility.yul\":1490:1495   */\n  dup5\n    /* \"#utility.yul\":1486:1507   */\n  and\n    /* \"#utility.yul\":1477:1507   */\n  swap4\n  pop\n    /* \"#utility.yul\":1550:1554   */\n  dup1\n    /* \"#utility.yul\":1540:1548   */\n  dup7\n    /* \"#utility.yul\":1536:1555   */\n  and\n    /* \"#utility.yul\":1529:1534   */\n  dup5\n    /* \"#utility.yul\":1526:1556   */\n  or\n    /* \"#utility.yul\":1516:1556   */\n  swap3\n  pop\n    /* \"#utility.yul\":1245:1562   */\n  pop\n  pop\n    /* \"#utility.yul\":1169:1562   */\n  swap4\n  swap3\n  pop\n  pop\n  pop\n  jump\t// out\n    /* \"#utility.yul\":1568:1645   */\ntag_15:\n    /* \"#utility.yul\":1605:1612   */\n  0x00\n    /* \"#utility.yul\":1634:1639   */\n  dup2\n    /* \"#utility.yul\":1623:1639   */\n  swap1\n  pop\n    /* \"#utility.yul\":1568:1645   */\n  swap2\n  swap1\n  pop\n  jump\t// out\n    /* \"#utility.yul\":1651:1711   */\ntag_16:\n    /* \"#utility.yul\":1679:1682   */\n  0x00\n    /* \"#utility.yul\":1700:1705   */\n  dup2\n    /* \"#utility.yul\":1693:1705   */\n  swap1\n  pop\n    /* \"#utility.yul\":1651:1711   */\n  swap2\n  swap1\n  pop\n  jump\t// out\n    /* \"#utility.yul\":1717:1859   */\ntag_17:\n    /* \"#utility.yul\":1767:1776   */\n  0x00\n    /* \"#utility.yul\":1800:1853   */\n  tag_44\n    /* \"#utility.yul\":1818:1852   */\n  tag_45\n    /* \"#utility.yul\":1827:1851   */\n  tag_46\n    /* \"#utility.yul\":1845:1850   */\n  dup5\n    /* \"#utility.yul\":1827:1851   */\n  tag_15\n  jump\t// in\ntag_46:\n    /* \"#utility.yul\":1818:1852   */\n  tag_16\n  jump\t// in\ntag_45:\n    /* \"#utility.yul\":1800:1853   */\n  tag_15\n  jump\t// in\ntag_44:\n    /* \"#utility.yul\":1787:1853   */\n  swap1\n  pop\n    /* \"#utility.yul\":1717:1859   */\n  swap2\n  swap1\n  pop\n  jump\t// out\n    /* \"#utility.yul\":1865:1940   */\ntag_18:\n    /* \"#utility.yul\":1908:1911   */\n  0x00\n    /* \"#utility.yul\":1929:1934   */\n  dup2\n    /* \"#utility.yul\":1922:1934   */\n  swap1\n  pop\n    /* \"#utility.yul\":1865:1940   */\n  swap2\n  swap1\n  pop\n  jump\t// out\n    /* \"#utility.yul\":1946:2215   */\ntag_19:\n    /* \"#utility.yul\":2056:2095   */\n  tag_49\n    /* \"#utility.yul\":2087:2094   */\n  dup4\n    /* \"#utility.yul\":2056:2095   */\n  tag_17\n  jump\t// in\ntag_49:\n    /* \"#utility.yul\":2117:2208   */\n  tag_50\n    /* \"#utility.yul\":2166:2207   */\n  tag_51\n    /* \"#utility.yul\":2190:2206   */\n  dup3\n    /* \"#utility.yul\":2166:2207   */\n  tag_18\n  jump\t// in\ntag_51:\n    /* \"#utility.yul\":2158:2164   */\n  dup5\n    /* \"#utility.yul\":2151:2155   */\n  dup5\n    /* \"#utility.yul\":2145:2156   */\n  sload\n    /* \"#utility.yul\":2117:2208   */\n  tag_14\n  jump\t// in\ntag_50:\n    /* \"#utility.yul\":2111:2115   */\n  dup3\n    /* \"#utility.yul\":2104:2209   */\n  sstore\n    /* \"#utility.yul\":2022:2215   */\n  pop\n    /* \"#utility.yul\":1946:2215   */\n  pop\n  pop\n  pop\n  jump\t// out\n    /* \"#utility.yul\":2221:2294   */\ntag_20:\n    /* \"#utility.yul\":2266:2269   */\n  0x00\n    /* \"#utility.yul\":2221:2294   */\n  swap1\n  jump\t// out\n    /* \"#utility.yul\":2300:2489   */\ntag_21:\n    /* \"#utility.yul\":2377:2409   */\n  tag_54\n  tag_20\n  jump\t// in\ntag_54:\n    /* \"#utility.yul\":2418:2483   */\n  tag_55\n    /* \"#utility.yul\":2476:2482   */\n  dup2\n    /* \"#utility.yul\":2468:2474   */\n  dup5\n    /* \"#utility.yul\":2462:2466   */\n  dup5\n    /* \"#utility.yul\":2418:2483   */\n  tag_19\n  jump\t// in\ntag_55:\n    /* \"#utility.yul\":2353:2489   */\n  pop\n    /* \"#utility.yul\":2300:2489   */\n  pop\n  pop\n  jump\t// out\n    /* \"#utility.yul\":2495:2681   */\ntag_22:\n    /* \"#utility.yul\":2555:2675   */\ntag_57:\n    /* \"#utility.yul\":2572:2575   */\n  dup2\n    /* \"#utility.yul\":2565:2570   */\n  dup2\n    /* \"#utility.yul\":2562:2576   */\n  lt\n    /* \"#utility.yul\":2555:2675   */\n  iszero\n  tag_59\n  jumpi\n    /* \"#utility.yul\":2626:2665   */\n  tag_60\n    /* \"#utility.yul\":2663:2664   */\n  0x00\n    /* \"#utility.yul\":2656:2661   */\n  dup3\n    /* \"#utility.yul\":2626:2665   */\n  tag_21\n  jump\t// in\ntag_60:\n    /* \"#utility.yul\":2599:2600   */\n  0x01\n    /* \"#utility.yul\":2592:2597   */\n  dup2\n    /* \"#utility.yul\":2588:2601   */\n  add\n    /* \"#utility.yul\":2579:2601   */\n  swap1\n  pop\n    /* \"#utility.yul\":2555:2675   */\n  jump(tag_57)\ntag_59:\n    /* \"#utility.yul\":2495:2681   */\n  pop\n  pop\n  jump\t// out\n    /* \"#utility.yul\":2687:3230   */\ntag_23:\n    /* \"#utility.yul\":2788:2790   */\n  0x1f\n    /* \"#utility.yul\":2783:2786   */\n  dup3\n    /* \"#utility.yul\":2780:2791   */\n  gt\n    /* \"#utility.yul\":2777:3223   */\n  iszero\n  tag_62\n  jumpi\n    /* \"#utility.yul\":2822:2860   */\n  tag_63\n    /* \"#utility.yul\":2854:2859   */\n  dup2\n    /* \"#utility.yul\":2822:2860   */\n  tag_11\n  jump\t// in\ntag_63:\n    /* \"#utility.yul\":2906:2935   */\n  tag_64\n    /* \"#utility.yul\":2924:2934   */\n  dup5\n    /* \"#utility.yul\":2906:2935   */\n  tag_12\n  jump\t// in\ntag_64:\n    /* \"#utility.yul\":2896:2904   */\n  dup2\n    /* \"#utility.yul\":2892:2936   */\n  add\n    /* \"#utility.yul\":3089:3091   */\n  0x20\n    /* \"#utility.yul\":3077:3087   */\n  dup6\n    /* \"#utility.yul\":3074:3092   */\n  lt\n    /* \"#utility.yul\":3071:3120   */\n  iszero\n  tag_65\n  jumpi\n    /* \"#utility.yul\":3110:3118   */\n  dup2\n    /* \"#utility.yul\":3095:3118   */\n  swap1\n  pop\n    /* \"#utility.yul\":3071:3120   */\ntag_65:\n    /* \"#utility.yul\":3133:3213   */\n  tag_66\n    /* \"#utility.yul\":3189:3211   */\n  tag_67\n    /* \"#utility.yul\":3207:3210   */\n  dup6\n    /* \"#utility.yul\":3189:3211   */\n  tag_12\n  jump\t// in\ntag_67:\n    /* \"#utility.yul\":3179:3187   */\n  dup4\n    /* \"#utility.yul\":3175:3212   */\n  add\n    /* \"#utility.yul\":3162:3173   */\n  dup3\n    /* \"#utility.yul\":3133:3213   */\n  tag_22\n  jump\t// in\ntag_66:\n    /* \"#utility.yul\":2792:3223   */\n  pop\n  pop\n    /* \"#utility.yul\":2777:3223   */\ntag_62:\n    /* \"#utility.yul\":2687:3230   */\n  pop\n  pop\n  pop\n  jump\t// out\n    /* \"#utility.yul\":3236:3353   */\ntag_24:\n    /* \"#utility.yul\":3290:3298   */\n  0x00\n    /* \"#utility.yul\":3340:3345   */\n  dup3\n    /* \"#utility.yul\":3334:3338   */\n  dup3\n    /* \"#utility.yul\":3330:3346   */\n  shr\n    /* \"#utility.yul\":3309:3346   */\n  swap1\n  pop\n    /* \"#utility.yul\":3236:3353   */\n  swap3\n  swap2\n  pop\n  pop\n  jump\t// out\n    /* \"#utility.yul\":3359:3528   */\ntag_25:\n    /* \"#utility.yul\":3403:3409   */\n  0x00\n    /* \"#utility.yul\":3436:3487   */\n  tag_70\n    /* \"#utility.yul\":3484:3485   */\n  0x00\n    /* \"#utility.yul\":3480:3486   */\n  not\n    /* \"#utility.yul\":3472:3477   */\n  dup5\n    /* \"#utility.yul\":3469:3470   */\n  0x08\n    /* \"#utility.yul\":3465:3478   */\n  mul\n    /* \"#utility.yul\":3436:3487   */\n  tag_24\n  jump\t// in\ntag_70:\n    /* \"#utility.yul\":3432:3488   */\n  not\n    /* \"#utility.yul\":3517:3521   */\n  dup1\n    /* \"#utility.yul\":3511:3515   */\n  dup4\n    /* \"#utility.yul\":3507:3522   */\n  and\n    /* \"#utility.yul\":3497:3522   */\n  swap2\n  pop\n    /* \"#utility.yul\":3410:3528   */\n  pop\n    /* \"#utility.yul\":3359:3528   */\n  swap3\n  swap2\n  pop\n  pop\n  jump\t// out\n    /* \"#utility.yul\":3533:3828   */\ntag_26:\n    /* \"#utility.yul\":3609:3613   */\n  0x00\n    /* \"#utility.yul\":3755:3784   */\n  tag_72\n    /* \"#utility.yul\":3780:3783   */\n  dup4\n    /* \"#utility.yul\":3774:3778   */\n  dup4\n    /* \"#utility.yul\":3755:3784   */\n  tag_25\n  jump\t// in\ntag_72:\n    /* \"#utility.yul\":3747:3784   */\n  swap2\n  pop\n    /* \"#utility.yul\":3817:3820   */\n  dup3\n    /* \"#utility.yul\":3814:3815   */\n  0x02\n    /* \"#utility.yul\":3810:3821   */\n  mul\n    /* \"#utility.yul\":3804:3808   */\n  dup3\n    /* \"#utility.yul\":3801:3822   */\n  or\n    /* \"#utility.yul\":3793:3822   */\n  swap1\n  pop\n    /* \"#utility.yul\":3533:3828   */\n  swap3\n  swap2\n  pop\n  pop\n  jump\t// out\n    /* \"#utility.yul\":3833:5228   */\ntag_5:\n    /* \"#utility.yul\":3950:3987   */\n  tag_74\n    /* \"#utility.yul\":3983:3986   */\n  dup3\n    /* \"#utility.yul\":3950:3987   */\n  tag_7\n  jump\t// in\ntag_74:\n    /* \"#utility.yul\":4052:4070   */\n  0xffffffffffffffff\n    /* \"#utility.yul\":4044:4050   */\n  dup2\n    /* \"#utility.yul\":4041:4071   */\n  gt\n    /* \"#utility.yul\":4038:4094   */\n  iszero\n  tag_75\n  jumpi\n    /* \"#utility.yul\":4074:4092   */\n  tag_76\n  tag_8\n  jump\t// in\ntag_76:\n    /* \"#utility.yul\":4038:4094   */\ntag_75:\n    /* \"#utility.yul\":4118:4156   */\n  tag_77\n    /* \"#utility.yul\":4150:4154   */\n  dup3\n    /* \"#utility.yul\":4144:4155   */\n  sload\n    /* \"#utility.yul\":4118:4156   */\n  tag_10\n  jump\t// in\ntag_77:\n    /* \"#utility.yul\":4203:4270   */\n  tag_78\n    /* \"#utility.yul\":4263:4269   */\n  dup3\n    /* \"#utility.yul\":4255:4261   */\n  dup3\n    /* \"#utility.yul\":4249:4253   */\n  dup6\n    /* \"#utility.yul\":4203:4270   */\n  tag_23\n  jump\t// in\ntag_78:\n    /* \"#utility.yul\":4297:4298   */\n  0x00\n    /* \"#utility.yul\":4321:4325   */\n  0x20\n    /* \"#utility.yul\":4308:4325   */\n  swap1\n  pop\n    /* \"#utility.yul\":4353:4355   */\n  0x1f\n    /* \"#utility.yul\":4345:4351   */\n  dup4\n    /* \"#utility.yul\":4342:4356   */\n  gt\n    /* \"#utility.yul\":4370:4371   */\n  0x01\n    /* \"#utility.yul\":4365:4983   */\n  dup2\n  eq\n  tag_80\n  jumpi\n    /* \"#utility.yul\":5027:5028   */\n  0x00\n    /* \"#utility.yul\":5044:5050   */\n  dup5\n    /* \"#utility.yul\":5041:5118   */\n  iszero\n  tag_81\n  jumpi\n    /* \"#utility.yul\":5093:5102   */\n  dup3\n    /* \"#utility.yul\":5088:5091   */\n  dup8\n    /* \"#utility.yul\":5084:5103   */\n  add\n    /* \"#utility.yul\":5078:5104   */\n  mload\n    /* \"#utility.yul\":5069:5104   */\n  swap1\n  pop\n    /* \"#utility.yul\":5041:5118   */\ntag_81:\n    /* \"#utility.yul\":5144:5211   */\n  tag_82\n    /* \"#utility.yul\":5204:5210   */\n  dup6\n    /* \"#utility.yul\":5197:5202   */\n  dup3\n    /* \"#utility.yul\":5144:5211   */\n  tag_26\n  jump\t// in\ntag_82:\n    /* \"#utility.yul\":5138:5142   */\n  dup7\n    /* \"#utility.yul\":5131:5212   */\n  sstore\n    /* \"#utility.yul\":5000:5222   */\n  pop\n    /* \"#utility.yul\":4335:5222   */\n  jump(tag_79)\n    /* \"#utility.yul\":4365:4983   */\ntag_80:\n    /* \"#utility.yul\":4417:4421   */\n  0x1f\n    /* \"#utility.yul\":4413:4422   */\n  not\n    /* \"#utility.yul\":4405:4411   */\n  dup5\n    /* \"#utility.yul\":4401:4423   */\n  and\n    /* \"#utility.yul\":4451:4488   */\n  tag_83\n    /* \"#utility.yul\":4483:4487   */\n  dup7\n    /* \"#utility.yul\":4451:4488   */\n  tag_11\n  jump\t// in\ntag_83:\n    /* \"#utility.yul\":4510:4511   */\n  0x00\n    /* \"#utility.yul\":4524:4732   */\ntag_84:\n    /* \"#utility.yul\":4538:4545   */\n  dup3\n    /* \"#utility.yul\":4535:4536   */\n  dup2\n    /* \"#utility.yul\":4532:4546   */\n  lt\n    /* \"#utility.yul\":4524:4732   */\n  iszero\n  tag_86\n  jumpi\n    /* \"#utility.yul\":4617:4626   */\n  dup5\n    /* \"#utility.yul\":4612:4615   */\n  dup10\n    /* \"#utility.yul\":4608:4627   */\n  add\n    /* \"#utility.yul\":4602:4628   */\n  mload\n    /* \"#utility.yul\":4594:4600   */\n  dup3\n    /* \"#utility.yul\":4587:4629   */\n  sstore\n    /* \"#utility.yul\":4668:4669   */\n  0x01\n    /* \"#utility.yul\":4660:4666   */\n  dup3\n    /* \"#utility.yul\":4656:4670   */\n  add\n    /* \"#utility.yul\":4646:4670   */\n  swap2\n  pop\n    /* \"#utility.yul\":4715:4717   */\n  0x20\n    /* \"#utility.yul\":4704:4713   */\n  dup6\n    /* \"#utility.yul\":4700:4718   */\n  add\n    /* \"#utility.yul\":4687:4718   */\n  swap5\n  pop\n    /* \"#utility.yul\":4561:4565   */\n  0x20\n    /* \"#utility.yul\":4558:4559   */\n  dup2\n    /* \"#utility.yul\":4554:4566   */\n  add\n    /* \"#utility.yul\":4549:4566   */\n  swap1\n  pop\n    /* \"#utility.yul\":4524:4732   */\n  jump(tag_84)\ntag_86:\n    /* \"#utility.yul\":4760:4766   */\n  dup7\n    /* \"#utility.yul\":4751:4758   */\n  dup4\n    /* \"#utility.yul\":4748:4767   */\n  lt\n    /* \"#utility.yul\":4745:4924   */\n  iszero\n  tag_87\n  jumpi\n    /* \"#utility.yul\":4818:4827   */\n  dup5\n    /* \"#utility.yul\":4813:4816   */\n  dup10\n    /* \"#utility.yul\":4809:4828   */\n  add\n    /* \"#utility.yul\":4803:4829   */\n  mload\n    /* \"#utility.yul\":4861:4909   */\n  tag_88\n    /* \"#utility.yul\":4903:4907   */\n  0x1f\n    /* \"#utility.yul\":4895:4901   */\n  dup10\n    /* \"#utility.yul\":4891:4908   */\n  and\n    /* \"#utility.yul\":4880:4889   */\n  dup3\n    /* \"#utility.yul\":4861:4909   */\n  tag_25\n  jump\t// in\ntag_88:\n    /* \"#utility.yul\":4853:4859   */\n  dup4\n    /* \"#utility.yul\":4846:4910   */\n  sstore\n    /* \"#utility.yul\":4768:4924   */\n  pop\n    /* \"#utility.yul\":4745:4924   */\ntag_87:\n    /* \"#utility.yul\":4970:4971   */\n  0x01\n    /* \"#utility.yul\":4966:4967   */\n  0x02\n    /* \"#utility.yul\":4958:4964   */\n  dup9\n    /* \"#utility.yul\":4954:4968   */\n  mul\n    /* \"#utility.yul\":4950:4972   */\n  add\n    /* \"#utility.yul\":4944:4948   */\n  dup9\n    /* \"#utility.yul\":4937:4973   */\n  sstore\n    /* \"#utility.yul\":4372:4983   */\n  pop\n  pop\n  pop\n    /* \"#utility.yul\":4335:5222   */\ntag_79:\n  pop\n    /* \"#utility.yul\":3925:5228   */\n  pop\n  pop\n  pop\n    /* \"#utility.yul\":3833:5228   */\n  pop\n  pop\n  jump\t// out\n    /* \"audits.sol\":81:3229  contract auditoriasContract {... */\ntag_6:\n  dataSize(sub_0)\n  dup1\n  dataOffset(sub_0)\n  0x00\n  codecopy\n  0x00\n  return\nstop\n\nsub_0: assembly {\n        /* \"audits.sol\":81:3229  contract auditoriasContract {... */\n      mstore(0x40, 0x80)\n      callvalue\n      dup1\n      iszero\n      tag_1\n      jumpi\n      0x00\n      dup1\n      revert\n    tag_1:\n      pop\n      jumpi(tag_2, lt(calldatasize, 0x04))\n      shr(0xe0, calldataload(0x00))\n      dup1\n      0x5c8fc294\n      gt\n      tag_13\n      jumpi\n      dup1\n      0x5c8fc294\n      eq\n      tag_8\n      jumpi\n      dup1\n      0x87dfdc6e\n      eq\n      tag_9\n      jumpi\n      dup1\n      0x91082a52\n      eq\n      tag_10\n      jumpi\n      dup1\n      0xaba6daca\n      eq\n      tag_11\n      jumpi\n      dup1\n      0xd799b4bc\n      eq\n      tag_12\n      jumpi\n      jump(tag_2)\n    tag_13:\n      dup1\n      0x06fdde03\n      eq\n      tag_3\n      jumpi\n      dup1\n      0x10724ca7\n      eq\n      tag_4\n      jumpi\n      dup1\n      0x143d49e1\n      eq\n      tag_5\n      jumpi\n      dup1\n      0x18dbb522\n      eq\n      tag_6\n      jumpi\n      dup1\n      0x570ca735\n      eq\n      tag_7\n      jumpi\n    tag_2:\n      0x00\n      dup1\n      revert\n        /* \"audits.sol\":886:904  string public name */\n    tag_3:\n      tag_14\n      tag_15\n      jump\t// in\n    tag_14:\n      mload(0x40)\n      tag_16\n      swap2\n      swap1\n      tag_17\n      jump\t// in\n    tag_16:\n      mload(0x40)\n      dup1\n      swap2\n      sub\n      swap1\n      return\n        /* \"audits.sol\":2910:3222  function obtenerTodasLasAuditorias() public view returns (uint[] memory) {... */\n    tag_4:\n      tag_18\n      tag_19\n      jump\t// in\n    tag_18:\n      mload(0x40)\n      tag_20\n      swap2\n      swap1\n      tag_21\n      jump\t// in\n    tag_20:\n      mload(0x40)\n      dup1\n      swap2\n      sub\n      swap1\n      return\n        /* \"audits.sol\":1155:1526  function crearAuditoria(string memory _serviceName, string memory _uri, string memory _port) public {... */\n    tag_5:\n      tag_22\n      0x04\n      dup1\n      calldatasize\n      sub\n      dup2\n      add\n      swap1\n      tag_23\n      swap2\n      swap1\n      tag_24\n      jump\t// in\n    tag_23:\n      tag_25\n      jump\t// in\n    tag_22:\n      stop\n        /* \"audits.sol\":1577:1899  function anadirEvidencia(uint _id, string memory _evidencia) public {... */\n    tag_6:\n      tag_26\n      0x04\n      dup1\n      calldatasize\n      sub\n      dup2\n      add\n      swap1\n      tag_27\n      swap2\n      swap1\n      tag_28\n      jump\t// in\n    tag_27:\n      tag_29\n      jump\t// in\n    tag_26:\n      stop\n        /* \"audits.sol\":910:933  address public operator */\n    tag_7:\n      tag_30\n      tag_31\n      jump\t// in\n    tag_30:\n      mload(0x40)\n      tag_32\n      swap2\n      swap1\n      tag_33\n      jump\t// in\n    tag_32:\n      mload(0x40)\n      dup1\n      swap2\n      sub\n      swap1\n      return\n        /* \"audits.sol\":971:1002  uint public auditoriasCount = 0 */\n    tag_8:\n      tag_34\n      tag_35\n      jump\t// in\n    tag_34:\n      mload(0x40)\n      tag_36\n      swap2\n      swap1\n      tag_37\n      jump\t// in\n    tag_36:\n      mload(0x40)\n      dup1\n      swap2\n      sub\n      swap1\n      return\n        /* \"audits.sol\":476:520  mapping(uint => Auditoria) public auditorias */\n    tag_9:\n      tag_38\n      0x04\n      dup1\n      calldatasize\n      sub\n      dup2\n      add\n      swap1\n      tag_39\n      swap2\n      swap1\n      tag_40\n      jump\t// in\n    tag_39:\n      tag_41\n      jump\t// in\n    tag_38:\n      mload(0x40)\n      tag_42\n      swap8\n      swap7\n      swap6\n      swap5\n      swap4\n      swap3\n      swap2\n      swap1\n      tag_43\n      jump\t// in\n    tag_42:\n      mload(0x40)\n      dup1\n      swap2\n      sub\n      swap1\n      return\n        /* \"audits.sol\":1947:2281  function obtenerAuditoria(uint _id) public view returns (uint, string memory, address, string memory, string memory, bool, uint256) {... */\n    tag_10:\n      tag_44\n      0x04\n      dup1\n      calldatasize\n      sub\n      dup2\n      add\n      swap1\n      tag_45\n      swap2\n      swap1\n      tag_40\n      jump\t// in\n    tag_45:\n      tag_46\n      jump\t// in\n    tag_44:\n      mload(0x40)\n      tag_47\n      swap8\n      swap7\n      swap6\n      swap5\n      swap4\n      swap3\n      swap2\n      swap1\n      tag_43\n      jump\t// in\n    tag_47:\n      mload(0x40)\n      dup1\n      swap2\n      sub\n      swap1\n      return\n        /* \"audits.sol\":2347:2868  function obtenerEvidencias(uint _id) public view returns (string[] memory, uint256[] memory) {... */\n    tag_11:\n      tag_48\n      0x04\n      dup1\n      calldatasize\n      sub\n      dup2\n      add\n      swap1\n      tag_49\n      swap2\n      swap1\n      tag_40\n      jump\t// in\n    tag_49:\n      tag_50\n      jump\t// in\n    tag_48:\n      mload(0x40)\n      tag_51\n      swap3\n      swap2\n      swap1\n      tag_52\n      jump\t// in\n    tag_51:\n      mload(0x40)\n      dup1\n      swap2\n      sub\n      swap1\n      return\n        /* \"audits.sol\":526:572  mapping(uint => Evidencia[]) public evidencias */\n    tag_12:\n      tag_53\n      0x04\n      dup1\n      calldatasize\n      sub\n      dup2\n      add\n      swap1\n      tag_54\n      swap2\n      swap1\n      tag_55\n      jump\t// in\n    tag_54:\n      tag_56\n      jump\t// in\n    tag_53:\n      mload(0x40)\n      tag_57\n      swap3\n      swap2\n      swap1\n      tag_58\n      jump\t// in\n    tag_57:\n      mload(0x40)\n      dup1\n      swap2\n      sub\n      swap1\n      return\n        /* \"audits.sol\":886:904  string public name */\n    tag_15:\n      0x02\n      dup1\n      sload\n      tag_59\n      swap1\n      tag_60\n      jump\t// in\n    tag_59:\n      dup1\n      0x1f\n      add\n      0x20\n      dup1\n      swap2\n      div\n      mul\n      0x20\n      add\n      mload(0x40)\n      swap1\n      dup2\n      add\n      0x40\n      mstore\n      dup1\n      swap3\n      swap2\n      swap1\n      dup2\n      dup2\n      mstore\n      0x20\n      add\n      dup3\n      dup1\n      sload\n      tag_61\n      swap1\n      tag_60\n      jump\t// in\n    tag_61:\n      dup1\n      iszero\n      tag_62\n      jumpi\n      dup1\n      0x1f\n      lt\n      tag_63\n      jumpi\n      0x0100\n      dup1\n      dup4\n      sload\n      div\n      mul\n      dup4\n      mstore\n      swap2\n      0x20\n      add\n      swap2\n      jump(tag_62)\n    tag_63:\n      dup3\n      add\n      swap2\n      swap1\n      0x00\n      mstore\n      keccak256(0x00, 0x20)\n      swap1\n    tag_64:\n      dup2\n      sload\n      dup2\n      mstore\n      swap1\n      0x01\n      add\n      swap1\n      0x20\n      add\n      dup1\n      dup4\n      gt\n      tag_64\n      jumpi\n      dup3\n      swap1\n      sub\n      0x1f\n      and\n      dup3\n      add\n      swap2\n    tag_62:\n      pop\n      pop\n      pop\n      pop\n      pop\n      dup2\n      jump\t// out\n        /* \"audits.sol\":2910:3222  function obtenerTodasLasAuditorias() public view returns (uint[] memory) {... */\n    tag_19:\n        /* \"audits.sol\":2968:2981  uint[] memory */\n      0x60\n        /* \"audits.sol\":2993:3013  uint[] memory result */\n      0x00\n        /* \"audits.sol\":3027:3042  auditoriasCount */\n      sload(0x04)\n        /* \"audits.sol\":3016:3043  new uint[](auditoriasCount) */\n      0xffffffffffffffff\n      dup2\n      gt\n      iszero\n      tag_66\n      jumpi\n      tag_67\n      tag_68\n      jump\t// in\n    tag_67:\n    tag_66:\n      mload(0x40)\n      swap1\n      dup1\n      dup3\n      mstore\n      dup1\n      0x20\n      mul\n      0x20\n      add\n      dup3\n      add\n      0x40\n      mstore\n      dup1\n      iszero\n      tag_69\n      jumpi\n      dup2\n      0x20\n      add\n      0x20\n      dup3\n      mul\n      dup1\n      calldatasize\n      dup4\n      calldatacopy\n      dup1\n      dup3\n      add\n      swap2\n      pop\n      pop\n      swap1\n      pop\n    tag_69:\n      pop\n        /* \"audits.sol\":2993:3043  uint[] memory result = new uint[](auditoriasCount) */\n      swap1\n      pop\n        /* \"audits.sol\":3053:3066  uint contador */\n      0x00\n        /* \"audits.sol\":3085:3091  uint i */\n      dup1\n        /* \"audits.sol\":3094:3095  1 */\n      0x01\n        /* \"audits.sol\":3085:3095  uint i = 1 */\n      swap1\n      pop\n        /* \"audits.sol\":3080:3193  for (uint i = 1; i <= auditoriasCount; i++) {... */\n    tag_70:\n        /* \"audits.sol\":3102:3117  auditoriasCount */\n      sload(0x04)\n        /* \"audits.sol\":3097:3098  i */\n      dup2\n        /* \"audits.sol\":3097:3117  i <= auditoriasCount */\n      gt\n        /* \"audits.sol\":3080:3193  for (uint i = 1; i <= auditoriasCount; i++) {... */\n      tag_71\n      jumpi\n        /* \"audits.sol\":3157:3158  i */\n      dup1\n        /* \"audits.sol\":3138:3144  result */\n      dup4\n        /* \"audits.sol\":3145:3153  contador */\n      dup4\n        /* \"audits.sol\":3138:3154  result[contador] */\n      dup2\n      mload\n      dup2\n      lt\n      tag_73\n      jumpi\n      tag_74\n      tag_75\n      jump\t// in\n    tag_74:\n    tag_73:\n      0x20\n      mul\n      0x20\n      add\n      add\n        /* \"audits.sol\":3138:3158  result[contador] = i */\n      dup2\n      dup2\n      mstore\n      pop\n      pop\n        /* \"audits.sol\":3172:3182  contador++ */\n      dup2\n      dup1\n      tag_76\n      swap1\n      tag_77\n      jump\t// in\n    tag_76:\n      swap3\n      pop\n      pop\n        /* \"audits.sol\":3119:3122  i++ */\n      dup1\n      dup1\n      tag_78\n      swap1\n      tag_77\n      jump\t// in\n    tag_78:\n      swap2\n      pop\n      pop\n        /* \"audits.sol\":3080:3193  for (uint i = 1; i <= auditoriasCount; i++) {... */\n      jump(tag_70)\n    tag_71:\n      pop\n        /* \"audits.sol\":3209:3215  result */\n      dup2\n        /* \"audits.sol\":3202:3215  return result */\n      swap3\n      pop\n      pop\n      pop\n        /* \"audits.sol\":2910:3222  function obtenerTodasLasAuditorias() public view returns (uint[] memory) {... */\n      swap1\n      jump\t// out\n        /* \"audits.sol\":1155:1526  function crearAuditoria(string memory _serviceName, string memory _uri, string memory _port) public {... */\n    tag_25:\n        /* \"audits.sol\":1265:1280  auditoriasCount */\n      0x04\n      0x00\n        /* \"audits.sol\":1265:1282  auditoriasCount++ */\n      dup2\n      sload\n      dup1\n      swap3\n      swap2\n      swap1\n      tag_80\n      swap1\n      tag_77\n      jump\t// in\n    tag_80:\n      swap2\n      swap1\n      pop\n      sstore\n      pop\n        /* \"audits.sol\":1322:1410  Auditoria(auditoriasCount, _serviceName, msg.sender, _uri, _port, true, block.timestamp) */\n      mload(0x40)\n      dup1\n      0xe0\n      add\n      0x40\n      mstore\n      dup1\n        /* \"audits.sol\":1332:1347  auditoriasCount */\n      sload(0x04)\n        /* \"audits.sol\":1322:1410  Auditoria(auditoriasCount, _serviceName, msg.sender, _uri, _port, true, block.timestamp) */\n      dup2\n      mstore\n      0x20\n      add\n        /* \"audits.sol\":1349:1361  _serviceName */\n      dup5\n        /* \"audits.sol\":1322:1410  Auditoria(auditoriasCount, _serviceName, msg.sender, _uri, _port, true, block.timestamp) */\n      dup2\n      mstore\n      0x20\n      add\n        /* \"audits.sol\":1363:1373  msg.sender */\n      caller\n        /* \"audits.sol\":1322:1410  Auditoria(auditoriasCount, _serviceName, msg.sender, _uri, _port, true, block.timestamp) */\n      0xffffffffffffffffffffffffffffffffffffffff\n      and\n      dup2\n      mstore\n      0x20\n      add\n        /* \"audits.sol\":1375:1379  _uri */\n      dup4\n        /* \"audits.sol\":1322:1410  Auditoria(auditoriasCount, _serviceName, msg.sender, _uri, _port, true, block.timestamp) */\n      dup2\n      mstore\n      0x20\n      add\n        /* \"audits.sol\":1381:1386  _port */\n      dup3\n        /* \"audits.sol\":1322:1410  Auditoria(auditoriasCount, _serviceName, msg.sender, _uri, _port, true, block.timestamp) */\n      dup2\n      mstore\n      0x20\n      add\n        /* \"audits.sol\":1388:1392  true */\n      0x01\n        /* \"audits.sol\":1322:1410  Auditoria(auditoriasCount, _serviceName, msg.sender, _uri, _port, true, block.timestamp) */\n      iszero\n      iszero\n      dup2\n      mstore\n      0x20\n      add\n        /* \"audits.sol\":1394:1409  block.timestamp */\n      timestamp\n        /* \"audits.sol\":1322:1410  Auditoria(auditoriasCount, _serviceName, msg.sender, _uri, _port, true, block.timestamp) */\n      dup2\n      mstore\n      pop\n        /* \"audits.sol\":1292:1302  auditorias */\n      0x00\n        /* \"audits.sol\":1292:1319  auditorias[auditoriasCount] */\n      dup1\n        /* \"audits.sol\":1303:1318  auditoriasCount */\n      sload(0x04)\n        /* \"audits.sol\":1292:1319  auditorias[auditoriasCount] */\n      dup2\n      mstore\n      0x20\n      add\n      swap1\n      dup2\n      mstore\n      0x20\n      add\n      0x00\n      keccak256\n        /* \"audits.sol\":1292:1410  auditorias[auditoriasCount] = Auditoria(auditoriasCount, _serviceName, msg.sender, _uri, _port, true, block.timestamp) */\n      0x00\n      dup3\n      add\n      mload\n      dup2\n      0x00\n      add\n      sstore\n      0x20\n      dup3\n      add\n      mload\n      dup2\n      0x01\n      add\n      swap1\n      dup2\n      tag_81\n      swap2\n      swap1\n      tag_82\n      jump\t// in\n    tag_81:\n      pop\n      0x40\n      dup3\n      add\n      mload\n      dup2\n      0x02\n      add\n      exp(0x0100, 0x00)\n      dup2\n      sload\n      dup2\n      0xffffffffffffffffffffffffffffffffffffffff\n      mul\n      not\n      and\n      swap1\n      dup4\n      0xffffffffffffffffffffffffffffffffffffffff\n      and\n      mul\n      or\n      swap1\n      sstore\n      pop\n      0x60\n      dup3\n      add\n      mload\n      dup2\n      0x03\n      add\n      swap1\n      dup2\n      tag_83\n      swap2\n      swap1\n      tag_82\n      jump\t// in\n    tag_83:\n      pop\n      0x80\n      dup3\n      add\n      mload\n      dup2\n      0x04\n      add\n      swap1\n      dup2\n      tag_84\n      swap2\n      swap1\n      tag_82\n      jump\t// in\n    tag_84:\n      pop\n      0xa0\n      dup3\n      add\n      mload\n      dup2\n      0x05\n      add\n      exp(0x0100, 0x00)\n      dup2\n      sload\n      dup2\n      0xff\n      mul\n      not\n      and\n      swap1\n      dup4\n      iszero\n      iszero\n      mul\n      or\n      swap1\n      sstore\n      pop\n      0xc0\n      dup3\n      add\n      mload\n      dup2\n      0x06\n      add\n      sstore\n      swap1\n      pop\n      pop\n        /* \"audits.sol\":1425:1519  AuditoriaCreada(auditoriasCount, _serviceName, msg.sender, _uri, _port, true, block.timestamp) */\n      0x1a21e2ac04dca403ce193c10c4d6de5ab71108eac24d59f7fe716f38f38fdfb1\n        /* \"audits.sol\":1441:1456  auditoriasCount */\n      sload(0x04)\n        /* \"audits.sol\":1458:1470  _serviceName */\n      dup5\n        /* \"audits.sol\":1472:1482  msg.sender */\n      caller\n        /* \"audits.sol\":1484:1488  _uri */\n      dup6\n        /* \"audits.sol\":1490:1495  _port */\n      dup6\n        /* \"audits.sol\":1497:1501  true */\n      0x01\n        /* \"audits.sol\":1503:1518  block.timestamp */\n      timestamp\n        /* \"audits.sol\":1425:1519  AuditoriaCreada(auditoriasCount, _serviceName, msg.sender, _uri, _port, true, block.timestamp) */\n      mload(0x40)\n      tag_85\n      swap8\n      swap7\n      swap6\n      swap5\n      swap4\n      swap3\n      swap2\n      swap1\n      tag_43\n      jump\t// in\n    tag_85:\n      mload(0x40)\n      dup1\n      swap2\n      sub\n      swap1\n      log1\n        /* \"audits.sol\":1155:1526  function crearAuditoria(string memory _serviceName, string memory _uri, string memory _port) public {... */\n      pop\n      pop\n      pop\n      jump\t// out\n        /* \"audits.sol\":1577:1899  function anadirEvidencia(uint _id, string memory _evidencia) public {... */\n    tag_29:\n        /* \"audits.sol\":1712:1720  operator */\n      0x03\n      0x00\n      swap1\n      sload\n      swap1\n      0x0100\n      exp\n      swap1\n      div\n      0xffffffffffffffffffffffffffffffffffffffff\n      and\n        /* \"audits.sol\":1698:1720  msg.sender == operator */\n      0xffffffffffffffffffffffffffffffffffffffff\n      and\n        /* \"audits.sol\":1698:1708  msg.sender */\n      caller\n        /* \"audits.sol\":1698:1720  msg.sender == operator */\n      0xffffffffffffffffffffffffffffffffffffffff\n      and\n      eq\n        /* \"audits.sol\":1690:1757  require(msg.sender == operator, \"Only the oracle can add evidence\") */\n      tag_87\n      jumpi\n      mload(0x40)\n      0x08c379a000000000000000000000000000000000000000000000000000000000\n      dup2\n      mstore\n      0x04\n      add\n      tag_88\n      swap1\n      tag_89\n      jump\t// in\n    tag_88:\n      mload(0x40)\n      dup1\n      swap2\n      sub\n      swap1\n      revert\n    tag_87:\n        /* \"audits.sol\":1767:1777  evidencias */\n      0x01\n        /* \"audits.sol\":1767:1782  evidencias[_id] */\n      0x00\n        /* \"audits.sol\":1778:1781  _id */\n      dup4\n        /* \"audits.sol\":1767:1782  evidencias[_id] */\n      dup2\n      mstore\n      0x20\n      add\n      swap1\n      dup2\n      mstore\n      0x20\n      add\n      0x00\n      keccak256\n        /* \"audits.sol\":1788:1826  Evidencia(_evidencia, block.timestamp) */\n      mload(0x40)\n      dup1\n      0x40\n      add\n      0x40\n      mstore\n      dup1\n        /* \"audits.sol\":1798:1808  _evidencia */\n      dup4\n        /* \"audits.sol\":1788:1826  Evidencia(_evidencia, block.timestamp) */\n      dup2\n      mstore\n      0x20\n      add\n        /* \"audits.sol\":1810:1825  block.timestamp */\n      timestamp\n        /* \"audits.sol\":1788:1826  Evidencia(_evidencia, block.timestamp) */\n      dup2\n      mstore\n      pop\n        /* \"audits.sol\":1767:1827  evidencias[_id].push(Evidencia(_evidencia, block.timestamp)) */\n      swap1\n      dup1\n      0x01\n      dup2\n      sload\n      add\n      dup1\n      dup3\n      sstore\n      dup1\n      swap2\n      pop\n      pop\n      0x01\n      swap1\n      sub\n      swap1\n      0x00\n      mstore\n      keccak256(0x00, 0x20)\n      swap1\n      0x02\n      mul\n      add\n      0x00\n      swap1\n      swap2\n      swap1\n      swap2\n      swap1\n      swap2\n      pop\n      0x00\n      dup3\n      add\n      mload\n      dup2\n      0x00\n      add\n      swap1\n      dup2\n      tag_91\n      swap2\n      swap1\n      tag_82\n      jump\t// in\n    tag_91:\n      pop\n      0x20\n      dup3\n      add\n      mload\n      dup2\n      0x01\n      add\n      sstore\n      pop\n      pop\n        /* \"audits.sol\":1842:1892  EvidenciaAnadida(_id, _evidencia, block.timestamp) */\n      0x813627f6a8c0ab402f69a15addbfc6717f12e01d249ba9a5d234df032fadd9bc\n        /* \"audits.sol\":1859:1862  _id */\n      dup3\n        /* \"audits.sol\":1864:1874  _evidencia */\n      dup3\n        /* \"audits.sol\":1876:1891  block.timestamp */\n      timestamp\n        /* \"audits.sol\":1842:1892  EvidenciaAnadida(_id, _evidencia, block.timestamp) */\n      mload(0x40)\n      tag_92\n      swap4\n      swap3\n      swap2\n      swap1\n      tag_93\n      jump\t// in\n    tag_92:\n      mload(0x40)\n      dup1\n      swap2\n      sub\n      swap1\n      log1\n        /* \"audits.sol\":1577:1899  function anadirEvidencia(uint _id, string memory _evidencia) public {... */\n      pop\n      pop\n      jump\t// out\n        /* \"audits.sol\":910:933  address public operator */\n    tag_31:\n      0x03\n      0x00\n      swap1\n      sload\n      swap1\n      0x0100\n      exp\n      swap1\n      div\n      0xffffffffffffffffffffffffffffffffffffffff\n      and\n      dup2\n      jump\t// out\n        /* \"audits.sol\":971:1002  uint public auditoriasCount = 0 */\n    tag_35:\n      sload(0x04)\n      dup2\n      jump\t// out\n        /* \"audits.sol\":476:520  mapping(uint => Auditoria) public auditorias */\n    tag_41:\n      mstore(0x20, 0x00)\n      dup1\n      0x00\n      mstore\n      keccak256(0x00, 0x40)\n      0x00\n      swap2\n      pop\n      swap1\n      pop\n      dup1\n      0x00\n      add\n      sload\n      swap1\n      dup1\n      0x01\n      add\n      dup1\n      sload\n      tag_94\n      swap1\n      tag_60\n      jump\t// in\n    tag_94:\n      dup1\n      0x1f\n      add\n      0x20\n      dup1\n      swap2\n      div\n      mul\n      0x20\n      add\n      mload(0x40)\n      swap1\n      dup2\n      add\n      0x40\n      mstore\n      dup1\n      swap3\n      swap2\n      swap1\n      dup2\n      dup2\n      mstore\n      0x20\n      add\n      dup3\n      dup1\n      sload\n      tag_95\n      swap1\n      tag_60\n      jump\t// in\n    tag_95:\n      dup1\n      iszero\n      tag_96\n      jumpi\n      dup1\n      0x1f\n      lt\n      tag_97\n      jumpi\n      0x0100\n      dup1\n      dup4\n      sload\n      div\n      mul\n      dup4\n      mstore\n      swap2\n      0x20\n      add\n      swap2\n      jump(tag_96)\n    tag_97:\n      dup3\n      add\n      swap2\n      swap1\n      0x00\n      mstore\n      keccak256(0x00, 0x20)\n      swap1\n    tag_98:\n      dup2\n      sload\n      dup2\n      mstore\n      swap1\n      0x01\n      add\n      swap1\n      0x20\n      add\n      dup1\n      dup4\n      gt\n      tag_98\n      jumpi\n      dup3\n      swap1\n      sub\n      0x1f\n      and\n      dup3\n      add\n      swap2\n    tag_96:\n      pop\n      pop\n      pop\n      pop\n      pop\n      swap1\n      dup1\n      0x02\n      add\n      0x00\n      swap1\n      sload\n      swap1\n      0x0100\n      exp\n      swap1\n      div\n      0xffffffffffffffffffffffffffffffffffffffff\n      and\n      swap1\n      dup1\n      0x03\n      add\n      dup1\n      sload\n      tag_99\n      swap1\n      tag_60\n      jump\t// in\n    tag_99:\n      dup1\n      0x1f\n      add\n      0x20\n      dup1\n      swap2\n      div\n      mul\n      0x20\n      add\n      mload(0x40)\n      swap1\n      dup2\n      add\n      0x40\n      mstore\n      dup1\n      swap3\n      swap2\n      swap1\n      dup2\n      dup2\n      mstore\n      0x20\n      add\n      dup3\n      dup1\n      sload\n      tag_100\n      swap1\n      tag_60\n      jump\t// in\n    tag_100:\n      dup1\n      iszero\n      tag_101\n      jumpi\n      dup1\n      0x1f\n      lt\n      tag_102\n      jumpi\n      0x0100\n      dup1\n      dup4\n      sload\n      div\n      mul\n      dup4\n      mstore\n      swap2\n      0x20\n      add\n      swap2\n      jump(tag_101)\n    tag_102:\n      dup3\n      add\n      swap2\n      swap1\n      0x00\n      mstore\n      keccak256(0x00, 0x20)\n      swap1\n    tag_103:\n      dup2\n      sload\n      dup2\n      mstore\n      swap1\n      0x01\n      add\n      swap1\n      0x20\n      add\n      dup1\n      dup4\n      gt\n      tag_103\n      jumpi\n      dup3\n      swap1\n      sub\n      0x1f\n      and\n      dup3\n      add\n      swap2\n    tag_101:\n      pop\n      pop\n      pop\n      pop\n      pop\n      swap1\n      dup1\n      0x04\n      add\n      dup1\n      sload\n      tag_104\n      swap1\n      tag_60\n      jump\t// in\n    tag_104:\n      dup1\n      0x1f\n      add\n      0x20\n      dup1\n      swap2\n      div\n      mul\n      0x20\n      add\n      mload(0x40)\n      swap1\n      dup2\n      add\n      0x40\n      mstore\n      dup1\n      swap3\n      swap2\n      swap1\n      dup2\n      dup2\n      mstore\n      0x20\n      add\n      dup3\n      dup1\n      sload\n      tag_105\n      swap1\n      tag_60\n      jump\t// in\n    tag_105:\n      dup1\n      iszero\n      tag_106\n      jumpi\n      dup1\n      0x1f\n      lt\n      tag_107\n      jumpi\n      0x0100\n      dup1\n      dup4\n      sload\n      div\n      mul\n      dup4\n      mstore\n      swap2\n      0x20\n      add\n      swap2\n      jump(tag_106)\n    tag_107:\n      dup3\n      add\n      swap2\n      swap1\n      0x00\n      mstore\n      keccak256(0x00, 0x20)\n      swap1\n    tag_108:\n      dup2\n      sload\n      dup2\n      mstore\n      swap1\n      0x01\n      add\n      swap1\n      0x20\n      add\n      dup1\n      dup4\n      gt\n      tag_108\n      jumpi\n      dup3\n      swap1\n      sub\n      0x1f\n      and\n      dup3\n      add\n      swap2\n    tag_106:\n      pop\n      pop\n      pop\n      pop\n      pop\n      swap1\n      dup1\n      0x05\n      add\n      0x00\n      swap1\n      sload\n      swap1\n      0x0100\n      exp\n      swap1\n      div\n      0xff\n      and\n      swap1\n      dup1\n      0x06\n      add\n      sload\n      swap1\n      pop\n      dup8\n      jump\t// out\n        /* \"audits.sol\":1947:2281  function obtenerAuditoria(uint _id) public view returns (uint, string memory, address, string memory, string memory, bool, uint256) {... */\n    tag_46:\n        /* \"audits.sol\":2004:2008  uint */\n      0x00\n        /* \"audits.sol\":2010:2023  string memory */\n      0x60\n        /* \"audits.sol\":2025:2032  address */\n      0x00\n        /* \"audits.sol\":2034:2047  string memory */\n      0x60\n        /* \"audits.sol\":2049:2062  string memory */\n      dup1\n        /* \"audits.sol\":2064:2068  bool */\n      0x00\n        /* \"audits.sol\":2070:2077  uint256 */\n      dup1\n        /* \"audits.sol\":2089:2116  Auditoria storage auditoria */\n      0x00\n        /* \"audits.sol\":2119:2129  auditorias */\n      dup1\n        /* \"audits.sol\":2119:2134  auditorias[_id] */\n      0x00\n        /* \"audits.sol\":2130:2133  _id */\n      dup11\n        /* \"audits.sol\":2119:2134  auditorias[_id] */\n      dup2\n      mstore\n      0x20\n      add\n      swap1\n      dup2\n      mstore\n      0x20\n      add\n      0x00\n      keccak256\n        /* \"audits.sol\":2089:2134  Auditoria storage auditoria = auditorias[_id] */\n      swap1\n      pop\n        /* \"audits.sol\":2152:2161  auditoria */\n      dup1\n        /* \"audits.sol\":2152:2164  auditoria.id */\n      0x00\n      add\n      sload\n        /* \"audits.sol\":2166:2175  auditoria */\n      dup2\n        /* \"audits.sol\":2166:2187  auditoria.serviceName */\n      0x01\n      add\n        /* \"audits.sol\":2189:2198  auditoria */\n      dup3\n        /* \"audits.sol\":2189:2204  auditoria.owner */\n      0x02\n      add\n      0x00\n      swap1\n      sload\n      swap1\n      0x0100\n      exp\n      swap1\n      div\n      0xffffffffffffffffffffffffffffffffffffffff\n      and\n        /* \"audits.sol\":2206:2215  auditoria */\n      dup4\n        /* \"audits.sol\":2206:2219  auditoria.uri */\n      0x03\n      add\n        /* \"audits.sol\":2221:2230  auditoria */\n      dup5\n        /* \"audits.sol\":2221:2235  auditoria.port */\n      0x04\n      add\n        /* \"audits.sol\":2237:2246  auditoria */\n      dup6\n        /* \"audits.sol\":2237:2252  auditoria.valid */\n      0x05\n      add\n      0x00\n      swap1\n      sload\n      swap1\n      0x0100\n      exp\n      swap1\n      div\n      0xff\n      and\n        /* \"audits.sol\":2254:2263  auditoria */\n      dup7\n        /* \"audits.sol\":2254:2273  auditoria.timestamp */\n      0x06\n      add\n      sload\n        /* \"audits.sol\":2144:2274  return (auditoria.id, auditoria.serviceName, auditoria.owner, auditoria.uri, auditoria.port, auditoria.valid, auditoria.timestamp) */\n      dup6\n      dup1\n      sload\n      tag_110\n      swap1\n      tag_60\n      jump\t// in\n    tag_110:\n      dup1\n      0x1f\n      add\n      0x20\n      dup1\n      swap2\n      div\n      mul\n      0x20\n      add\n      mload(0x40)\n      swap1\n      dup2\n      add\n      0x40\n      mstore\n      dup1\n      swap3\n      swap2\n      swap1\n      dup2\n      dup2\n      mstore\n      0x20\n      add\n      dup3\n      dup1\n      sload\n      tag_111\n      swap1\n      tag_60\n      jump\t// in\n    tag_111:\n      dup1\n      iszero\n      tag_112\n      jumpi\n      dup1\n      0x1f\n      lt\n      tag_113\n      jumpi\n      0x0100\n      dup1\n      dup4\n      sload\n      div\n      mul\n      dup4\n      mstore\n      swap2\n      0x20\n      add\n      swap2\n      jump(tag_112)\n    tag_113:\n      dup3\n      add\n      swap2\n      swap1\n      0x00\n      mstore\n      keccak256(0x00, 0x20)\n      swap1\n    tag_114:\n      dup2\n      sload\n      dup2\n      mstore\n      swap1\n      0x01\n      add\n      swap1\n      0x20\n      add\n      dup1\n      dup4\n      gt\n      tag_114\n      jumpi\n      dup3\n      swap1\n      sub\n      0x1f\n      and\n      dup3\n      add\n      swap2\n    tag_112:\n      pop\n      pop\n      pop\n      pop\n      pop\n      swap6\n      pop\n      dup4\n      dup1\n      sload\n      tag_115\n      swap1\n      tag_60\n      jump\t// in\n    tag_115:\n      dup1\n      0x1f\n      add\n      0x20\n      dup1\n      swap2\n      div\n      mul\n      0x20\n      add\n      mload(0x40)\n      swap1\n      dup2\n      add\n      0x40\n      mstore\n      dup1\n      swap3\n      swap2\n      swap1\n      dup2\n      dup2\n      mstore\n      0x20\n      add\n      dup3\n      dup1\n      sload\n      tag_116\n      swap1\n      tag_60\n      jump\t// in\n    tag_116:\n      dup1\n      iszero\n      tag_117\n      jumpi\n      dup1\n      0x1f\n      lt\n      tag_118\n      jumpi\n      0x0100\n      dup1\n      dup4\n      sload\n      div\n      mul\n      dup4\n      mstore\n      swap2\n      0x20\n      add\n      swap2\n      jump(tag_117)\n    tag_118:\n      dup3\n      add\n      swap2\n      swap1\n      0x00\n      mstore\n      keccak256(0x00, 0x20)\n      swap1\n    tag_119:\n      dup2\n      sload\n      dup2\n      mstore\n      swap1\n      0x01\n      add\n      swap1\n      0x20\n      add\n      dup1\n      dup4\n      gt\n      tag_119\n      jumpi\n      dup3\n      swap1\n      sub\n      0x1f\n      and\n      dup3\n      add\n      swap2\n    tag_117:\n      pop\n      pop\n      pop\n      pop\n      pop\n      swap4\n      pop\n      dup3\n      dup1\n      sload\n      tag_120\n      swap1\n      tag_60\n      jump\t// in\n    tag_120:\n      dup1\n      0x1f\n      add\n      0x20\n      dup1\n      swap2\n      div\n      mul\n      0x20\n      add\n      mload(0x40)\n      swap1\n      dup2\n      add\n      0x40\n      mstore\n      dup1\n      swap3\n      swap2\n      swap1\n      dup2\n      dup2\n      mstore\n      0x20\n      add\n      dup3\n      dup1\n      sload\n      tag_121\n      swap1\n      tag_60\n      jump\t// in\n    tag_121:\n      dup1\n      iszero\n      tag_122\n      jumpi\n      dup1\n      0x1f\n      lt\n      tag_123\n      jumpi\n      0x0100\n      dup1\n      dup4\n      sload\n      div\n      mul\n      dup4\n      mstore\n      swap2\n      0x20\n      add\n      swap2\n      jump(tag_122)\n    tag_123:\n      dup3\n      add\n      swap2\n      swap1\n      0x00\n      mstore\n      keccak256(0x00, 0x20)\n      swap1\n    tag_124:\n      dup2\n      sload\n      dup2\n      mstore\n      swap1\n      0x01\n      add\n      swap1\n      0x20\n      add\n      dup1\n      dup4\n      gt\n      tag_124\n      jumpi\n      dup3\n      swap1\n      sub\n      0x1f\n      and\n      dup3\n      add\n      swap2\n    tag_122:\n      pop\n      pop\n      pop\n      pop\n      pop\n      swap3\n      pop\n      swap8\n      pop\n      swap8\n      pop\n      swap8\n      pop\n      swap8\n      pop\n      swap8\n      pop\n      swap8\n      pop\n      swap8\n      pop\n      pop\n        /* \"audits.sol\":1947:2281  function obtenerAuditoria(uint _id) public view returns (uint, string memory, address, string memory, string memory, bool, uint256) {... */\n      swap2\n      swap4\n      swap6\n      swap8\n      swap1\n      swap3\n      swap5\n      swap7\n      pop\n      jump\t// out\n        /* \"audits.sol\":2347:2868  function obtenerEvidencias(uint _id) public view returns (string[] memory, uint256[] memory) {... */\n    tag_50:\n        /* \"audits.sol\":2405:2420  string[] memory */\n      0x60\n        /* \"audits.sol\":2422:2438  uint256[] memory */\n      dup1\n        /* \"audits.sol\":2450:2479  Evidencia[] storage evidencia */\n      0x00\n        /* \"audits.sol\":2482:2492  evidencias */\n      0x01\n        /* \"audits.sol\":2482:2497  evidencias[_id] */\n      0x00\n        /* \"audits.sol\":2493:2496  _id */\n      dup6\n        /* \"audits.sol\":2482:2497  evidencias[_id] */\n      dup2\n      mstore\n      0x20\n      add\n      swap1\n      dup2\n      mstore\n      0x20\n      add\n      0x00\n      keccak256\n        /* \"audits.sol\":2450:2497  Evidencia[] storage evidencia = evidencias[_id] */\n      swap1\n      pop\n        /* \"audits.sol\":2507:2538  string[] memory evidenciasArray */\n      0x00\n        /* \"audits.sol\":2554:2563  evidencia */\n      dup2\n        /* \"audits.sol\":2554:2570  evidencia.length */\n      dup1\n      sload\n      swap1\n      pop\n        /* \"audits.sol\":2541:2571  new string[](evidencia.length) */\n      0xffffffffffffffff\n      dup2\n      gt\n      iszero\n      tag_126\n      jumpi\n      tag_127\n      tag_68\n      jump\t// in\n    tag_127:\n    tag_126:\n      mload(0x40)\n      swap1\n      dup1\n      dup3\n      mstore\n      dup1\n      0x20\n      mul\n      0x20\n      add\n      dup3\n      add\n      0x40\n      mstore\n      dup1\n      iszero\n      tag_128\n      jumpi\n      dup2\n      0x20\n      add\n    tag_129:\n      0x60\n      dup2\n      mstore\n      0x20\n      add\n      swap1\n      0x01\n      swap1\n      sub\n      swap1\n      dup2\n      tag_129\n      jumpi\n      swap1\n      pop\n    tag_128:\n      pop\n        /* \"audits.sol\":2507:2571  string[] memory evidenciasArray = new string[](evidencia.length) */\n      swap1\n      pop\n        /* \"audits.sol\":2581:2608  uint256[] memory timestamps */\n      0x00\n        /* \"audits.sol\":2625:2634  evidencia */\n      dup3\n        /* \"audits.sol\":2625:2641  evidencia.length */\n      dup1\n      sload\n      swap1\n      pop\n        /* \"audits.sol\":2611:2642  new uint256[](evidencia.length) */\n      0xffffffffffffffff\n      dup2\n      gt\n      iszero\n      tag_130\n      jumpi\n      tag_131\n      tag_68\n      jump\t// in\n    tag_131:\n    tag_130:\n      mload(0x40)\n      swap1\n      dup1\n      dup3\n      mstore\n      dup1\n      0x20\n      mul\n      0x20\n      add\n      dup3\n      add\n      0x40\n      mstore\n      dup1\n      iszero\n      tag_132\n      jumpi\n      dup2\n      0x20\n      add\n      0x20\n      dup3\n      mul\n      dup1\n      calldatasize\n      dup4\n      calldatacopy\n      dup1\n      dup3\n      add\n      swap2\n      pop\n      pop\n      swap1\n      pop\n    tag_132:\n      pop\n        /* \"audits.sol\":2581:2642  uint256[] memory timestamps = new uint256[](evidencia.length) */\n      swap1\n      pop\n        /* \"audits.sol\":2657:2663  uint i */\n      0x00\n        /* \"audits.sol\":2652:2816  for (uint i = 0; i < evidencia.length; i++) {... */\n    tag_133:\n        /* \"audits.sol\":2673:2682  evidencia */\n      dup4\n        /* \"audits.sol\":2673:2689  evidencia.length */\n      dup1\n      sload\n      swap1\n      pop\n        /* \"audits.sol\":2669:2670  i */\n      dup2\n        /* \"audits.sol\":2669:2689  i < evidencia.length */\n      lt\n        /* \"audits.sol\":2652:2816  for (uint i = 0; i < evidencia.length; i++) {... */\n      iszero\n      tag_134\n      jumpi\n        /* \"audits.sol\":2731:2740  evidencia */\n      dup4\n        /* \"audits.sol\":2741:2742  i */\n      dup2\n        /* \"audits.sol\":2731:2743  evidencia[i] */\n      dup2\n      sload\n      dup2\n      lt\n      tag_136\n      jumpi\n      tag_137\n      tag_75\n      jump\t// in\n    tag_137:\n    tag_136:\n      swap1\n      0x00\n      mstore\n      keccak256(0x00, 0x20)\n      swap1\n      0x02\n      mul\n      add\n        /* \"audits.sol\":2731:2753  evidencia[i].evidencia */\n      0x00\n      add\n        /* \"audits.sol\":2710:2753  evidenciasArray[i] = evidencia[i].evidencia */\n      dup1\n      sload\n      tag_139\n      swap1\n      tag_60\n      jump\t// in\n    tag_139:\n      dup1\n      0x1f\n      add\n      0x20\n      dup1\n      swap2\n      div\n      mul\n      0x20\n      add\n      mload(0x40)\n      swap1\n      dup2\n      add\n      0x40\n      mstore\n      dup1\n      swap3\n      swap2\n      swap1\n      dup2\n      dup2\n      mstore\n      0x20\n      add\n      dup3\n      dup1\n      sload\n      tag_140\n      swap1\n      tag_60\n      jump\t// in\n    tag_140:\n      dup1\n      iszero\n      tag_141\n      jumpi\n      dup1\n      0x1f\n      lt\n      tag_142\n      jumpi\n      0x0100\n      dup1\n      dup4\n      sload\n      div\n      mul\n      dup4\n      mstore\n      swap2\n      0x20\n      add\n      swap2\n      jump(tag_141)\n    tag_142:\n      dup3\n      add\n      swap2\n      swap1\n      0x00\n      mstore\n      keccak256(0x00, 0x20)\n      swap1\n    tag_143:\n      dup2\n      sload\n      dup2\n      mstore\n      swap1\n      0x01\n      add\n      swap1\n      0x20\n      add\n      dup1\n      dup4\n      gt\n      tag_143\n      jumpi\n      dup3\n      swap1\n      sub\n      0x1f\n      and\n      dup3\n      add\n      swap2\n    tag_141:\n      pop\n      pop\n      pop\n      pop\n      pop\n        /* \"audits.sol\":2710:2725  evidenciasArray */\n      dup4\n        /* \"audits.sol\":2726:2727  i */\n      dup3\n        /* \"audits.sol\":2710:2728  evidenciasArray[i] */\n      dup2\n      mload\n      dup2\n      lt\n      tag_144\n      jumpi\n      tag_145\n      tag_75\n      jump\t// in\n    tag_145:\n    tag_144:\n      0x20\n      mul\n      0x20\n      add\n      add\n        /* \"audits.sol\":2710:2753  evidenciasArray[i] = evidencia[i].evidencia */\n      dup2\n      swap1\n      mstore\n      pop\n        /* \"audits.sol\":2783:2792  evidencia */\n      dup4\n        /* \"audits.sol\":2793:2794  i */\n      dup2\n        /* \"audits.sol\":2783:2795  evidencia[i] */\n      dup2\n      sload\n      dup2\n      lt\n      tag_146\n      jumpi\n      tag_147\n      tag_75\n      jump\t// in\n    tag_147:\n    tag_146:\n      swap1\n      0x00\n      mstore\n      keccak256(0x00, 0x20)\n      swap1\n      0x02\n      mul\n      add\n        /* \"audits.sol\":2783:2805  evidencia[i].timestamp */\n      0x01\n      add\n      sload\n        /* \"audits.sol\":2767:2777  timestamps */\n      dup3\n        /* \"audits.sol\":2778:2779  i */\n      dup3\n        /* \"audits.sol\":2767:2780  timestamps[i] */\n      dup2\n      mload\n      dup2\n      lt\n      tag_149\n      jumpi\n      tag_150\n      tag_75\n      jump\t// in\n    tag_150:\n    tag_149:\n      0x20\n      mul\n      0x20\n      add\n      add\n        /* \"audits.sol\":2767:2805  timestamps[i] = evidencia[i].timestamp */\n      dup2\n      dup2\n      mstore\n      pop\n      pop\n        /* \"audits.sol\":2691:2694  i++ */\n      dup1\n      dup1\n      0x01\n      add\n      swap2\n      pop\n      pop\n        /* \"audits.sol\":2652:2816  for (uint i = 0; i < evidencia.length; i++) {... */\n      jump(tag_133)\n    tag_134:\n      pop\n        /* \"audits.sol\":2833:2848  evidenciasArray */\n      dup2\n        /* \"audits.sol\":2850:2860  timestamps */\n      dup2\n        /* \"audits.sol\":2825:2861  return (evidenciasArray, timestamps) */\n      swap5\n      pop\n      swap5\n      pop\n      pop\n      pop\n      pop\n        /* \"audits.sol\":2347:2868  function obtenerEvidencias(uint _id) public view returns (string[] memory, uint256[] memory) {... */\n      swap2\n      pop\n      swap2\n      jump\t// out\n        /* \"audits.sol\":526:572  mapping(uint => Evidencia[]) public evidencias */\n    tag_56:\n      mstore(0x20, 0x01)\n      dup2\n      0x00\n      mstore\n      keccak256(0x00, 0x40)\n      dup2\n      dup2\n      sload\n      dup2\n      lt\n      tag_151\n      jumpi\n      0x00\n      dup1\n      revert\n    tag_151:\n      swap1\n      0x00\n      mstore\n      keccak256(0x00, 0x20)\n      swap1\n      0x02\n      mul\n      add\n      0x00\n      swap2\n      pop\n      swap2\n      pop\n      pop\n      dup1\n      0x00\n      add\n      dup1\n      sload\n      tag_153\n      swap1\n      tag_60\n      jump\t// in\n    tag_153:\n      dup1\n      0x1f\n      add\n      0x20\n      dup1\n      swap2\n      div\n      mul\n      0x20\n      add\n      mload(0x40)\n      swap1\n      dup2\n      add\n      0x40\n      mstore\n      dup1\n      swap3\n      swap2\n      swap1\n      dup2\n      dup2\n      mstore\n      0x20\n      add\n      dup3\n      dup1\n      sload\n      tag_154\n      swap1\n      tag_60\n      jump\t// in\n    tag_154:\n      dup1\n      iszero\n      tag_155\n      jumpi\n      dup1\n      0x1f\n      lt\n      tag_156\n      jumpi\n      0x0100\n      dup1\n      dup4\n      sload\n      div\n      mul\n      dup4\n      mstore\n      swap2\n      0x20\n      add\n      swap2\n      jump(tag_155)\n    tag_156:\n      dup3\n      add\n      swap2\n      swap1\n      0x00\n      mstore\n      keccak256(0x00, 0x20)\n      swap1\n    tag_157:\n      dup2\n      sload\n      dup2\n      mstore\n      swap1\n      0x01\n      add\n      swap1\n      0x20\n      add\n      dup1\n      dup4\n      gt\n      tag_157\n      jumpi\n      dup3\n      swap1\n      sub\n      0x1f\n      and\n      dup3\n      add\n      swap2\n    tag_155:\n      pop\n      pop\n      pop\n      pop\n      pop\n      swap1\n      dup1\n      0x01\n      add\n      sload\n      swap1\n      pop\n      dup3\n      jump\t// out\n        /* \"#utility.yul\":7:106   */\n    tag_158:\n        /* \"#utility.yul\":59:65   */\n      0x00\n        /* \"#utility.yul\":93:98   */\n      dup2\n        /* \"#utility.yul\":87:99   */\n      mload\n        /* \"#utility.yul\":77:99   */\n      swap1\n      pop\n        /* \"#utility.yul\":7:106   */\n      swap2\n      swap1\n      pop\n      jump\t// out\n        /* \"#utility.yul\":112:281   */\n    tag_159:\n        /* \"#utility.yul\":196:207   */\n      0x00\n        /* \"#utility.yul\":230:236   */\n      dup3\n        /* \"#utility.yul\":225:228   */\n      dup3\n        /* \"#utility.yul\":218:237   */\n      mstore\n        /* \"#utility.yul\":270:274   */\n      0x20\n        /* \"#utility.yul\":265:268   */\n      dup3\n        /* \"#utility.yul\":261:275   */\n      add\n        /* \"#utility.yul\":246:275   */\n      swap1\n      pop\n        /* \"#utility.yul\":112:281   */\n      swap3\n      swap2\n      pop\n      pop\n      jump\t// out\n        /* \"#utility.yul\":287:426   */\n    tag_160:\n        /* \"#utility.yul\":376:382   */\n      dup3\n        /* \"#utility.yul\":371:374   */\n      dup2\n        /* \"#utility.yul\":366:369   */\n      dup4\n        /* \"#utility.yul\":360:383   */\n      mcopy\n        /* \"#utility.yul\":417:418   */\n      0x00\n        /* \"#utility.yul\":408:414   */\n      dup4\n        /* \"#utility.yul\":403:406   */\n      dup4\n        /* \"#utility.yul\":399:415   */\n      add\n        /* \"#utility.yul\":392:419   */\n      mstore\n        /* \"#utility.yul\":287:426   */\n      pop\n      pop\n      pop\n      jump\t// out\n        /* \"#utility.yul\":432:534   */\n    tag_161:\n        /* \"#utility.yul\":473:479   */\n      0x00\n        /* \"#utility.yul\":524:526   */\n      0x1f\n        /* \"#utility.yul\":520:527   */\n      not\n        /* \"#utility.yul\":515:517   */\n      0x1f\n        /* \"#utility.yul\":508:513   */\n      dup4\n        /* \"#utility.yul\":504:518   */\n      add\n        /* \"#utility.yul\":500:528   */\n      and\n        /* \"#utility.yul\":490:528   */\n      swap1\n      pop\n        /* \"#utility.yul\":432:534   */\n      swap2\n      swap1\n      pop\n      jump\t// out\n        /* \"#utility.yul\":540:917   */\n    tag_162:\n        /* \"#utility.yul\":628:631   */\n      0x00\n        /* \"#utility.yul\":656:695   */\n      tag_223\n        /* \"#utility.yul\":689:694   */\n      dup3\n        /* \"#utility.yul\":656:695   */\n      tag_158\n      jump\t// in\n    tag_223:\n        /* \"#utility.yul\":711:782   */\n      tag_224\n        /* \"#utility.yul\":775:781   */\n      dup2\n        /* \"#utility.yul\":770:773   */\n      dup6\n        /* \"#utility.yul\":711:782   */\n      tag_159\n      jump\t// in\n    tag_224:\n        /* \"#utility.yul\":704:782   */\n      swap4\n      pop\n        /* \"#utility.yul\":791:856   */\n      tag_225\n        /* \"#utility.yul\":849:855   */\n      dup2\n        /* \"#utility.yul\":844:847   */\n      dup6\n        /* \"#utility.yul\":837:841   */\n      0x20\n        /* \"#utility.yul\":830:835   */\n      dup7\n        /* \"#utility.yul\":826:842   */\n      add\n        /* \"#utility.yul\":791:856   */\n      tag_160\n      jump\t// in\n    tag_225:\n        /* \"#utility.yul\":881:910   */\n      tag_226\n        /* \"#utility.yul\":903:909   */\n      dup2\n        /* \"#utility.yul\":881:910   */\n      tag_161\n      jump\t// in\n    tag_226:\n        /* \"#utility.yul\":876:879   */\n      dup5\n        /* \"#utility.yul\":872:911   */\n      add\n        /* \"#utility.yul\":865:911   */\n      swap2\n      pop\n        /* \"#utility.yul\":632:917   */\n      pop\n        /* \"#utility.yul\":540:917   */\n      swap3\n      swap2\n      pop\n      pop\n      jump\t// out\n        /* \"#utility.yul\":923:1236   */\n    tag_17:\n        /* \"#utility.yul\":1036:1040   */\n      0x00\n        /* \"#utility.yul\":1074:1076   */\n      0x20\n        /* \"#utility.yul\":1063:1072   */\n      dup3\n        /* \"#utility.yul\":1059:1077   */\n      add\n        /* \"#utility.yul\":1051:1077   */\n      swap1\n      pop\n        /* \"#utility.yul\":1123:1132   */\n      dup2\n        /* \"#utility.yul\":1117:1121   */\n      dup2\n        /* \"#utility.yul\":1113:1133   */\n      sub\n        /* \"#utility.yul\":1109:1110   */\n      0x00\n        /* \"#utility.yul\":1098:1107   */\n      dup4\n        /* \"#utility.yul\":1094:1111   */\n      add\n        /* \"#utility.yul\":1087:1134   */\n      mstore\n        /* \"#utility.yul\":1151:1229   */\n      tag_228\n        /* \"#utility.yul\":1224:1228   */\n      dup2\n        /* \"#utility.yul\":1215:1221   */\n      dup5\n        /* \"#utility.yul\":1151:1229   */\n      tag_162\n      jump\t// in\n    tag_228:\n        /* \"#utility.yul\":1143:1229   */\n      swap1\n      pop\n        /* \"#utility.yul\":923:1236   */\n      swap3\n      swap2\n      pop\n      pop\n      jump\t// out\n        /* \"#utility.yul\":1242:1356   */\n    tag_163:\n        /* \"#utility.yul\":1309:1315   */\n      0x00\n        /* \"#utility.yul\":1343:1348   */\n      dup2\n        /* \"#utility.yul\":1337:1349   */\n      mload\n        /* \"#utility.yul\":1327:1349   */\n      swap1\n      pop\n        /* \"#utility.yul\":1242:1356   */\n      swap2\n      swap1\n      pop\n      jump\t// out\n        /* \"#utility.yul\":1362:1546   */\n    tag_164:\n        /* \"#utility.yul\":1461:1472   */\n      0x00\n        /* \"#utility.yul\":1495:1501   */\n      dup3\n        /* \"#utility.yul\":1490:1493   */\n      dup3\n        /* \"#utility.yul\":1483:1502   */\n      mstore\n        /* \"#utility.yul\":1535:1539   */\n      0x20\n        /* \"#utility.yul\":1530:1533   */\n      dup3\n        /* \"#utility.yul\":1526:1540   */\n      add\n        /* \"#utility.yul\":1511:1540   */\n      swap1\n      pop\n        /* \"#utility.yul\":1362:1546   */\n      swap3\n      swap2\n      pop\n      pop\n      jump\t// out\n        /* \"#utility.yul\":1552:1684   */\n    tag_165:\n        /* \"#utility.yul\":1619:1623   */\n      0x00\n        /* \"#utility.yul\":1642:1645   */\n      dup2\n        /* \"#utility.yul\":1634:1645   */\n      swap1\n      pop\n        /* \"#utility.yul\":1672:1676   */\n      0x20\n        /* \"#utility.yul\":1667:1670   */\n      dup3\n        /* \"#utility.yul\":1663:1677   */\n      add\n        /* \"#utility.yul\":1655:1677   */\n      swap1\n      pop\n        /* \"#utility.yul\":1552:1684   */\n      swap2\n      swap1\n      pop\n      jump\t// out\n        /* \"#utility.yul\":1690:1767   */\n    tag_166:\n        /* \"#utility.yul\":1727:1734   */\n      0x00\n        /* \"#utility.yul\":1756:1761   */\n      dup2\n        /* \"#utility.yul\":1745:1761   */\n      swap1\n      pop\n        /* \"#utility.yul\":1690:1767   */\n      swap2\n      swap1\n      pop\n      jump\t// out\n        /* \"#utility.yul\":1773:1881   */\n    tag_167:\n        /* \"#utility.yul\":1850:1874   */\n      tag_234\n        /* \"#utility.yul\":1868:1873   */\n      dup2\n        /* \"#utility.yul\":1850:1874   */\n      tag_166\n      jump\t// in\n    tag_234:\n        /* \"#utility.yul\":1845:1848   */\n      dup3\n        /* \"#utility.yul\":1838:1875   */\n      mstore\n        /* \"#utility.yul\":1773:1881   */\n      pop\n      pop\n      jump\t// out\n        /* \"#utility.yul\":1887:2066   */\n    tag_168:\n        /* \"#utility.yul\":1956:1966   */\n      0x00\n        /* \"#utility.yul\":1977:2023   */\n      tag_236\n        /* \"#utility.yul\":2019:2022   */\n      dup4\n        /* \"#utility.yul\":2011:2017   */\n      dup4\n        /* \"#utility.yul\":1977:2023   */\n      tag_167\n      jump\t// in\n    tag_236:\n        /* \"#utility.yul\":2055:2059   */\n      0x20\n        /* \"#utility.yul\":2050:2053   */\n      dup4\n        /* \"#utility.yul\":2046:2060   */\n      add\n        /* \"#utility.yul\":2032:2060   */\n      swap1\n      pop\n        /* \"#utility.yul\":1887:2066   */\n      swap3\n      swap2\n      pop\n      pop\n      jump\t// out\n        /* \"#utility.yul\":2072:2185   */\n    tag_169:\n        /* \"#utility.yul\":2142:2146   */\n      0x00\n        /* \"#utility.yul\":2174:2178   */\n      0x20\n        /* \"#utility.yul\":2169:2172   */\n      dup3\n        /* \"#utility.yul\":2165:2179   */\n      add\n        /* \"#utility.yul\":2157:2179   */\n      swap1\n      pop\n        /* \"#utility.yul\":2072:2185   */\n      swap2\n      swap1\n      pop\n      jump\t// out\n        /* \"#utility.yul\":2221:2953   */\n    tag_170:\n        /* \"#utility.yul\":2340:2343   */\n      0x00\n        /* \"#utility.yul\":2369:2423   */\n      tag_239\n        /* \"#utility.yul\":2417:2422   */\n      dup3\n        /* \"#utility.yul\":2369:2423   */\n      tag_163\n      jump\t// in\n    tag_239:\n        /* \"#utility.yul\":2439:2525   */\n      tag_240\n        /* \"#utility.yul\":2518:2524   */\n      dup2\n        /* \"#utility.yul\":2513:2516   */\n      dup6\n        /* \"#utility.yul\":2439:2525   */\n      tag_164\n      jump\t// in\n    tag_240:\n        /* \"#utility.yul\":2432:2525   */\n      swap4\n      pop\n        /* \"#utility.yul\":2549:2605   */\n      tag_241\n        /* \"#utility.yul\":2599:2604   */\n      dup4\n        /* \"#utility.yul\":2549:2605   */\n      tag_165\n      jump\t// in\n    tag_241:\n        /* \"#utility.yul\":2628:2635   */\n      dup1\n        /* \"#utility.yul\":2659:2660   */\n      0x00\n        /* \"#utility.yul\":2644:2928   */\n    tag_242:\n        /* \"#utility.yul\":2669:2675   */\n      dup4\n        /* \"#utility.yul\":2666:2667   */\n      dup2\n        /* \"#utility.yul\":2663:2676   */\n      lt\n        /* \"#utility.yul\":2644:2928   */\n      iszero\n      tag_244\n      jumpi\n        /* \"#utility.yul\":2745:2751   */\n      dup2\n        /* \"#utility.yul\":2739:2752   */\n      mload\n        /* \"#utility.yul\":2772:2835   */\n      tag_245\n        /* \"#utility.yul\":2831:2834   */\n      dup9\n        /* \"#utility.yul\":2816:2829   */\n      dup3\n        /* \"#utility.yul\":2772:2835   */\n      tag_168\n      jump\t// in\n    tag_245:\n        /* \"#utility.yul\":2765:2835   */\n      swap8\n      pop\n        /* \"#utility.yul\":2858:2918   */\n      tag_246\n        /* \"#utility.yul\":2911:2917   */\n      dup4\n        /* \"#utility.yul\":2858:2918   */\n      tag_169\n      jump\t// in\n    tag_246:\n        /* \"#utility.yul\":2848:2918   */\n      swap3\n      pop\n        /* \"#utility.yul\":2704:2928   */\n      pop\n        /* \"#utility.yul\":2691:2692   */\n      0x01\n        /* \"#utility.yul\":2688:2689   */\n      dup2\n        /* \"#utility.yul\":2684:2693   */\n      add\n        /* \"#utility.yul\":2679:2693   */\n      swap1\n      pop\n        /* \"#utility.yul\":2644:2928   */\n      jump(tag_242)\n    tag_244:\n        /* \"#utility.yul\":2648:2662   */\n      pop\n        /* \"#utility.yul\":2944:2947   */\n      dup6\n        /* \"#utility.yul\":2937:2947   */\n      swap4\n      pop\n        /* \"#utility.yul\":2345:2953   */\n      pop\n      pop\n      pop\n        /* \"#utility.yul\":2221:2953   */\n      swap3\n      swap2\n      pop\n      pop\n      jump\t// out\n        /* \"#utility.yul\":2959:3332   */\n    tag_21:\n        /* \"#utility.yul\":3102:3106   */\n      0x00\n        /* \"#utility.yul\":3140:3142   */\n      0x20\n        /* \"#utility.yul\":3129:3138   */\n      dup3\n        /* \"#utility.yul\":3125:3143   */\n      add\n        /* \"#utility.yul\":3117:3143   */\n      swap1\n      pop\n        /* \"#utility.yul\":3189:3198   */\n      dup2\n        /* \"#utility.yul\":3183:3187   */\n      dup2\n        /* \"#utility.yul\":3179:3199   */\n      sub\n        /* \"#utility.yul\":3175:3176   */\n      0x00\n        /* \"#utility.yul\":3164:3173   */\n      dup4\n        /* \"#utility.yul\":3160:3177   */\n      add\n        /* \"#utility.yul\":3153:3200   */\n      mstore\n        /* \"#utility.yul\":3217:3325   */\n      tag_248\n        /* \"#utility.yul\":3320:3324   */\n      dup2\n        /* \"#utility.yul\":3311:3317   */\n      dup5\n        /* \"#utility.yul\":3217:3325   */\n      tag_170\n      jump\t// in\n    tag_248:\n        /* \"#utility.yul\":3209:3325   */\n      swap1\n      pop\n        /* \"#utility.yul\":2959:3332   */\n      swap3\n      swap2\n      pop\n      pop\n      jump\t// out\n        /* \"#utility.yul\":3338:3413   */\n    tag_171:\n        /* \"#utility.yul\":3371:3377   */\n      0x00\n        /* \"#utility.yul\":3404:3406   */\n      0x40\n        /* \"#utility.yul\":3398:3407   */\n      mload\n        /* \"#utility.yul\":3388:3407   */\n      swap1\n      pop\n        /* \"#utility.yul\":3338:3413   */\n      swap1\n      jump\t// out\n        /* \"#utility.yul\":3419:3536   */\n    tag_172:\n        /* \"#utility.yul\":3528:3529   */\n      0x00\n        /* \"#utility.yul\":3525:3526   */\n      dup1\n        /* \"#utility.yul\":3518:3530   */\n      revert\n        /* \"#utility.yul\":3542:3659   */\n    tag_173:\n        /* \"#utility.yul\":3651:3652   */\n      0x00\n        /* \"#utility.yul\":3648:3649   */\n      dup1\n        /* \"#utility.yul\":3641:3653   */\n      revert\n        /* \"#utility.yul\":3665:3782   */\n    tag_174:\n        /* \"#utility.yul\":3774:3775   */\n      0x00\n        /* \"#utility.yul\":3771:3772   */\n      dup1\n        /* \"#utility.yul\":3764:3776   */\n      revert\n        /* \"#utility.yul\":3788:3905   */\n    tag_175:\n        /* \"#utility.yul\":3897:3898   */\n      0x00\n        /* \"#utility.yul\":3894:3895   */\n      dup1\n        /* \"#utility.yul\":3887:3899   */\n      revert\n        /* \"#utility.yul\":3911:4091   */\n    tag_68:\n        /* \"#utility.yul\":3959:4036   */\n      0x4e487b7100000000000000000000000000000000000000000000000000000000\n        /* \"#utility.yul\":3956:3957   */\n      0x00\n        /* \"#utility.yul\":3949:4037   */\n      mstore\n        /* \"#utility.yul\":4056:4060   */\n      0x41\n        /* \"#utility.yul\":4053:4054   */\n      0x04\n        /* \"#utility.yul\":4046:4061   */\n      mstore\n        /* \"#utility.yul\":4080:4084   */\n      0x24\n        /* \"#utility.yul\":4077:4078   */\n      0x00\n        /* \"#utility.yul\":4070:4085   */\n      revert\n        /* \"#utility.yul\":4097:4378   */\n    tag_176:\n        /* \"#utility.yul\":4180:4207   */\n      tag_256\n        /* \"#utility.yul\":4202:4206   */\n      dup3\n        /* \"#utility.yul\":4180:4207   */\n      tag_161\n      jump\t// in\n    tag_256:\n        /* \"#utility.yul\":4172:4178   */\n      dup2\n        /* \"#utility.yul\":4168:4208   */\n      add\n        /* \"#utility.yul\":4310:4316   */\n      dup2\n        /* \"#utility.yul\":4298:4308   */\n      dup2\n        /* \"#utility.yul\":4295:4317   */\n      lt\n        /* \"#utility.yul\":4274:4292   */\n      0xffffffffffffffff\n        /* \"#utility.yul\":4262:4272   */\n      dup3\n        /* \"#utility.yul\":4259:4293   */\n      gt\n        /* \"#utility.yul\":4256:4318   */\n      or\n        /* \"#utility.yul\":4253:4341   */\n      iszero\n      tag_257\n      jumpi\n        /* \"#utility.yul\":4321:4339   */\n      tag_258\n      tag_68\n      jump\t// in\n    tag_258:\n        /* \"#utility.yul\":4253:4341   */\n    tag_257:\n        /* \"#utility.yul\":4361:4371   */\n      dup1\n        /* \"#utility.yul\":4357:4359   */\n      0x40\n        /* \"#utility.yul\":4350:4372   */\n      mstore\n        /* \"#utility.yul\":4140:4378   */\n      pop\n        /* \"#utility.yul\":4097:4378   */\n      pop\n      pop\n      jump\t// out\n        /* \"#utility.yul\":4384:4513   */\n    tag_177:\n        /* \"#utility.yul\":4418:4424   */\n      0x00\n        /* \"#utility.yul\":4445:4465   */\n      tag_260\n      tag_171\n      jump\t// in\n    tag_260:\n        /* \"#utility.yul\":4435:4465   */\n      swap1\n      pop\n        /* \"#utility.yul\":4474:4507   */\n      tag_261\n        /* \"#utility.yul\":4502:4506   */\n      dup3\n        /* \"#utility.yul\":4494:4500   */\n      dup3\n        /* \"#utility.yul\":4474:4507   */\n      tag_176\n      jump\t// in\n    tag_261:\n        /* \"#utility.yul\":4384:4513   */\n      swap2\n      swap1\n      pop\n      jump\t// out\n        /* \"#utility.yul\":4519:4827   */\n    tag_178:\n        /* \"#utility.yul\":4581:4585   */\n      0x00\n        /* \"#utility.yul\":4671:4689   */\n      0xffffffffffffffff\n        /* \"#utility.yul\":4663:4669   */\n      dup3\n        /* \"#utility.yul\":4660:4690   */\n      gt\n        /* \"#utility.yul\":4657:4713   */\n      iszero\n      tag_263\n      jumpi\n        /* \"#utility.yul\":4693:4711   */\n      tag_264\n      tag_68\n      jump\t// in\n    tag_264:\n        /* \"#utility.yul\":4657:4713   */\n    tag_263:\n        /* \"#utility.yul\":4731:4760   */\n      tag_265\n        /* \"#utility.yul\":4753:4759   */\n      dup3\n        /* \"#utility.yul\":4731:4760   */\n      tag_161\n      jump\t// in\n    tag_265:\n        /* \"#utility.yul\":4723:4760   */\n      swap1\n      pop\n        /* \"#utility.yul\":4815:4819   */\n      0x20\n        /* \"#utility.yul\":4809:4813   */\n      dup2\n        /* \"#utility.yul\":4805:4820   */\n      add\n        /* \"#utility.yul\":4797:4820   */\n      swap1\n      pop\n        /* \"#utility.yul\":4519:4827   */\n      swap2\n      swap1\n      pop\n      jump\t// out\n        /* \"#utility.yul\":4833:4981   */\n    tag_179:\n        /* \"#utility.yul\":4931:4937   */\n      dup3\n        /* \"#utility.yul\":4926:4929   */\n      dup2\n        /* \"#utility.yul\":4921:4924   */\n      dup4\n        /* \"#utility.yul\":4908:4938   */\n      calldatacopy\n        /* \"#utility.yul\":4972:4973   */\n      0x00\n        /* \"#utility.yul\":4963:4969   */\n      dup4\n        /* \"#utility.yul\":4958:4961   */\n      dup4\n        /* \"#utility.yul\":4954:4970   */\n      add\n        /* \"#utility.yul\":4947:4974   */\n      mstore\n        /* \"#utility.yul\":4833:4981   */\n      pop\n      pop\n      pop\n      jump\t// out\n        /* \"#utility.yul\":4987:5412   */\n    tag_180:\n        /* \"#utility.yul\":5065:5070   */\n      0x00\n        /* \"#utility.yul\":5090:5156   */\n      tag_268\n        /* \"#utility.yul\":5106:5155   */\n      tag_269\n        /* \"#utility.yul\":5148:5154   */\n      dup5\n        /* \"#utility.yul\":5106:5155   */\n      tag_178\n      jump\t// in\n    tag_269:\n        /* \"#utility.yul\":5090:5156   */\n      tag_177\n      jump\t// in\n    tag_268:\n        /* \"#utility.yul\":5081:5156   */\n      swap1\n      pop\n        /* \"#utility.yul\":5179:5185   */\n      dup3\n        /* \"#utility.yul\":5172:5177   */\n      dup2\n        /* \"#utility.yul\":5165:5186   */\n      mstore\n        /* \"#utility.yul\":5217:5221   */\n      0x20\n        /* \"#utility.yul\":5210:5215   */\n      dup2\n        /* \"#utility.yul\":5206:5222   */\n      add\n        /* \"#utility.yul\":5255:5258   */\n      dup5\n        /* \"#utility.yul\":5246:5252   */\n      dup5\n        /* \"#utility.yul\":5241:5244   */\n      dup5\n        /* \"#utility.yul\":5237:5253   */\n      add\n        /* \"#utility.yul\":5234:5259   */\n      gt\n        /* \"#utility.yul\":5231:5343   */\n      iszero\n      tag_270\n      jumpi\n        /* \"#utility.yul\":5262:5341   */\n      tag_271\n      tag_175\n      jump\t// in\n    tag_271:\n        /* \"#utility.yul\":5231:5343   */\n    tag_270:\n        /* \"#utility.yul\":5352:5406   */\n      tag_272\n        /* \"#utility.yul\":5399:5405   */\n      dup5\n        /* \"#utility.yul\":5394:5397   */\n      dup3\n        /* \"#utility.yul\":5389:5392   */\n      dup6\n        /* \"#utility.yul\":5352:5406   */\n      tag_179\n      jump\t// in\n    tag_272:\n        /* \"#utility.yul\":5071:5412   */\n      pop\n        /* \"#utility.yul\":4987:5412   */\n      swap4\n      swap3\n      pop\n      pop\n      pop\n      jump\t// out\n        /* \"#utility.yul\":5432:5772   */\n    tag_181:\n        /* \"#utility.yul\":5488:5493   */\n      0x00\n        /* \"#utility.yul\":5537:5540   */\n      dup3\n        /* \"#utility.yul\":5530:5534   */\n      0x1f\n        /* \"#utility.yul\":5522:5528   */\n      dup4\n        /* \"#utility.yul\":5518:5535   */\n      add\n        /* \"#utility.yul\":5514:5541   */\n      slt\n        /* \"#utility.yul\":5504:5626   */\n      tag_274\n      jumpi\n        /* \"#utility.yul\":5545:5624   */\n      tag_275\n      tag_174\n      jump\t// in\n    tag_275:\n        /* \"#utility.yul\":5504:5626   */\n    tag_274:\n        /* \"#utility.yul\":5662:5668   */\n      dup2\n        /* \"#utility.yul\":5649:5669   */\n      calldataload\n        /* \"#utility.yul\":5687:5766   */\n      tag_276\n        /* \"#utility.yul\":5762:5765   */\n      dup5\n        /* \"#utility.yul\":5754:5760   */\n      dup3\n        /* \"#utility.yul\":5747:5751   */\n      0x20\n        /* \"#utility.yul\":5739:5745   */\n      dup7\n        /* \"#utility.yul\":5735:5752   */\n      add\n        /* \"#utility.yul\":5687:5766   */\n      tag_180\n      jump\t// in\n    tag_276:\n        /* \"#utility.yul\":5678:5766   */\n      swap2\n      pop\n        /* \"#utility.yul\":5494:5772   */\n      pop\n        /* \"#utility.yul\":5432:5772   */\n      swap3\n      swap2\n      pop\n      pop\n      jump\t// out\n        /* \"#utility.yul\":5778:6937   */\n    tag_24:\n        /* \"#utility.yul\":5885:5891   */\n      0x00\n        /* \"#utility.yul\":5893:5899   */\n      dup1\n        /* \"#utility.yul\":5901:5907   */\n      0x00\n        /* \"#utility.yul\":5950:5952   */\n      0x60\n        /* \"#utility.yul\":5938:5947   */\n      dup5\n        /* \"#utility.yul\":5929:5936   */\n      dup7\n        /* \"#utility.yul\":5925:5948   */\n      sub\n        /* \"#utility.yul\":5921:5953   */\n      slt\n        /* \"#utility.yul\":5918:6037   */\n      iszero\n      tag_278\n      jumpi\n        /* \"#utility.yul\":5956:6035   */\n      tag_279\n      tag_172\n      jump\t// in\n    tag_279:\n        /* \"#utility.yul\":5918:6037   */\n    tag_278:\n        /* \"#utility.yul\":6104:6105   */\n      0x00\n        /* \"#utility.yul\":6093:6102   */\n      dup5\n        /* \"#utility.yul\":6089:6106   */\n      add\n        /* \"#utility.yul\":6076:6107   */\n      calldataload\n        /* \"#utility.yul\":6134:6152   */\n      0xffffffffffffffff\n        /* \"#utility.yul\":6126:6132   */\n      dup2\n        /* \"#utility.yul\":6123:6153   */\n      gt\n        /* \"#utility.yul\":6120:6237   */\n      iszero\n      tag_280\n      jumpi\n        /* \"#utility.yul\":6156:6235   */\n      tag_281\n      tag_173\n      jump\t// in\n    tag_281:\n        /* \"#utility.yul\":6120:6237   */\n    tag_280:\n        /* \"#utility.yul\":6261:6324   */\n      tag_282\n        /* \"#utility.yul\":6316:6323   */\n      dup7\n        /* \"#utility.yul\":6307:6313   */\n      dup3\n        /* \"#utility.yul\":6296:6305   */\n      dup8\n        /* \"#utility.yul\":6292:6314   */\n      add\n        /* \"#utility.yul\":6261:6324   */\n      tag_181\n      jump\t// in\n    tag_282:\n        /* \"#utility.yul\":6251:6324   */\n      swap4\n      pop\n        /* \"#utility.yul\":6047:6334   */\n      pop\n        /* \"#utility.yul\":6401:6403   */\n      0x20\n        /* \"#utility.yul\":6390:6399   */\n      dup5\n        /* \"#utility.yul\":6386:6404   */\n      add\n        /* \"#utility.yul\":6373:6405   */\n      calldataload\n        /* \"#utility.yul\":6432:6450   */\n      0xffffffffffffffff\n        /* \"#utility.yul\":6424:6430   */\n      dup2\n        /* \"#utility.yul\":6421:6451   */\n      gt\n        /* \"#utility.yul\":6418:6535   */\n      iszero\n      tag_283\n      jumpi\n        /* \"#utility.yul\":6454:6533   */\n      tag_284\n      tag_173\n      jump\t// in\n    tag_284:\n        /* \"#utility.yul\":6418:6535   */\n    tag_283:\n        /* \"#utility.yul\":6559:6622   */\n      tag_285\n        /* \"#utility.yul\":6614:6621   */\n      dup7\n        /* \"#utility.yul\":6605:6611   */\n      dup3\n        /* \"#utility.yul\":6594:6603   */\n      dup8\n        /* \"#utility.yul\":6590:6612   */\n      add\n        /* \"#utility.yul\":6559:6622   */\n      tag_181\n      jump\t// in\n    tag_285:\n        /* \"#utility.yul\":6549:6622   */\n      swap3\n      pop\n        /* \"#utility.yul\":6344:6632   */\n      pop\n        /* \"#utility.yul\":6699:6701   */\n      0x40\n        /* \"#utility.yul\":6688:6697   */\n      dup5\n        /* \"#utility.yul\":6684:6702   */\n      add\n        /* \"#utility.yul\":6671:6703   */\n      calldataload\n        /* \"#utility.yul\":6730:6748   */\n      0xffffffffffffffff\n        /* \"#utility.yul\":6722:6728   */\n      dup2\n        /* \"#utility.yul\":6719:6749   */\n      gt\n        /* \"#utility.yul\":6716:6833   */\n      iszero\n      tag_286\n      jumpi\n        /* \"#utility.yul\":6752:6831   */\n      tag_287\n      tag_173\n      jump\t// in\n    tag_287:\n        /* \"#utility.yul\":6716:6833   */\n    tag_286:\n        /* \"#utility.yul\":6857:6920   */\n      tag_288\n        /* \"#utility.yul\":6912:6919   */\n      dup7\n        /* \"#utility.yul\":6903:6909   */\n      dup3\n        /* \"#utility.yul\":6892:6901   */\n      dup8\n        /* \"#utility.yul\":6888:6910   */\n      add\n        /* \"#utility.yul\":6857:6920   */\n      tag_181\n      jump\t// in\n    tag_288:\n        /* \"#utility.yul\":6847:6920   */\n      swap2\n      pop\n        /* \"#utility.yul\":6642:6930   */\n      pop\n        /* \"#utility.yul\":5778:6937   */\n      swap3\n      pop\n      swap3\n      pop\n      swap3\n      jump\t// out\n        /* \"#utility.yul\":6943:7065   */\n    tag_182:\n        /* \"#utility.yul\":7016:7040   */\n      tag_290\n        /* \"#utility.yul\":7034:7039   */\n      dup2\n        /* \"#utility.yul\":7016:7040   */\n      tag_166\n      jump\t// in\n    tag_290:\n        /* \"#utility.yul\":7009:7014   */\n      dup2\n        /* \"#utility.yul\":7006:7041   */\n      eq\n        /* \"#utility.yul\":6996:7059   */\n      tag_291\n      jumpi\n        /* \"#utility.yul\":7055:7056   */\n      0x00\n        /* \"#utility.yul\":7052:7053   */\n      dup1\n        /* \"#utility.yul\":7045:7057   */\n      revert\n        /* \"#utility.yul\":6996:7059   */\n    tag_291:\n        /* \"#utility.yul\":6943:7065   */\n      pop\n      jump\t// out\n        /* \"#utility.yul\":7071:7210   */\n    tag_183:\n        /* \"#utility.yul\":7117:7122   */\n      0x00\n        /* \"#utility.yul\":7155:7161   */\n      dup2\n        /* \"#utility.yul\":7142:7162   */\n      calldataload\n        /* \"#utility.yul\":7133:7162   */\n      swap1\n      pop\n        /* \"#utility.yul\":7171:7204   */\n      tag_293\n        /* \"#utility.yul\":7198:7203   */\n      dup2\n        /* \"#utility.yul\":7171:7204   */\n      tag_182\n      jump\t// in\n    tag_293:\n        /* \"#utility.yul\":7071:7210   */\n      swap3\n      swap2\n      pop\n      pop\n      jump\t// out\n        /* \"#utility.yul\":7216:7870   */\n    tag_28:\n        /* \"#utility.yul\":7294:7300   */\n      0x00\n        /* \"#utility.yul\":7302:7308   */\n      dup1\n        /* \"#utility.yul\":7351:7353   */\n      0x40\n        /* \"#utility.yul\":7339:7348   */\n      dup4\n        /* \"#utility.yul\":7330:7337   */\n      dup6\n        /* \"#utility.yul\":7326:7349   */\n      sub\n        /* \"#utility.yul\":7322:7354   */\n      slt\n        /* \"#utility.yul\":7319:7438   */\n      iszero\n      tag_295\n      jumpi\n        /* \"#utility.yul\":7357:7436   */\n      tag_296\n      tag_172\n      jump\t// in\n    tag_296:\n        /* \"#utility.yul\":7319:7438   */\n    tag_295:\n        /* \"#utility.yul\":7477:7478   */\n      0x00\n        /* \"#utility.yul\":7502:7555   */\n      tag_297\n        /* \"#utility.yul\":7547:7554   */\n      dup6\n        /* \"#utility.yul\":7538:7544   */\n      dup3\n        /* \"#utility.yul\":7527:7536   */\n      dup7\n        /* \"#utility.yul\":7523:7545   */\n      add\n        /* \"#utility.yul\":7502:7555   */\n      tag_183\n      jump\t// in\n    tag_297:\n        /* \"#utility.yul\":7492:7555   */\n      swap3\n      pop\n        /* \"#utility.yul\":7448:7565   */\n      pop\n        /* \"#utility.yul\":7632:7634   */\n      0x20\n        /* \"#utility.yul\":7621:7630   */\n      dup4\n        /* \"#utility.yul\":7617:7635   */\n      add\n        /* \"#utility.yul\":7604:7636   */\n      calldataload\n        /* \"#utility.yul\":7663:7681   */\n      0xffffffffffffffff\n        /* \"#utility.yul\":7655:7661   */\n      dup2\n        /* \"#utility.yul\":7652:7682   */\n      gt\n        /* \"#utility.yul\":7649:7766   */\n      iszero\n      tag_298\n      jumpi\n        /* \"#utility.yul\":7685:7764   */\n      tag_299\n      tag_173\n      jump\t// in\n    tag_299:\n        /* \"#utility.yul\":7649:7766   */\n    tag_298:\n        /* \"#utility.yul\":7790:7853   */\n      tag_300\n        /* \"#utility.yul\":7845:7852   */\n      dup6\n        /* \"#utility.yul\":7836:7842   */\n      dup3\n        /* \"#utility.yul\":7825:7834   */\n      dup7\n        /* \"#utility.yul\":7821:7843   */\n      add\n        /* \"#utility.yul\":7790:7853   */\n      tag_181\n      jump\t// in\n    tag_300:\n        /* \"#utility.yul\":7780:7853   */\n      swap2\n      pop\n        /* \"#utility.yul\":7575:7863   */\n      pop\n        /* \"#utility.yul\":7216:7870   */\n      swap3\n      pop\n      swap3\n      swap1\n      pop\n      jump\t// out\n        /* \"#utility.yul\":7876:8002   */\n    tag_184:\n        /* \"#utility.yul\":7913:7920   */\n      0x00\n        /* \"#utility.yul\":7953:7995   */\n      0xffffffffffffffffffffffffffffffffffffffff\n        /* \"#utility.yul\":7946:7951   */\n      dup3\n        /* \"#utility.yul\":7942:7996   */\n      and\n        /* \"#utility.yul\":7931:7996   */\n      swap1\n      pop\n        /* \"#utility.yul\":7876:8002   */\n      swap2\n      swap1\n      pop\n      jump\t// out\n        /* \"#utility.yul\":8008:8104   */\n    tag_185:\n        /* \"#utility.yul\":8045:8052   */\n      0x00\n        /* \"#utility.yul\":8074:8098   */\n      tag_303\n        /* \"#utility.yul\":8092:8097   */\n      dup3\n        /* \"#utility.yul\":8074:8098   */\n      tag_184\n      jump\t// in\n    tag_303:\n        /* \"#utility.yul\":8063:8098   */\n      swap1\n      pop\n        /* \"#utility.yul\":8008:8104   */\n      swap2\n      swap1\n      pop\n      jump\t// out\n        /* \"#utility.yul\":8110:8228   */\n    tag_186:\n        /* \"#utility.yul\":8197:8221   */\n      tag_305\n        /* \"#utility.yul\":8215:8220   */\n      dup2\n        /* \"#utility.yul\":8197:8221   */\n      tag_185\n      jump\t// in\n    tag_305:\n        /* \"#utility.yul\":8192:8195   */\n      dup3\n        /* \"#utility.yul\":8185:8222   */\n      mstore\n        /* \"#utility.yul\":8110:8228   */\n      pop\n      pop\n      jump\t// out\n        /* \"#utility.yul\":8234:8456   */\n    tag_33:\n        /* \"#utility.yul\":8327:8331   */\n      0x00\n        /* \"#utility.yul\":8365:8367   */\n      0x20\n        /* \"#utility.yul\":8354:8363   */\n      dup3\n        /* \"#utility.yul\":8350:8368   */\n      add\n        /* \"#utility.yul\":8342:8368   */\n      swap1\n      pop\n        /* \"#utility.yul\":8378:8449   */\n      tag_307\n        /* \"#utility.yul\":8446:8447   */\n      0x00\n        /* \"#utility.yul\":8435:8444   */\n      dup4\n        /* \"#utility.yul\":8431:8448   */\n      add\n        /* \"#utility.yul\":8422:8428   */\n      dup5\n        /* \"#utility.yul\":8378:8449   */\n      tag_186\n      jump\t// in\n    tag_307:\n        /* \"#utility.yul\":8234:8456   */\n      swap3\n      swap2\n      pop\n      pop\n      jump\t// out\n        /* \"#utility.yul\":8462:8580   */\n    tag_187:\n        /* \"#utility.yul\":8549:8573   */\n      tag_309\n        /* \"#utility.yul\":8567:8572   */\n      dup2\n        /* \"#utility.yul\":8549:8573   */\n      tag_166\n      jump\t// in\n    tag_309:\n        /* \"#utility.yul\":8544:8547   */\n      dup3\n        /* \"#utility.yul\":8537:8574   */\n      mstore\n        /* \"#utility.yul\":8462:8580   */\n      pop\n      pop\n      jump\t// out\n        /* \"#utility.yul\":8586:8808   */\n    tag_37:\n        /* \"#utility.yul\":8679:8683   */\n      0x00\n        /* \"#utility.yul\":8717:8719   */\n      0x20\n        /* \"#utility.yul\":8706:8715   */\n      dup3\n        /* \"#utility.yul\":8702:8720   */\n      add\n        /* \"#utility.yul\":8694:8720   */\n      swap1\n      pop\n        /* \"#utility.yul\":8730:8801   */\n      tag_311\n        /* \"#utility.yul\":8798:8799   */\n      0x00\n        /* \"#utility.yul\":8787:8796   */\n      dup4\n        /* \"#utility.yul\":8783:8800   */\n      add\n        /* \"#utility.yul\":8774:8780   */\n      dup5\n        /* \"#utility.yul\":8730:8801   */\n      tag_187\n      jump\t// in\n    tag_311:\n        /* \"#utility.yul\":8586:8808   */\n      swap3\n      swap2\n      pop\n      pop\n      jump\t// out\n        /* \"#utility.yul\":8814:9143   */\n    tag_40:\n        /* \"#utility.yul\":8873:8879   */\n      0x00\n        /* \"#utility.yul\":8922:8924   */\n      0x20\n        /* \"#utility.yul\":8910:8919   */\n      dup3\n        /* \"#utility.yul\":8901:8908   */\n      dup5\n        /* \"#utility.yul\":8897:8920   */\n      sub\n        /* \"#utility.yul\":8893:8925   */\n      slt\n        /* \"#utility.yul\":8890:9009   */\n      iszero\n      tag_313\n      jumpi\n        /* \"#utility.yul\":8928:9007   */\n      tag_314\n      tag_172\n      jump\t// in\n    tag_314:\n        /* \"#utility.yul\":8890:9009   */\n    tag_313:\n        /* \"#utility.yul\":9048:9049   */\n      0x00\n        /* \"#utility.yul\":9073:9126   */\n      tag_315\n        /* \"#utility.yul\":9118:9125   */\n      dup5\n        /* \"#utility.yul\":9109:9115   */\n      dup3\n        /* \"#utility.yul\":9098:9107   */\n      dup6\n        /* \"#utility.yul\":9094:9116   */\n      add\n        /* \"#utility.yul\":9073:9126   */\n      tag_183\n      jump\t// in\n    tag_315:\n        /* \"#utility.yul\":9063:9126   */\n      swap2\n      pop\n        /* \"#utility.yul\":9019:9136   */\n      pop\n        /* \"#utility.yul\":8814:9143   */\n      swap3\n      swap2\n      pop\n      pop\n      jump\t// out\n        /* \"#utility.yul\":9149:9239   */\n    tag_188:\n        /* \"#utility.yul\":9183:9190   */\n      0x00\n        /* \"#utility.yul\":9226:9231   */\n      dup2\n        /* \"#utility.yul\":9219:9232   */\n      iszero\n        /* \"#utility.yul\":9212:9233   */\n      iszero\n        /* \"#utility.yul\":9201:9233   */\n      swap1\n      pop\n        /* \"#utility.yul\":9149:9239   */\n      swap2\n      swap1\n      pop\n      jump\t// out\n        /* \"#utility.yul\":9245:9354   */\n    tag_189:\n        /* \"#utility.yul\":9326:9347   */\n      tag_318\n        /* \"#utility.yul\":9341:9346   */\n      dup2\n        /* \"#utility.yul\":9326:9347   */\n      tag_188\n      jump\t// in\n    tag_318:\n        /* \"#utility.yul\":9321:9324   */\n      dup3\n        /* \"#utility.yul\":9314:9348   */\n      mstore\n        /* \"#utility.yul\":9245:9354   */\n      pop\n      pop\n      jump\t// out\n        /* \"#utility.yul\":9360:10507   */\n    tag_43:\n        /* \"#utility.yul\":9675:9679   */\n      0x00\n        /* \"#utility.yul\":9713:9716   */\n      0xe0\n        /* \"#utility.yul\":9702:9711   */\n      dup3\n        /* \"#utility.yul\":9698:9717   */\n      add\n        /* \"#utility.yul\":9690:9717   */\n      swap1\n      pop\n        /* \"#utility.yul\":9727:9798   */\n      tag_320\n        /* \"#utility.yul\":9795:9796   */\n      0x00\n        /* \"#utility.yul\":9784:9793   */\n      dup4\n        /* \"#utility.yul\":9780:9797   */\n      add\n        /* \"#utility.yul\":9771:9777   */\n      dup11\n        /* \"#utility.yul\":9727:9798   */\n      tag_187\n      jump\t// in\n    tag_320:\n        /* \"#utility.yul\":9845:9854   */\n      dup2\n        /* \"#utility.yul\":9839:9843   */\n      dup2\n        /* \"#utility.yul\":9835:9855   */\n      sub\n        /* \"#utility.yul\":9830:9832   */\n      0x20\n        /* \"#utility.yul\":9819:9828   */\n      dup4\n        /* \"#utility.yul\":9815:9833   */\n      add\n        /* \"#utility.yul\":9808:9856   */\n      mstore\n        /* \"#utility.yul\":9873:9951   */\n      tag_321\n        /* \"#utility.yul\":9946:9950   */\n      dup2\n        /* \"#utility.yul\":9937:9943   */\n      dup10\n        /* \"#utility.yul\":9873:9951   */\n      tag_162\n      jump\t// in\n    tag_321:\n        /* \"#utility.yul\":9865:9951   */\n      swap1\n      pop\n        /* \"#utility.yul\":9961:10033   */\n      tag_322\n        /* \"#utility.yul\":10029:10031   */\n      0x40\n        /* \"#utility.yul\":10018:10027   */\n      dup4\n        /* \"#utility.yul\":10014:10032   */\n      add\n        /* \"#utility.yul\":10005:10011   */\n      dup9\n        /* \"#utility.yul\":9961:10033   */\n      tag_186\n      jump\t// in\n    tag_322:\n        /* \"#utility.yul\":10080:10089   */\n      dup2\n        /* \"#utility.yul\":10074:10078   */\n      dup2\n        /* \"#utility.yul\":10070:10090   */\n      sub\n        /* \"#utility.yul\":10065:10067   */\n      0x60\n        /* \"#utility.yul\":10054:10063   */\n      dup4\n        /* \"#utility.yul\":10050:10068   */\n      add\n        /* \"#utility.yul\":10043:10091   */\n      mstore\n        /* \"#utility.yul\":10108:10186   */\n      tag_323\n        /* \"#utility.yul\":10181:10185   */\n      dup2\n        /* \"#utility.yul\":10172:10178   */\n      dup8\n        /* \"#utility.yul\":10108:10186   */\n      tag_162\n      jump\t// in\n    tag_323:\n        /* \"#utility.yul\":10100:10186   */\n      swap1\n      pop\n        /* \"#utility.yul\":10234:10243   */\n      dup2\n        /* \"#utility.yul\":10228:10232   */\n      dup2\n        /* \"#utility.yul\":10224:10244   */\n      sub\n        /* \"#utility.yul\":10218:10221   */\n      0x80\n        /* \"#utility.yul\":10207:10216   */\n      dup4\n        /* \"#utility.yul\":10203:10222   */\n      add\n        /* \"#utility.yul\":10196:10245   */\n      mstore\n        /* \"#utility.yul\":10262:10340   */\n      tag_324\n        /* \"#utility.yul\":10335:10339   */\n      dup2\n        /* \"#utility.yul\":10326:10332   */\n      dup7\n        /* \"#utility.yul\":10262:10340   */\n      tag_162\n      jump\t// in\n    tag_324:\n        /* \"#utility.yul\":10254:10340   */\n      swap1\n      pop\n        /* \"#utility.yul\":10350:10417   */\n      tag_325\n        /* \"#utility.yul\":10412:10415   */\n      0xa0\n        /* \"#utility.yul\":10401:10410   */\n      dup4\n        /* \"#utility.yul\":10397:10416   */\n      add\n        /* \"#utility.yul\":10388:10394   */\n      dup6\n        /* \"#utility.yul\":10350:10417   */\n      tag_189\n      jump\t// in\n    tag_325:\n        /* \"#utility.yul\":10427:10500   */\n      tag_326\n        /* \"#utility.yul\":10495:10498   */\n      0xc0\n        /* \"#utility.yul\":10484:10493   */\n      dup4\n        /* \"#utility.yul\":10480:10499   */\n      add\n        /* \"#utility.yul\":10471:10477   */\n      dup5\n        /* \"#utility.yul\":10427:10500   */\n      tag_187\n      jump\t// in\n    tag_326:\n        /* \"#utility.yul\":9360:10507   */\n      swap9\n      swap8\n      pop\n      pop\n      pop\n      pop\n      pop\n      pop\n      pop\n      pop\n      jump\t// out\n        /* \"#utility.yul\":10513:10637   */\n    tag_190:\n        /* \"#utility.yul\":10590:10596   */\n      0x00\n        /* \"#utility.yul\":10624:10629   */\n      dup2\n        /* \"#utility.yul\":10618:10630   */\n      mload\n        /* \"#utility.yul\":10608:10630   */\n      swap1\n      pop\n        /* \"#utility.yul\":10513:10637   */\n      swap2\n      swap1\n      pop\n      jump\t// out\n        /* \"#utility.yul\":10643:10837   */\n    tag_191:\n        /* \"#utility.yul\":10752:10763   */\n      0x00\n        /* \"#utility.yul\":10786:10792   */\n      dup3\n        /* \"#utility.yul\":10781:10784   */\n      dup3\n        /* \"#utility.yul\":10774:10793   */\n      mstore\n        /* \"#utility.yul\":10826:10830   */\n      0x20\n        /* \"#utility.yul\":10821:10824   */\n      dup3\n        /* \"#utility.yul\":10817:10831   */\n      add\n        /* \"#utility.yul\":10802:10831   */\n      swap1\n      pop\n        /* \"#utility.yul\":10643:10837   */\n      swap3\n      swap2\n      pop\n      pop\n      jump\t// out\n        /* \"#utility.yul\":10843:10985   */\n    tag_192:\n        /* \"#utility.yul\":10920:10924   */\n      0x00\n        /* \"#utility.yul\":10943:10946   */\n      dup2\n        /* \"#utility.yul\":10935:10946   */\n      swap1\n      pop\n        /* \"#utility.yul\":10973:10977   */\n      0x20\n        /* \"#utility.yul\":10968:10971   */\n      dup3\n        /* \"#utility.yul\":10964:10978   */\n      add\n        /* \"#utility.yul\":10956:10978   */\n      swap1\n      pop\n        /* \"#utility.yul\":10843:10985   */\n      swap2\n      swap1\n      pop\n      jump\t// out\n        /* \"#utility.yul\":10991:11150   */\n    tag_193:\n        /* \"#utility.yul\":11065:11076   */\n      0x00\n        /* \"#utility.yul\":11099:11105   */\n      dup3\n        /* \"#utility.yul\":11094:11097   */\n      dup3\n        /* \"#utility.yul\":11087:11106   */\n      mstore\n        /* \"#utility.yul\":11139:11143   */\n      0x20\n        /* \"#utility.yul\":11134:11137   */\n      dup3\n        /* \"#utility.yul\":11130:11144   */\n      add\n        /* \"#utility.yul\":11115:11144   */\n      swap1\n      pop\n        /* \"#utility.yul\":10991:11150   */\n      swap3\n      swap2\n      pop\n      pop\n      jump\t// out\n        /* \"#utility.yul\":11156:11513   */\n    tag_194:\n        /* \"#utility.yul\":11234:11237   */\n      0x00\n        /* \"#utility.yul\":11262:11301   */\n      tag_332\n        /* \"#utility.yul\":11295:11300   */\n      dup3\n        /* \"#utility.yul\":11262:11301   */\n      tag_158\n      jump\t// in\n    tag_332:\n        /* \"#utility.yul\":11317:11378   */\n      tag_333\n        /* \"#utility.yul\":11371:11377   */\n      dup2\n        /* \"#utility.yul\":11366:11369   */\n      dup6\n        /* \"#utility.yul\":11317:11378   */\n      tag_193\n      jump\t// in\n    tag_333:\n        /* \"#utility.yul\":11310:11378   */\n      swap4\n      pop\n        /* \"#utility.yul\":11387:11452   */\n      tag_334\n        /* \"#utility.yul\":11445:11451   */\n      dup2\n        /* \"#utility.yul\":11440:11443   */\n      dup6\n        /* \"#utility.yul\":11433:11437   */\n      0x20\n        /* \"#utility.yul\":11426:11431   */\n      dup7\n        /* \"#utility.yul\":11422:11438   */\n      add\n        /* \"#utility.yul\":11387:11452   */\n      tag_160\n      jump\t// in\n    tag_334:\n        /* \"#utility.yul\":11477:11506   */\n      tag_335\n        /* \"#utility.yul\":11499:11505   */\n      dup2\n        /* \"#utility.yul\":11477:11506   */\n      tag_161\n      jump\t// in\n    tag_335:\n        /* \"#utility.yul\":11472:11475   */\n      dup5\n        /* \"#utility.yul\":11468:11507   */\n      add\n        /* \"#utility.yul\":11461:11507   */\n      swap2\n      pop\n        /* \"#utility.yul\":11238:11513   */\n      pop\n        /* \"#utility.yul\":11156:11513   */\n      swap3\n      swap2\n      pop\n      pop\n      jump\t// out\n        /* \"#utility.yul\":11519:11715   */\n    tag_195:\n        /* \"#utility.yul\":11608:11618   */\n      0x00\n        /* \"#utility.yul\":11643:11709   */\n      tag_337\n        /* \"#utility.yul\":11705:11708   */\n      dup4\n        /* \"#utility.yul\":11697:11703   */\n      dup4\n        /* \"#utility.yul\":11643:11709   */\n      tag_194\n      jump\t// in\n    tag_337:\n        /* \"#utility.yul\":11629:11709   */\n      swap1\n      pop\n        /* \"#utility.yul\":11519:11715   */\n      swap3\n      swap2\n      pop\n      pop\n      jump\t// out\n        /* \"#utility.yul\":11721:11844   */\n    tag_196:\n        /* \"#utility.yul\":11801:11805   */\n      0x00\n        /* \"#utility.yul\":11833:11837   */\n      0x20\n        /* \"#utility.yul\":11828:11831   */\n      dup3\n        /* \"#utility.yul\":11824:11838   */\n      add\n        /* \"#utility.yul\":11816:11838   */\n      swap1\n      pop\n        /* \"#utility.yul\":11721:11844   */\n      swap2\n      swap1\n      pop\n      jump\t// out\n        /* \"#utility.yul\":11878:12869   */\n    tag_197:\n        /* \"#utility.yul\":12017:12020   */\n      0x00\n        /* \"#utility.yul\":12046:12110   */\n      tag_340\n        /* \"#utility.yul\":12104:12109   */\n      dup3\n        /* \"#utility.yul\":12046:12110   */\n      tag_190\n      jump\t// in\n    tag_340:\n        /* \"#utility.yul\":12126:12222   */\n      tag_341\n        /* \"#utility.yul\":12215:12221   */\n      dup2\n        /* \"#utility.yul\":12210:12213   */\n      dup6\n        /* \"#utility.yul\":12126:12222   */\n      tag_191\n      jump\t// in\n    tag_341:\n        /* \"#utility.yul\":12119:12222   */\n      swap4\n      pop\n        /* \"#utility.yul\":12248:12251   */\n      dup4\n        /* \"#utility.yul\":12293:12297   */\n      0x20\n        /* \"#utility.yul\":12285:12291   */\n      dup3\n        /* \"#utility.yul\":12281:12298   */\n      mul\n        /* \"#utility.yul\":12276:12279   */\n      dup6\n        /* \"#utility.yul\":12272:12299   */\n      add\n        /* \"#utility.yul\":12323:12389   */\n      tag_342\n        /* \"#utility.yul\":12383:12388   */\n      dup6\n        /* \"#utility.yul\":12323:12389   */\n      tag_192\n      jump\t// in\n    tag_342:\n        /* \"#utility.yul\":12412:12419   */\n      dup1\n        /* \"#utility.yul\":12443:12444   */\n      0x00\n        /* \"#utility.yul\":12428:12824   */\n    tag_343:\n        /* \"#utility.yul\":12453:12459   */\n      dup6\n        /* \"#utility.yul\":12450:12451   */\n      dup2\n        /* \"#utility.yul\":12447:12460   */\n      lt\n        /* \"#utility.yul\":12428:12824   */\n      iszero\n      tag_345\n      jumpi\n        /* \"#utility.yul\":12524:12533   */\n      dup5\n        /* \"#utility.yul\":12518:12522   */\n      dup5\n        /* \"#utility.yul\":12514:12534   */\n      sub\n        /* \"#utility.yul\":12509:12512   */\n      dup10\n        /* \"#utility.yul\":12502:12535   */\n      mstore\n        /* \"#utility.yul\":12575:12581   */\n      dup2\n        /* \"#utility.yul\":12569:12582   */\n      mload\n        /* \"#utility.yul\":12603:12687   */\n      tag_346\n        /* \"#utility.yul\":12682:12686   */\n      dup6\n        /* \"#utility.yul\":12667:12680   */\n      dup3\n        /* \"#utility.yul\":12603:12687   */\n      tag_195\n      jump\t// in\n    tag_346:\n        /* \"#utility.yul\":12595:12687   */\n      swap5\n      pop\n        /* \"#utility.yul\":12710:12780   */\n      tag_347\n        /* \"#utility.yul\":12773:12779   */\n      dup4\n        /* \"#utility.yul\":12710:12780   */\n      tag_196\n      jump\t// in\n    tag_347:\n        /* \"#utility.yul\":12700:12780   */\n      swap3\n      pop\n        /* \"#utility.yul\":12809:12813   */\n      0x20\n        /* \"#utility.yul\":12804:12807   */\n      dup11\n        /* \"#utility.yul\":12800:12814   */\n      add\n        /* \"#utility.yul\":12793:12814   */\n      swap10\n      pop\n        /* \"#utility.yul\":12488:12824   */\n      pop\n        /* \"#utility.yul\":12475:12476   */\n      0x01\n        /* \"#utility.yul\":12472:12473   */\n      dup2\n        /* \"#utility.yul\":12468:12477   */\n      add\n        /* \"#utility.yul\":12463:12477   */\n      swap1\n      pop\n        /* \"#utility.yul\":12428:12824   */\n      jump(tag_343)\n    tag_345:\n        /* \"#utility.yul\":12432:12446   */\n      pop\n        /* \"#utility.yul\":12840:12844   */\n      dup3\n        /* \"#utility.yul\":12833:12844   */\n      swap8\n      pop\n        /* \"#utility.yul\":12860:12863   */\n      dup8\n        /* \"#utility.yul\":12853:12863   */\n      swap6\n      pop\n        /* \"#utility.yul\":12022:12869   */\n      pop\n      pop\n      pop\n      pop\n      pop\n        /* \"#utility.yul\":11878:12869   */\n      swap3\n      swap2\n      pop\n      pop\n      jump\t// out\n        /* \"#utility.yul\":12875:13549   */\n    tag_52:\n        /* \"#utility.yul\":13116:13120   */\n      0x00\n        /* \"#utility.yul\":13154:13156   */\n      0x40\n        /* \"#utility.yul\":13143:13152   */\n      dup3\n        /* \"#utility.yul\":13139:13157   */\n      add\n        /* \"#utility.yul\":13131:13157   */\n      swap1\n      pop\n        /* \"#utility.yul\":13203:13212   */\n      dup2\n        /* \"#utility.yul\":13197:13201   */\n      dup2\n        /* \"#utility.yul\":13193:13213   */\n      sub\n        /* \"#utility.yul\":13189:13190   */\n      0x00\n        /* \"#utility.yul\":13178:13187   */\n      dup4\n        /* \"#utility.yul\":13174:13191   */\n      add\n        /* \"#utility.yul\":13167:13214   */\n      mstore\n        /* \"#utility.yul\":13231:13359   */\n      tag_349\n        /* \"#utility.yul\":13354:13358   */\n      dup2\n        /* \"#utility.yul\":13345:13351   */\n      dup6\n        /* \"#utility.yul\":13231:13359   */\n      tag_197\n      jump\t// in\n    tag_349:\n        /* \"#utility.yul\":13223:13359   */\n      swap1\n      pop\n        /* \"#utility.yul\":13406:13415   */\n      dup2\n        /* \"#utility.yul\":13400:13404   */\n      dup2\n        /* \"#utility.yul\":13396:13416   */\n      sub\n        /* \"#utility.yul\":13391:13393   */\n      0x20\n        /* \"#utility.yul\":13380:13389   */\n      dup4\n        /* \"#utility.yul\":13376:13394   */\n      add\n        /* \"#utility.yul\":13369:13417   */\n      mstore\n        /* \"#utility.yul\":13434:13542   */\n      tag_350\n        /* \"#utility.yul\":13537:13541   */\n      dup2\n        /* \"#utility.yul\":13528:13534   */\n      dup5\n        /* \"#utility.yul\":13434:13542   */\n      tag_170\n      jump\t// in\n    tag_350:\n        /* \"#utility.yul\":13426:13542   */\n      swap1\n      pop\n        /* \"#utility.yul\":12875:13549   */\n      swap4\n      swap3\n      pop\n      pop\n      pop\n      jump\t// out\n        /* \"#utility.yul\":13555:14029   */\n    tag_55:\n        /* \"#utility.yul\":13623:13629   */\n      0x00\n        /* \"#utility.yul\":13631:13637   */\n      dup1\n        /* \"#utility.yul\":13680:13682   */\n      0x40\n        /* \"#utility.yul\":13668:13677   */\n      dup4\n        /* \"#utility.yul\":13659:13666   */\n      dup6\n        /* \"#utility.yul\":13655:13678   */\n      sub\n        /* \"#utility.yul\":13651:13683   */\n      slt\n        /* \"#utility.yul\":13648:13767   */\n      iszero\n      tag_352\n      jumpi\n        /* \"#utility.yul\":13686:13765   */\n      tag_353\n      tag_172\n      jump\t// in\n    tag_353:\n        /* \"#utility.yul\":13648:13767   */\n    tag_352:\n        /* \"#utility.yul\":13806:13807   */\n      0x00\n        /* \"#utility.yul\":13831:13884   */\n      tag_354\n        /* \"#utility.yul\":13876:13883   */\n      dup6\n        /* \"#utility.yul\":13867:13873   */\n      dup3\n        /* \"#utility.yul\":13856:13865   */\n      dup7\n        /* \"#utility.yul\":13852:13874   */\n      add\n        /* \"#utility.yul\":13831:13884   */\n      tag_183\n      jump\t// in\n    tag_354:\n        /* \"#utility.yul\":13821:13884   */\n      swap3\n      pop\n        /* \"#utility.yul\":13777:13894   */\n      pop\n        /* \"#utility.yul\":13933:13935   */\n      0x20\n        /* \"#utility.yul\":13959:14012   */\n      tag_355\n        /* \"#utility.yul\":14004:14011   */\n      dup6\n        /* \"#utility.yul\":13995:14001   */\n      dup3\n        /* \"#utility.yul\":13984:13993   */\n      dup7\n        /* \"#utility.yul\":13980:14002   */\n      add\n        /* \"#utility.yul\":13959:14012   */\n      tag_183\n      jump\t// in\n    tag_355:\n        /* \"#utility.yul\":13949:14012   */\n      swap2\n      pop\n        /* \"#utility.yul\":13904:14022   */\n      pop\n        /* \"#utility.yul\":13555:14029   */\n      swap3\n      pop\n      swap3\n      swap1\n      pop\n      jump\t// out\n        /* \"#utility.yul\":14035:14458   */\n    tag_58:\n        /* \"#utility.yul\":14176:14180   */\n      0x00\n        /* \"#utility.yul\":14214:14216   */\n      0x40\n        /* \"#utility.yul\":14203:14212   */\n      dup3\n        /* \"#utility.yul\":14199:14217   */\n      add\n        /* \"#utility.yul\":14191:14217   */\n      swap1\n      pop\n        /* \"#utility.yul\":14263:14272   */\n      dup2\n        /* \"#utility.yul\":14257:14261   */\n      dup2\n        /* \"#utility.yul\":14253:14273   */\n      sub\n        /* \"#utility.yul\":14249:14250   */\n      0x00\n        /* \"#utility.yul\":14238:14247   */\n      dup4\n        /* \"#utility.yul\":14234:14251   */\n      add\n        /* \"#utility.yul\":14227:14274   */\n      mstore\n        /* \"#utility.yul\":14291:14369   */\n      tag_357\n        /* \"#utility.yul\":14364:14368   */\n      dup2\n        /* \"#utility.yul\":14355:14361   */\n      dup6\n        /* \"#utility.yul\":14291:14369   */\n      tag_162\n      jump\t// in\n    tag_357:\n        /* \"#utility.yul\":14283:14369   */\n      swap1\n      pop\n        /* \"#utility.yul\":14379:14451   */\n      tag_358\n        /* \"#utility.yul\":14447:14449   */\n      0x20\n        /* \"#utility.yul\":14436:14445   */\n      dup4\n        /* \"#utility.yul\":14432:14450   */\n      add\n        /* \"#utility.yul\":14423:14429   */\n      dup5\n        /* \"#utility.yul\":14379:14451   */\n      tag_187\n      jump\t// in\n    tag_358:\n        /* \"#utility.yul\":14035:14458   */\n      swap4\n      swap3\n      pop\n      pop\n      pop\n      jump\t// out\n        /* \"#utility.yul\":14464:14644   */\n    tag_198:\n        /* \"#utility.yul\":14512:14589   */\n      0x4e487b7100000000000000000000000000000000000000000000000000000000\n        /* \"#utility.yul\":14509:14510   */\n      0x00\n        /* \"#utility.yul\":14502:14590   */\n      mstore\n        /* \"#utility.yul\":14609:14613   */\n      0x22\n        /* \"#utility.yul\":14606:14607   */\n      0x04\n        /* \"#utility.yul\":14599:14614   */\n      mstore\n        /* \"#utility.yul\":14633:14637   */\n      0x24\n        /* \"#utility.yul\":14630:14631   */\n      0x00\n        /* \"#utility.yul\":14623:14638   */\n      revert\n        /* \"#utility.yul\":14650:14970   */\n    tag_60:\n        /* \"#utility.yul\":14694:14700   */\n      0x00\n        /* \"#utility.yul\":14731:14732   */\n      0x02\n        /* \"#utility.yul\":14725:14729   */\n      dup3\n        /* \"#utility.yul\":14721:14733   */\n      div\n        /* \"#utility.yul\":14711:14733   */\n      swap1\n      pop\n        /* \"#utility.yul\":14778:14779   */\n      0x01\n        /* \"#utility.yul\":14772:14776   */\n      dup3\n        /* \"#utility.yul\":14768:14780   */\n      and\n        /* \"#utility.yul\":14799:14817   */\n      dup1\n        /* \"#utility.yul\":14789:14870   */\n      tag_361\n      jumpi\n        /* \"#utility.yul\":14855:14859   */\n      0x7f\n        /* \"#utility.yul\":14847:14853   */\n      dup3\n        /* \"#utility.yul\":14843:14860   */\n      and\n        /* \"#utility.yul\":14833:14860   */\n      swap2\n      pop\n        /* \"#utility.yul\":14789:14870   */\n    tag_361:\n        /* \"#utility.yul\":14917:14919   */\n      0x20\n        /* \"#utility.yul\":14909:14915   */\n      dup3\n        /* \"#utility.yul\":14906:14920   */\n      lt\n        /* \"#utility.yul\":14886:14904   */\n      dup2\n        /* \"#utility.yul\":14883:14921   */\n      sub\n        /* \"#utility.yul\":14880:14964   */\n      tag_362\n      jumpi\n        /* \"#utility.yul\":14936:14954   */\n      tag_363\n      tag_198\n      jump\t// in\n    tag_363:\n        /* \"#utility.yul\":14880:14964   */\n    tag_362:\n        /* \"#utility.yul\":14701:14970   */\n      pop\n        /* \"#utility.yul\":14650:14970   */\n      swap2\n      swap1\n      pop\n      jump\t// out\n        /* \"#utility.yul\":14976:15156   */\n    tag_75:\n        /* \"#utility.yul\":15024:15101   */\n      0x4e487b7100000000000000000000000000000000000000000000000000000000\n        /* \"#utility.yul\":15021:15022   */\n      0x00\n        /* \"#utility.yul\":15014:15102   */\n      mstore\n        /* \"#utility.yul\":15121:15125   */\n      0x32\n        /* \"#utility.yul\":15118:15119   */\n      0x04\n        /* \"#utility.yul\":15111:15126   */\n      mstore\n        /* \"#utility.yul\":15145:15149   */\n      0x24\n        /* \"#utility.yul\":15142:15143   */\n      0x00\n        /* \"#utility.yul\":15135:15150   */\n      revert\n        /* \"#utility.yul\":15162:15342   */\n    tag_199:\n        /* \"#utility.yul\":15210:15287   */\n      0x4e487b7100000000000000000000000000000000000000000000000000000000\n        /* \"#utility.yul\":15207:15208   */\n      0x00\n        /* \"#utility.yul\":15200:15288   */\n      mstore\n        /* \"#utility.yul\":15307:15311   */\n      0x11\n        /* \"#utility.yul\":15304:15305   */\n      0x04\n        /* \"#utility.yul\":15297:15312   */\n      mstore\n        /* \"#utility.yul\":15331:15335   */\n      0x24\n        /* \"#utility.yul\":15328:15329   */\n      0x00\n        /* \"#utility.yul\":15321:15336   */\n      revert\n        /* \"#utility.yul\":15348:15581   */\n    tag_77:\n        /* \"#utility.yul\":15387:15390   */\n      0x00\n        /* \"#utility.yul\":15410:15434   */\n      tag_367\n        /* \"#utility.yul\":15428:15433   */\n      dup3\n        /* \"#utility.yul\":15410:15434   */\n      tag_166\n      jump\t// in\n    tag_367:\n        /* \"#utility.yul\":15401:15434   */\n      swap2\n      pop\n        /* \"#utility.yul\":15456:15522   */\n      0xffffffffffffffffffffffffffffffffffffffffffffffffffffffffffffffff\n        /* \"#utility.yul\":15449:15454   */\n      dup3\n        /* \"#utility.yul\":15446:15523   */\n      sub\n        /* \"#utility.yul\":15443:15546   */\n      tag_368\n      jumpi\n        /* \"#utility.yul\":15526:15544   */\n      tag_369\n      tag_199\n      jump\t// in\n    tag_369:\n        /* \"#utility.yul\":15443:15546   */\n    tag_368:\n        /* \"#utility.yul\":15573:15574   */\n      0x01\n        /* \"#utility.yul\":15566:15571   */\n      dup3\n        /* \"#utility.yul\":15562:15575   */\n      add\n        /* \"#utility.yul\":15555:15575   */\n      swap1\n      pop\n        /* \"#utility.yul\":15348:15581   */\n      swap2\n      swap1\n      pop\n      jump\t// out\n        /* \"#utility.yul\":15587:15728   */\n    tag_200:\n        /* \"#utility.yul\":15636:15640   */\n      0x00\n        /* \"#utility.yul\":15659:15662   */\n      dup2\n        /* \"#utility.yul\":15651:15662   */\n      swap1\n      pop\n        /* \"#utility.yul\":15682:15685   */\n      dup2\n        /* \"#utility.yul\":15679:15680   */\n      0x00\n        /* \"#utility.yul\":15672:15686   */\n      mstore\n        /* \"#utility.yul\":15716:15720   */\n      0x20\n        /* \"#utility.yul\":15713:15714   */\n      0x00\n        /* \"#utility.yul\":15703:15721   */\n      keccak256\n        /* \"#utility.yul\":15695:15721   */\n      swap1\n      pop\n        /* \"#utility.yul\":15587:15728   */\n      swap2\n      swap1\n      pop\n      jump\t// out\n        /* \"#utility.yul\":15734:15827   */\n    tag_201:\n        /* \"#utility.yul\":15771:15777   */\n      0x00\n        /* \"#utility.yul\":15818:15820   */\n      0x20\n        /* \"#utility.yul\":15813:15815   */\n      0x1f\n        /* \"#utility.yul\":15806:15811   */\n      dup4\n        /* \"#utility.yul\":15802:15816   */\n      add\n        /* \"#utility.yul\":15798:15821   */\n      div\n        /* \"#utility.yul\":15788:15821   */\n      swap1\n      pop\n        /* \"#utility.yul\":15734:15827   */\n      swap2\n      swap1\n      pop\n      jump\t// out\n        /* \"#utility.yul\":15833:15940   */\n    tag_202:\n        /* \"#utility.yul\":15877:15885   */\n      0x00\n        /* \"#utility.yul\":15927:15932   */\n      dup3\n        /* \"#utility.yul\":15921:15925   */\n      dup3\n        /* \"#utility.yul\":15917:15933   */\n      shl\n        /* \"#utility.yul\":15896:15933   */\n      swap1\n      pop\n        /* \"#utility.yul\":15833:15940   */\n      swap3\n      swap2\n      pop\n      pop\n      jump\t// out\n        /* \"#utility.yul\":15946:16339   */\n    tag_203:\n        /* \"#utility.yul\":16015:16021   */\n      0x00\n        /* \"#utility.yul\":16065:16066   */\n      0x08\n        /* \"#utility.yul\":16053:16063   */\n      dup4\n        /* \"#utility.yul\":16049:16067   */\n      mul\n        /* \"#utility.yul\":16088:16185   */\n      tag_374\n        /* \"#utility.yul\":16118:16184   */\n      0xffffffffffffffffffffffffffffffffffffffffffffffffffffffffffffffff\n        /* \"#utility.yul\":16107:16116   */\n      dup3\n        /* \"#utility.yul\":16088:16185   */\n      tag_202\n      jump\t// in\n    tag_374:\n        /* \"#utility.yul\":16206:16245   */\n      tag_375\n        /* \"#utility.yul\":16236:16244   */\n      dup7\n        /* \"#utility.yul\":16225:16234   */\n      dup4\n        /* \"#utility.yul\":16206:16245   */\n      tag_202\n      jump\t// in\n    tag_375:\n        /* \"#utility.yul\":16194:16245   */\n      swap6\n      pop\n        /* \"#utility.yul\":16278:16282   */\n      dup1\n        /* \"#utility.yul\":16274:16283   */\n      not\n        /* \"#utility.yul\":16267:16272   */\n      dup5\n        /* \"#utility.yul\":16263:16284   */\n      and\n        /* \"#utility.yul\":16254:16284   */\n      swap4\n      pop\n        /* \"#utility.yul\":16327:16331   */\n      dup1\n        /* \"#utility.yul\":16317:16325   */\n      dup7\n        /* \"#utility.yul\":16313:16332   */\n      and\n        /* \"#utility.yul\":16306:16311   */\n      dup5\n        /* \"#utility.yul\":16303:16333   */\n      or\n        /* \"#utility.yul\":16293:16333   */\n      swap3\n      pop\n        /* \"#utility.yul\":16022:16339   */\n      pop\n      pop\n        /* \"#utility.yul\":15946:16339   */\n      swap4\n      swap3\n      pop\n      pop\n      pop\n      jump\t// out\n        /* \"#utility.yul\":16345:16405   */\n    tag_204:\n        /* \"#utility.yul\":16373:16376   */\n      0x00\n        /* \"#utility.yul\":16394:16399   */\n      dup2\n        /* \"#utility.yul\":16387:16399   */\n      swap1\n      pop\n        /* \"#utility.yul\":16345:16405   */\n      swap2\n      swap1\n      pop\n      jump\t// out\n        /* \"#utility.yul\":16411:16553   */\n    tag_205:\n        /* \"#utility.yul\":16461:16470   */\n      0x00\n        /* \"#utility.yul\":16494:16547   */\n      tag_378\n        /* \"#utility.yul\":16512:16546   */\n      tag_379\n        /* \"#utility.yul\":16521:16545   */\n      tag_380\n        /* \"#utility.yul\":16539:16544   */\n      dup5\n        /* \"#utility.yul\":16521:16545   */\n      tag_166\n      jump\t// in\n    tag_380:\n        /* \"#utility.yul\":16512:16546   */\n      tag_204\n      jump\t// in\n    tag_379:\n        /* \"#utility.yul\":16494:16547   */\n      tag_166\n      jump\t// in\n    tag_378:\n        /* \"#utility.yul\":16481:16547   */\n      swap1\n      pop\n        /* \"#utility.yul\":16411:16553   */\n      swap2\n      swap1\n      pop\n      jump\t// out\n        /* \"#utility.yul\":16559:16634   */\n    tag_206:\n        /* \"#utility.yul\":16602:16605   */\n      0x00\n        /* \"#utility.yul\":16623:16628   */\n      dup2\n        /* \"#utility.yul\":16616:16628   */\n      swap1\n      pop\n        /* \"#utility.yul\":16559:16634   */\n      swap2\n      swap1\n      pop\n      jump\t// out\n        /* \"#utility.yul\":16640:16909   */\n    tag_207:\n        /* \"#utility.yul\":16750:16789   */\n      tag_383\n        /* \"#utility.yul\":16781:16788   */\n      dup4\n        /* \"#utility.yul\":16750:16789   */\n      tag_205\n      jump\t// in\n    tag_383:\n        /* \"#utility.yul\":16811:16902   */\n      tag_384\n        /* \"#utility.yul\":16860:16901   */\n      tag_385\n        /* \"#utility.yul\":16884:16900   */\n      dup3\n        /* \"#utility.yul\":16860:16901   */\n      tag_206\n      jump\t// in\n    tag_385:\n        /* \"#utility.yul\":16852:16858   */\n      dup5\n        /* \"#utility.yul\":16845:16849   */\n      dup5\n        /* \"#utility.yul\":16839:16850   */\n      sload\n        /* \"#utility.yul\":16811:16902   */\n      tag_203\n      jump\t// in\n    tag_384:\n        /* \"#utility.yul\":16805:16809   */\n      dup3\n        /* \"#utility.yul\":16798:16903   */\n      sstore\n        /* \"#utility.yul\":16716:16909   */\n      pop\n        /* \"#utility.yul\":16640:16909   */\n      pop\n      pop\n      pop\n      jump\t// out\n        /* \"#utility.yul\":16915:16988   */\n    tag_208:\n        /* \"#utility.yul\":16960:16963   */\n      0x00\n        /* \"#utility.yul\":16915:16988   */\n      swap1\n      jump\t// out\n        /* \"#utility.yul\":16994:17183   */\n    tag_209:\n        /* \"#utility.yul\":17071:17103   */\n      tag_388\n      tag_208\n      jump\t// in\n    tag_388:\n        /* \"#utility.yul\":17112:17177   */\n      tag_389\n        /* \"#utility.yul\":17170:17176   */\n      dup2\n        /* \"#utility.yul\":17162:17168   */\n      dup5\n        /* \"#utility.yul\":17156:17160   */\n      dup5\n        /* \"#utility.yul\":17112:17177   */\n      tag_207\n      jump\t// in\n    tag_389:\n        /* \"#utility.yul\":17047:17183   */\n      pop\n        /* \"#utility.yul\":16994:17183   */\n      pop\n      pop\n      jump\t// out\n        /* \"#utility.yul\":17189:17375   */\n    tag_210:\n        /* \"#utility.yul\":17249:17369   */\n    tag_391:\n        /* \"#utility.yul\":17266:17269   */\n      dup2\n        /* \"#utility.yul\":17259:17264   */\n      dup2\n        /* \"#utility.yul\":17256:17270   */\n      lt\n        /* \"#utility.yul\":17249:17369   */\n      iszero\n      tag_393\n      jumpi\n        /* \"#utility.yul\":17320:17359   */\n      tag_394\n        /* \"#utility.yul\":17357:17358   */\n      0x00\n        /* \"#utility.yul\":17350:17355   */\n      dup3\n        /* \"#utility.yul\":17320:17359   */\n      tag_209\n      jump\t// in\n    tag_394:\n        /* \"#utility.yul\":17293:17294   */\n      0x01\n        /* \"#utility.yul\":17286:17291   */\n      dup2\n        /* \"#utility.yul\":17282:17295   */\n      add\n        /* \"#utility.yul\":17273:17295   */\n      swap1\n      pop\n        /* \"#utility.yul\":17249:17369   */\n      jump(tag_391)\n    tag_393:\n        /* \"#utility.yul\":17189:17375   */\n      pop\n      pop\n      jump\t// out\n        /* \"#utility.yul\":17381:17924   */\n    tag_211:\n        /* \"#utility.yul\":17482:17484   */\n      0x1f\n        /* \"#utility.yul\":17477:17480   */\n      dup3\n        /* \"#utility.yul\":17474:17485   */\n      gt\n        /* \"#utility.yul\":17471:17917   */\n      iszero\n      tag_396\n      jumpi\n        /* \"#utility.yul\":17516:17554   */\n      tag_397\n        /* \"#utility.yul\":17548:17553   */\n      dup2\n        /* \"#utility.yul\":17516:17554   */\n      tag_200\n      jump\t// in\n    tag_397:\n        /* \"#utility.yul\":17600:17629   */\n      tag_398\n        /* \"#utility.yul\":17618:17628   */\n      dup5\n        /* \"#utility.yul\":17600:17629   */\n      tag_201\n      jump\t// in\n    tag_398:\n        /* \"#utility.yul\":17590:17598   */\n      dup2\n        /* \"#utility.yul\":17586:17630   */\n      add\n        /* \"#utility.yul\":17783:17785   */\n      0x20\n        /* \"#utility.yul\":17771:17781   */\n      dup6\n        /* \"#utility.yul\":17768:17786   */\n      lt\n        /* \"#utility.yul\":17765:17814   */\n      iszero\n      tag_399\n      jumpi\n        /* \"#utility.yul\":17804:17812   */\n      dup2\n        /* \"#utility.yul\":17789:17812   */\n      swap1\n      pop\n        /* \"#utility.yul\":17765:17814   */\n    tag_399:\n        /* \"#utility.yul\":17827:17907   */\n      tag_400\n        /* \"#utility.yul\":17883:17905   */\n      tag_401\n        /* \"#utility.yul\":17901:17904   */\n      dup6\n        /* \"#utility.yul\":17883:17905   */\n      tag_201\n      jump\t// in\n    tag_401:\n        /* \"#utility.yul\":17873:17881   */\n      dup4\n        /* \"#utility.yul\":17869:17906   */\n      add\n        /* \"#utility.yul\":17856:17867   */\n      dup3\n        /* \"#utility.yul\":17827:17907   */\n      tag_210\n      jump\t// in\n    tag_400:\n        /* \"#utility.yul\":17486:17917   */\n      pop\n      pop\n        /* \"#utility.yul\":17471:17917   */\n    tag_396:\n        /* \"#utility.yul\":17381:17924   */\n      pop\n      pop\n      pop\n      jump\t// out\n        /* \"#utility.yul\":17930:18047   */\n    tag_212:\n        /* \"#utility.yul\":17984:17992   */\n      0x00\n        /* \"#utility.yul\":18034:18039   */\n      dup3\n        /* \"#utility.yul\":18028:18032   */\n      dup3\n        /* \"#utility.yul\":18024:18040   */\n      shr\n        /* \"#utility.yul\":18003:18040   */\n      swap1\n      pop\n        /* \"#utility.yul\":17930:18047   */\n      swap3\n      swap2\n      pop\n      pop\n      jump\t// out\n        /* \"#utility.yul\":18053:18222   */\n    tag_213:\n        /* \"#utility.yul\":18097:18103   */\n      0x00\n        /* \"#utility.yul\":18130:18181   */\n      tag_404\n        /* \"#utility.yul\":18178:18179   */\n      0x00\n        /* \"#utility.yul\":18174:18180   */\n      not\n        /* \"#utility.yul\":18166:18171   */\n      dup5\n        /* \"#utility.yul\":18163:18164   */\n      0x08\n        /* \"#utility.yul\":18159:18172   */\n      mul\n        /* \"#utility.yul\":18130:18181   */\n      tag_212\n      jump\t// in\n    tag_404:\n        /* \"#utility.yul\":18126:18182   */\n      not\n        /* \"#utility.yul\":18211:18215   */\n      dup1\n        /* \"#utility.yul\":18205:18209   */\n      dup4\n        /* \"#utility.yul\":18201:18216   */\n      and\n        /* \"#utility.yul\":18191:18216   */\n      swap2\n      pop\n        /* \"#utility.yul\":18104:18222   */\n      pop\n        /* \"#utility.yul\":18053:18222   */\n      swap3\n      swap2\n      pop\n      pop\n      jump\t// out\n        /* \"#utility.yul\":18227:18522   */\n    tag_214:\n        /* \"#utility.yul\":18303:18307   */\n      0x00\n        /* \"#utility.yul\":18449:18478   */\n      tag_406\n        /* \"#utility.yul\":18474:18477   */\n      dup4\n        /* \"#utility.yul\":18468:18472   */\n      dup4\n        /* \"#utility.yul\":18449:18478   */\n      tag_213\n      jump\t// in\n    tag_406:\n        /* \"#utility.yul\":18441:18478   */\n      swap2\n      pop\n        /* \"#utility.yul\":18511:18514   */\n      dup3\n        /* \"#utility.yul\":18508:18509   */\n      0x02\n        /* \"#utility.yul\":18504:18515   */\n      mul\n        /* \"#utility.yul\":18498:18502   */\n      dup3\n        /* \"#utility.yul\":18495:18516   */\n      or\n        /* \"#utility.yul\":18487:18516   */\n      swap1\n      pop\n        /* \"#utility.yul\":18227:18522   */\n      swap3\n      swap2\n      pop\n      pop\n      jump\t// out\n        /* \"#utility.yul\":18527:19922   */\n    tag_82:\n        /* \"#utility.yul\":18644:18681   */\n      tag_408\n        /* \"#utility.yul\":18677:18680   */\n      dup3\n        /* \"#utility.yul\":18644:18681   */\n      tag_158\n      jump\t// in\n    tag_408:\n        /* \"#utility.yul\":18746:18764   */\n      0xffffffffffffffff\n        /* \"#utility.yul\":18738:18744   */\n      dup2\n        /* \"#utility.yul\":18735:18765   */\n      gt\n        /* \"#utility.yul\":18732:18788   */\n      iszero\n      tag_409\n      jumpi\n        /* \"#utility.yul\":18768:18786   */\n      tag_410\n      tag_68\n      jump\t// in\n    tag_410:\n        /* \"#utility.yul\":18732:18788   */\n    tag_409:\n        /* \"#utility.yul\":18812:18850   */\n      tag_411\n        /* \"#utility.yul\":18844:18848   */\n      dup3\n        /* \"#utility.yul\":18838:18849   */\n      sload\n        /* \"#utility.yul\":18812:18850   */\n      tag_60\n      jump\t// in\n    tag_411:\n        /* \"#utility.yul\":18897:18964   */\n      tag_412\n        /* \"#utility.yul\":18957:18963   */\n      dup3\n        /* \"#utility.yul\":18949:18955   */\n      dup3\n        /* \"#utility.yul\":18943:18947   */\n      dup6\n        /* \"#utility.yul\":18897:18964   */\n      tag_211\n      jump\t// in\n    tag_412:\n        /* \"#utility.yul\":18991:18992   */\n      0x00\n        /* \"#utility.yul\":19015:19019   */\n      0x20\n        /* \"#utility.yul\":19002:19019   */\n      swap1\n      pop\n        /* \"#utility.yul\":19047:19049   */\n      0x1f\n        /* \"#utility.yul\":19039:19045   */\n      dup4\n        /* \"#utility.yul\":19036:19050   */\n      gt\n        /* \"#utility.yul\":19064:19065   */\n      0x01\n        /* \"#utility.yul\":19059:19677   */\n      dup2\n      eq\n      tag_414\n      jumpi\n        /* \"#utility.yul\":19721:19722   */\n      0x00\n        /* \"#utility.yul\":19738:19744   */\n      dup5\n        /* \"#utility.yul\":19735:19812   */\n      iszero\n      tag_415\n      jumpi\n        /* \"#utility.yul\":19787:19796   */\n      dup3\n        /* \"#utility.yul\":19782:19785   */\n      dup8\n        /* \"#utility.yul\":19778:19797   */\n      add\n        /* \"#utility.yul\":19772:19798   */\n      mload\n        /* \"#utility.yul\":19763:19798   */\n      swap1\n      pop\n        /* \"#utility.yul\":19735:19812   */\n    tag_415:\n        /* \"#utility.yul\":19838:19905   */\n      tag_416\n        /* \"#utility.yul\":19898:19904   */\n      dup6\n        /* \"#utility.yul\":19891:19896   */\n      dup3\n        /* \"#utility.yul\":19838:19905   */\n      tag_214\n      jump\t// in\n    tag_416:\n        /* \"#utility.yul\":19832:19836   */\n      dup7\n        /* \"#utility.yul\":19825:19906   */\n      sstore\n        /* \"#utility.yul\":19694:19916   */\n      pop\n        /* \"#utility.yul\":19029:19916   */\n      jump(tag_413)\n        /* \"#utility.yul\":19059:19677   */\n    tag_414:\n        /* \"#utility.yul\":19111:19115   */\n      0x1f\n        /* \"#utility.yul\":19107:19116   */\n      not\n        /* \"#utility.yul\":19099:19105   */\n      dup5\n        /* \"#utility.yul\":19095:19117   */\n      and\n        /* \"#utility.yul\":19145:19182   */\n      tag_417\n        /* \"#utility.yul\":19177:19181   */\n      dup7\n        /* \"#utility.yul\":19145:19182   */\n      tag_200\n      jump\t// in\n    tag_417:\n        /* \"#utility.yul\":19204:19205   */\n      0x00\n        /* \"#utility.yul\":19218:19426   */\n    tag_418:\n        /* \"#utility.yul\":19232:19239   */\n      dup3\n        /* \"#utility.yul\":19229:19230   */\n      dup2\n        /* \"#utility.yul\":19226:19240   */\n      lt\n        /* \"#utility.yul\":19218:19426   */\n      iszero\n      tag_420\n      jumpi\n        /* \"#utility.yul\":19311:19320   */\n      dup5\n        /* \"#utility.yul\":19306:19309   */\n      dup10\n        /* \"#utility.yul\":19302:19321   */\n      add\n        /* \"#utility.yul\":19296:19322   */\n      mload\n        /* \"#utility.yul\":19288:19294   */\n      dup3\n        /* \"#utility.yul\":19281:19323   */\n      sstore\n        /* \"#utility.yul\":19362:19363   */\n      0x01\n        /* \"#utility.yul\":19354:19360   */\n      dup3\n        /* \"#utility.yul\":19350:19364   */\n      add\n        /* \"#utility.yul\":19340:19364   */\n      swap2\n      pop\n        /* \"#utility.yul\":19409:19411   */\n      0x20\n        /* \"#utility.yul\":19398:19407   */\n      dup6\n        /* \"#utility.yul\":19394:19412   */\n      add\n        /* \"#utility.yul\":19381:19412   */\n      swap5\n      pop\n        /* \"#utility.yul\":19255:19259   */\n      0x20\n        /* \"#utility.yul\":19252:19253   */\n      dup2\n        /* \"#utility.yul\":19248:19260   */\n      add\n        /* \"#utility.yul\":19243:19260   */\n      swap1\n      pop\n        /* \"#utility.yul\":19218:19426   */\n      jump(tag_418)\n    tag_420:\n        /* \"#utility.yul\":19454:19460   */\n      dup7\n        /* \"#utility.yul\":19445:19452   */\n      dup4\n        /* \"#utility.yul\":19442:19461   */\n      lt\n        /* \"#utility.yul\":19439:19618   */\n      iszero\n      tag_421\n      jumpi\n        /* \"#utility.yul\":19512:19521   */\n      dup5\n        /* \"#utility.yul\":19507:19510   */\n      dup10\n        /* \"#utility.yul\":19503:19522   */\n      add\n        /* \"#utility.yul\":19497:19523   */\n      mload\n        /* \"#utility.yul\":19555:19603   */\n      tag_422\n        /* \"#utility.yul\":19597:19601   */\n      0x1f\n        /* \"#utility.yul\":19589:19595   */\n      dup10\n        /* \"#utility.yul\":19585:19602   */\n      and\n        /* \"#utility.yul\":19574:19583   */\n      dup3\n        /* \"#utility.yul\":19555:19603   */\n      tag_213\n      jump\t// in\n    tag_422:\n        /* \"#utility.yul\":19547:19553   */\n      dup4\n        /* \"#utility.yul\":19540:19604   */\n      sstore\n        /* \"#utility.yul\":19462:19618   */\n      pop\n        /* \"#utility.yul\":19439:19618   */\n    tag_421:\n        /* \"#utility.yul\":19664:19665   */\n      0x01\n        /* \"#utility.yul\":19660:19661   */\n      0x02\n        /* \"#utility.yul\":19652:19658   */\n      dup9\n        /* \"#utility.yul\":19648:19662   */\n      mul\n        /* \"#utility.yul\":19644:19666   */\n      add\n        /* \"#utility.yul\":19638:19642   */\n      dup9\n        /* \"#utility.yul\":19631:19667   */\n      sstore\n        /* \"#utility.yul\":19066:19677   */\n      pop\n      pop\n      pop\n        /* \"#utility.yul\":19029:19916   */\n    tag_413:\n      pop\n        /* \"#utility.yul\":18619:19922   */\n      pop\n      pop\n      pop\n        /* \"#utility.yul\":18527:19922   */\n      pop\n      pop\n      jump\t// out\n        /* \"#utility.yul\":19928:20110   */\n    tag_215:\n        /* \"#utility.yul\":20068:20102   */\n      0x4f6e6c7920746865206f7261636c652063616e206164642065766964656e6365\n        /* \"#utility.yul\":20064:20065   */\n      0x00\n        /* \"#utility.yul\":20056:20062   */\n      dup3\n        /* \"#utility.yul\":20052:20066   */\n      add\n        /* \"#utility.yul\":20045:20103   */\n      mstore\n        /* \"#utility.yul\":19928:20110   */\n      pop\n      jump\t// out\n        /* \"#utility.yul\":20116:20482   */\n    tag_216:\n        /* \"#utility.yul\":20258:20261   */\n      0x00\n        /* \"#utility.yul\":20279:20346   */\n      tag_425\n        /* \"#utility.yul\":20343:20345   */\n      0x20\n        /* \"#utility.yul\":20338:20341   */\n      dup4\n        /* \"#utility.yul\":20279:20346   */\n      tag_159\n      jump\t// in\n    tag_425:\n        /* \"#utility.yul\":20272:20346   */\n      swap2\n      pop\n        /* \"#utility.yul\":20355:20448   */\n      tag_426\n        /* \"#utility.yul\":20444:20447   */\n      dup3\n        /* \"#utility.yul\":20355:20448   */\n      tag_215\n      jump\t// in\n    tag_426:\n        /* \"#utility.yul\":20473:20475   */\n      0x20\n        /* \"#utility.yul\":20468:20471   */\n      dup3\n        /* \"#utility.yul\":20464:20476   */\n      add\n        /* \"#utility.yul\":20457:20476   */\n      swap1\n      pop\n        /* \"#utility.yul\":20116:20482   */\n      swap2\n      swap1\n      pop\n      jump\t// out\n        /* \"#utility.yul\":20488:20907   */\n    tag_89:\n        /* \"#utility.yul\":20654:20658   */\n      0x00\n        /* \"#utility.yul\":20692:20694   */\n      0x20\n        /* \"#utility.yul\":20681:20690   */\n      dup3\n        /* \"#utility.yul\":20677:20695   */\n      add\n        /* \"#utility.yul\":20669:20695   */\n      swap1\n      pop\n        /* \"#utility.yul\":20741:20750   */\n      dup2\n        /* \"#utility.yul\":20735:20739   */\n      dup2\n        /* \"#utility.yul\":20731:20751   */\n      sub\n        /* \"#utility.yul\":20727:20728   */\n      0x00\n        /* \"#utility.yul\":20716:20725   */\n      dup4\n        /* \"#utility.yul\":20712:20729   */\n      add\n        /* \"#utility.yul\":20705:20752   */\n      mstore\n        /* \"#utility.yul\":20769:20900   */\n      tag_428\n        /* \"#utility.yul\":20895:20899   */\n      dup2\n        /* \"#utility.yul\":20769:20900   */\n      tag_216\n      jump\t// in\n    tag_428:\n        /* \"#utility.yul\":20761:20900   */\n      swap1\n      pop\n        /* \"#utility.yul\":20488:20907   */\n      swap2\n      swap1\n      pop\n      jump\t// out\n        /* \"#utility.yul\":20913:21446   */\n    tag_93:\n        /* \"#utility.yul\":21082:21086   */\n      0x00\n        /* \"#utility.yul\":21120:21122   */\n      0x60\n        /* \"#utility.yul\":21109:21118   */\n      dup3\n        /* \"#utility.yul\":21105:21123   */\n      add\n        /* \"#utility.yul\":21097:21123   */\n      swap1\n      pop\n        /* \"#utility.yul\":21133:21204   */\n      tag_430\n        /* \"#utility.yul\":21201:21202   */\n      0x00\n        /* \"#utility.yul\":21190:21199   */\n      dup4\n        /* \"#utility.yul\":21186:21203   */\n      add\n        /* \"#utility.yul\":21177:21183   */\n      dup7\n        /* \"#utility.yul\":21133:21204   */\n      tag_187\n      jump\t// in\n    tag_430:\n        /* \"#utility.yul\":21251:21260   */\n      dup2\n        /* \"#utility.yul\":21245:21249   */\n      dup2\n        /* \"#utility.yul\":21241:21261   */\n      sub\n        /* \"#utility.yul\":21236:21238   */\n      0x20\n        /* \"#utility.yul\":21225:21234   */\n      dup4\n        /* \"#utility.yul\":21221:21239   */\n      add\n        /* \"#utility.yul\":21214:21262   */\n      mstore\n        /* \"#utility.yul\":21279:21357   */\n      tag_431\n        /* \"#utility.yul\":21352:21356   */\n      dup2\n        /* \"#utility.yul\":21343:21349   */\n      dup6\n        /* \"#utility.yul\":21279:21357   */\n      tag_162\n      jump\t// in\n    tag_431:\n        /* \"#utility.yul\":21271:21357   */\n      swap1\n      pop\n        /* \"#utility.yul\":21367:21439   */\n      tag_432\n        /* \"#utility.yul\":21435:21437   */\n      0x40\n        /* \"#utility.yul\":21424:21433   */\n      dup4\n        /* \"#utility.yul\":21420:21438   */\n      add\n        /* \"#utility.yul\":21411:21417   */\n      dup5\n        /* \"#utility.yul\":21367:21439   */\n      tag_187\n      jump\t// in\n    tag_432:\n        /* \"#utility.yul\":20913:21446   */\n      swap5\n      swap4\n      pop\n      pop\n      pop\n      pop\n      jump\t// out\n\n    auxdata: 0xa26469706673582212201eb1b7bebc2cdfd92bbf75f64f1577e367e7dc2a4535b00260a4d851bd725d3364736f6c634300081a0033\n}\n",
				"bytecode": {
					"linkReferences": {},
					"object": "60806040525f600455348015610013575f80fd5b506040518060400160405280600a81526020017f61756469746f72696173000000000000000000000000000000000000000000008152506002908161005891906102d8565b503360035f6101000a81548173ffffffffffffffffffffffffffffffffffffffff021916908373ffffffffffffffffffffffffffffffffffffffff1602179055506103a7565b5f81519050919050565b7f4e487b71000000000000000000000000000000000000000000000000000000005f52604160045260245ffd5b7f4e487b71000000000000000000000000000000000000000000000000000000005f52602260045260245ffd5b5f600282049050600182168061011957607f821691505b60208210810361012c5761012b6100d5565b5b50919050565b5f819050815f5260205f209050919050565b5f6020601f8301049050919050565b5f82821b905092915050565b5f6008830261018e7fffffffffffffffffffffffffffffffffffffffffffffffffffffffffffffffff82610153565b6101988683610153565b95508019841693508086168417925050509392505050565b5f819050919050565b5f819050919050565b5f6101dc6101d76101d2846101b0565b6101b9565b6101b0565b9050919050565b5f819050919050565b6101f5836101c2565b610209610201826101e3565b84845461015f565b825550505050565b5f90565b61021d610211565b6102288184846101ec565b505050565b5b8181101561024b576102405f82610215565b60018101905061022e565b5050565b601f8211156102905761026181610132565b61026a84610144565b81016020851015610279578190505b61028d61028585610144565b83018261022d565b50505b505050565b5f82821c905092915050565b5f6102b05f1984600802610295565b1980831691505092915050565b5f6102c883836102a1565b9150826002028217905092915050565b6102e18261009e565b67ffffffffffffffff8111156102fa576102f96100a8565b5b6103048254610102565b61030f82828561024f565b5f60209050601f831160018114610340575f841561032e578287015190505b61033885826102bd565b86555061039f565b601f19841661034e86610132565b5f5b8281101561037557848901518255600182019150602085019450602081019050610350565b86831015610392578489015161038e601f8916826102a1565b8355505b6001600288020188555050505b505050505050565b611801806103b45f395ff3fe608060405234801561000f575f80fd5b506004361061009c575f3560e01c80635c8fc294116100645780635c8fc2941461013257806387dfdc6e1461015057806391082a5214610186578063aba6daca146101bc578063d799b4bc146101ed5761009c565b806306fdde03146100a057806310724ca7146100be578063143d49e1146100dc57806318dbb522146100f8578063570ca73514610114575b5f80fd5b6100a861021e565b6040516100b59190610d6d565b60405180910390f35b6100c66102aa565b6040516100d39190610e4d565b60405180910390f35b6100f660048036038101906100f19190610faa565b610354565b005b610112600480360381019061010d9190611078565b6104d2565b005b61011c61060c565b6040516101299190611111565b60405180910390f35b61013a610631565b6040516101479190611139565b60405180910390f35b61016a60048036038101906101659190611152565b610637565b60405161017d9796959493929190611197565b60405180910390f35b6101a0600480360381019061019b9190611152565b610831565b6040516101b39796959493929190611197565b60405180910390f35b6101d660048036038101906101d19190611152565b610a4f565b6040516101e492919061131c565b60405180910390f35b61020760048036038101906102029190611351565b610c3d565b60405161021592919061138f565b60405180910390f35b6002805461022b906113ea565b80601f0160208091040260200160405190810160405280929190818152602001828054610257906113ea565b80156102a25780601f10610279576101008083540402835291602001916102a2565b820191905f5260205f20905b81548152906001019060200180831161028557829003601f168201915b505050505081565b60605f60045467ffffffffffffffff8111156102c9576102c8610e86565b5b6040519080825280602002602001820160405280156102f75781602001602082028036833780820191505090505b5090505f80600190505b600454811161034b578083838151811061031e5761031d61141a565b5b602002602001018181525050818061033590611474565b925050808061034390611474565b915050610301565b50819250505090565b60045f81548092919061036690611474565b91905055506040518060e0016040528060045481526020018481526020013373ffffffffffffffffffffffffffffffffffffffff168152602001838152602001828152602001600115158152602001428152505f8060045481526020019081526020015f205f820151815f015560208201518160010190816103e89190611658565b506040820151816002015f6101000a81548173ffffffffffffffffffffffffffffffffffffffff021916908373ffffffffffffffffffffffffffffffffffffffff16021790555060608201518160030190816104449190611658565b50608082015181600401908161045a9190611658565b5060a0820151816005015f6101000a81548160ff02191690831515021790555060c082015181600601559050507f1a21e2ac04dca403ce193c10c4d6de5ab71108eac24d59f7fe716f38f38fdfb1600454843385856001426040516104c59796959493929190611197565b60405180910390a1505050565b60035f9054906101000a900473ffffffffffffffffffffffffffffffffffffffff1673ffffffffffffffffffffffffffffffffffffffff163373ffffffffffffffffffffffffffffffffffffffff1614610561576040517f08c379a000000000000000000000000000000000000000000000000000000000815260040161055890611771565b60405180910390fd5b60015f8381526020019081526020015f20604051806040016040528083815260200142815250908060018154018082558091505060019003905f5260205f2090600202015f909190919091505f820151815f0190816105c09190611658565b506020820151816001015550507f813627f6a8c0ab402f69a15addbfc6717f12e01d249ba9a5d234df032fadd9bc8282426040516106009392919061178f565b60405180910390a15050565b60035f9054906101000a900473ffffffffffffffffffffffffffffffffffffffff1681565b60045481565b5f602052805f5260405f205f91509050805f01549080600101805461065b906113ea565b80601f0160208091040260200160405190810160405280929190818152602001828054610687906113ea565b80156106d25780601f106106a9576101008083540402835291602001916106d2565b820191905f5260205f20905b8154815290600101906020018083116106b557829003601f168201915b505050505090806002015f9054906101000a900473ffffffffffffffffffffffffffffffffffffffff169080600301805461070c906113ea565b80601f0160208091040260200160405190810160405280929190818152602001828054610738906113ea565b80156107835780601f1061075a57610100808354040283529160200191610783565b820191905f5260205f20905b81548152906001019060200180831161076657829003601f168201915b505050505090806004018054610798906113ea565b80601f01602080910402602001604051908101604052809291908181526020018280546107c4906113ea565b801561080f5780601f106107e65761010080835404028352916020019161080f565b820191905f5260205f20905b8154815290600101906020018083116107f257829003601f168201915b505050505090806005015f9054906101000a900460ff16908060060154905087565b5f60605f6060805f805f805f8a81526020019081526020015f209050805f015481600101826002015f9054906101000a900473ffffffffffffffffffffffffffffffffffffffff168360030184600401856005015f9054906101000a900460ff1686600601548580546108a3906113ea565b80601f01602080910402602001604051908101604052809291908181526020018280546108cf906113ea565b801561091a5780601f106108f15761010080835404028352916020019161091a565b820191905f5260205f20905b8154815290600101906020018083116108fd57829003601f168201915b5050505050955083805461092d906113ea565b80601f0160208091040260200160405190810160405280929190818152602001828054610959906113ea565b80156109a45780601f1061097b576101008083540402835291602001916109a4565b820191905f5260205f20905b81548152906001019060200180831161098757829003601f168201915b505050505093508280546109b7906113ea565b80601f01602080910402602001604051908101604052809291908181526020018280546109e3906113ea565b8015610a2e5780601f10610a0557610100808354040283529160200191610a2e565b820191905f5260205f20905b815481529060010190602001808311610a1157829003601f168201915b50505050509250975097509750975097509750975050919395979092949650565b6060805f60015f8581526020019081526020015f2090505f818054905067ffffffffffffffff811115610a8557610a84610e86565b5b604051908082528060200260200182016040528015610ab857816020015b6060815260200190600190039081610aa35790505b5090505f828054905067ffffffffffffffff811115610ada57610ad9610e86565b5b604051908082528060200260200182016040528015610b085781602001602082028036833780820191505090505b5090505f5b8380549050811015610c2e57838181548110610b2c57610b2b61141a565b5b905f5260205f2090600202015f018054610b45906113ea565b80601f0160208091040260200160405190810160405280929190818152602001828054610b71906113ea565b8015610bbc5780601f10610b9357610100808354040283529160200191610bbc565b820191905f5260205f20905b815481529060010190602001808311610b9f57829003601f168201915b5050505050838281518110610bd457610bd361141a565b5b6020026020010181905250838181548110610bf257610bf161141a565b5b905f5260205f20906002020160010154828281518110610c1557610c1461141a565b5b6020026020010181815250508080600101915050610b0d565b50818194509450505050915091565b6001602052815f5260405f208181548110610c56575f80fd5b905f5260205f2090600202015f9150915050805f018054610c76906113ea565b80601f0160208091040260200160405190810160405280929190818152602001828054610ca2906113ea565b8015610ced5780601f10610cc457610100808354040283529160200191610ced565b820191905f5260205f20905b815481529060010190602001808311610cd057829003601f168201915b5050505050908060010154905082565b5f81519050919050565b5f82825260208201905092915050565b8281835e5f83830152505050565b5f601f19601f8301169050919050565b5f610d3f82610cfd565b610d498185610d07565b9350610d59818560208601610d17565b610d6281610d25565b840191505092915050565b5f6020820190508181035f830152610d858184610d35565b905092915050565b5f81519050919050565b5f82825260208201905092915050565b5f819050602082019050919050565b5f819050919050565b610dc881610db6565b82525050565b5f610dd98383610dbf565b60208301905092915050565b5f602082019050919050565b5f610dfb82610d8d565b610e058185610d97565b9350610e1083610da7565b805f5b83811015610e40578151610e278882610dce565b9750610e3283610de5565b925050600181019050610e13565b5085935050505092915050565b5f6020820190508181035f830152610e658184610df1565b905092915050565b5f604051905090565b5f80fd5b5f80fd5b5f80fd5b5f80fd5b7f4e487b71000000000000000000000000000000000000000000000000000000005f52604160045260245ffd5b610ebc82610d25565b810181811067ffffffffffffffff82111715610edb57610eda610e86565b5b80604052505050565b5f610eed610e6d565b9050610ef98282610eb3565b919050565b5f67ffffffffffffffff821115610f1857610f17610e86565b5b610f2182610d25565b9050602081019050919050565b828183375f83830152505050565b5f610f4e610f4984610efe565b610ee4565b905082815260208101848484011115610f6a57610f69610e82565b5b610f75848285610f2e565b509392505050565b5f82601f830112610f9157610f90610e7e565b5b8135610fa1848260208601610f3c565b91505092915050565b5f805f60608486031215610fc157610fc0610e76565b5b5f84013567ffffffffffffffff811115610fde57610fdd610e7a565b5b610fea86828701610f7d565b935050602084013567ffffffffffffffff81111561100b5761100a610e7a565b5b61101786828701610f7d565b925050604084013567ffffffffffffffff81111561103857611037610e7a565b5b61104486828701610f7d565b9150509250925092565b61105781610db6565b8114611061575f80fd5b50565b5f813590506110728161104e565b92915050565b5f806040838503121561108e5761108d610e76565b5b5f61109b85828601611064565b925050602083013567ffffffffffffffff8111156110bc576110bb610e7a565b5b6110c885828601610f7d565b9150509250929050565b5f73ffffffffffffffffffffffffffffffffffffffff82169050919050565b5f6110fb826110d2565b9050919050565b61110b816110f1565b82525050565b5f6020820190506111245f830184611102565b92915050565b61113381610db6565b82525050565b5f60208201905061114c5f83018461112a565b92915050565b5f6020828403121561116757611166610e76565b5b5f61117484828501611064565b91505092915050565b5f8115159050919050565b6111918161117d565b82525050565b5f60e0820190506111aa5f83018a61112a565b81810360208301526111bc8189610d35565b90506111cb6040830188611102565b81810360608301526111dd8187610d35565b905081810360808301526111f18186610d35565b905061120060a0830185611188565b61120d60c083018461112a565b98975050505050505050565b5f81519050919050565b5f82825260208201905092915050565b5f819050602082019050919050565b5f82825260208201905092915050565b5f61125c82610cfd565b6112668185611242565b9350611276818560208601610d17565b61127f81610d25565b840191505092915050565b5f6112958383611252565b905092915050565b5f602082019050919050565b5f6112b382611219565b6112bd8185611223565b9350836020820285016112cf85611233565b805f5b8581101561130a57848403895281516112eb858261128a565b94506112f68361129d565b925060208a019950506001810190506112d2565b50829750879550505050505092915050565b5f6040820190508181035f83015261133481856112a9565b905081810360208301526113488184610df1565b90509392505050565b5f806040838503121561136757611366610e76565b5b5f61137485828601611064565b925050602061138585828601611064565b9150509250929050565b5f6040820190508181035f8301526113a78185610d35565b90506113b6602083018461112a565b9392505050565b7f4e487b71000000000000000000000000000000000000000000000000000000005f52602260045260245ffd5b5f600282049050600182168061140157607f821691505b602082108103611414576114136113bd565b5b50919050565b7f4e487b71000000000000000000000000000000000000000000000000000000005f52603260045260245ffd5b7f4e487b71000000000000000000000000000000000000000000000000000000005f52601160045260245ffd5b5f61147e82610db6565b91507fffffffffffffffffffffffffffffffffffffffffffffffffffffffffffffffff82036114b0576114af611447565b5b600182019050919050565b5f819050815f5260205f209050919050565b5f6020601f8301049050919050565b5f82821b905092915050565b5f600883026115177fffffffffffffffffffffffffffffffffffffffffffffffffffffffffffffffff826114dc565b61152186836114dc565b95508019841693508086168417925050509392505050565b5f819050919050565b5f61155c61155761155284610db6565b611539565b610db6565b9050919050565b5f819050919050565b61157583611542565b61158961158182611563565b8484546114e8565b825550505050565b5f90565b61159d611591565b6115a881848461156c565b505050565b5b818110156115cb576115c05f82611595565b6001810190506115ae565b5050565b601f821115611610576115e1816114bb565b6115ea846114cd565b810160208510156115f9578190505b61160d611605856114cd565b8301826115ad565b50505b505050565b5f82821c905092915050565b5f6116305f1984600802611615565b1980831691505092915050565b5f6116488383611621565b9150826002028217905092915050565b61166182610cfd565b67ffffffffffffffff81111561167a57611679610e86565b5b61168482546113ea565b61168f8282856115cf565b5f60209050601f8311600181146116c0575f84156116ae578287015190505b6116b8858261163d565b86555061171f565b601f1984166116ce866114bb565b5f5b828110156116f5578489015182556001820191506020850194506020810190506116d0565b86831015611712578489015161170e601f891682611621565b8355505b6001600288020188555050505b505050505050565b7f4f6e6c7920746865206f7261636c652063616e206164642065766964656e63655f82015250565b5f61175b602083610d07565b915061176682611727565b602082019050919050565b5f6020820190508181035f8301526117888161174f565b9050919050565b5f6060820190506117a25f83018661112a565b81810360208301526117b48185610d35565b90506117c3604083018461112a565b94935050505056fea26469706673582212201eb1b7bebc2cdfd92bbf75f64f1577e367e7dc2a4535b00260a4d851bd725d3364736f6c634300081a0033",
					"opcodes": "PUSH1 0x80 PUSH1 0x40 MSTORE PUSH0 PUSH1 0x4 SSTORE CALLVALUE DUP1 ISZERO PUSH2 0x13 JUMPI PUSH0 DUP1 REVERT JUMPDEST POP PUSH1 0x40 MLOAD DUP1 PUSH1 0x40 ADD PUSH1 0x40 MSTORE DUP1 PUSH1 0xA DUP2 MSTORE PUSH1 0x20 ADD PUSH32 0x61756469746F7269617300000000000000000000000000000000000000000000 DUP2 MSTORE POP PUSH1 0x2 SWAP1 DUP2 PUSH2 0x58 SWAP2 SWAP1 PUSH2 0x2D8 JUMP JUMPDEST POP CALLER PUSH1 0x3 PUSH0 PUSH2 0x100 EXP DUP2 SLOAD DUP2 PUSH20 0xFFFFFFFFFFFFFFFFFFFFFFFFFFFFFFFFFFFFFFFF MUL NOT AND SWAP1 DUP4 PUSH20 0xFFFFFFFFFFFFFFFFFFFFFFFFFFFFFFFFFFFFFFFF AND MUL OR SWAP1 SSTORE POP PUSH2 0x3A7 JUMP JUMPDEST PUSH0 DUP2 MLOAD SWAP1 POP SWAP2 SWAP1 POP JUMP JUMPDEST PUSH32 0x4E487B7100000000000000000000000000000000000000000000000000000000 PUSH0 MSTORE PUSH1 0x41 PUSH1 0x4 MSTORE PUSH1 0x24 PUSH0 REVERT JUMPDEST PUSH32 0x4E487B7100000000000000000000000000000000000000000000000000000000 PUSH0 MSTORE PUSH1 0x22 PUSH1 0x4 MSTORE PUSH1 0x24 PUSH0 REVERT JUMPDEST PUSH0 PUSH1 0x2 DUP3 DIV SWAP1 POP PUSH1 0x1 DUP3 AND DUP1 PUSH2 0x119 JUMPI PUSH1 0x7F DUP3 AND SWAP2 POP JUMPDEST PUSH1 0x20 DUP3 LT DUP2 SUB PUSH2 0x12C JUMPI PUSH2 0x12B PUSH2 0xD5 JUMP JUMPDEST JUMPDEST POP SWAP2 SWAP1 POP JUMP JUMPDEST PUSH0 DUP2 SWAP1 POP DUP2 PUSH0 MSTORE PUSH1 0x20 PUSH0 KECCAK256 SWAP1 POP SWAP2 SWAP1 POP JUMP JUMPDEST PUSH0 PUSH1 0x20 PUSH1 0x1F DUP4 ADD DIV SWAP1 POP SWAP2 SWAP1 POP JUMP JUMPDEST PUSH0 DUP3 DUP3 SHL SWAP1 POP SWAP3 SWAP2 POP POP JUMP JUMPDEST PUSH0 PUSH1 0x8 DUP4 MUL PUSH2 0x18E PUSH32 0xFFFFFFFFFFFFFFFFFFFFFFFFFFFFFFFFFFFFFFFFFFFFFFFFFFFFFFFFFFFFFFFF DUP3 PUSH2 0x153 JUMP JUMPDEST PUSH2 0x198 DUP7 DUP4 PUSH2 0x153 JUMP JUMPDEST SWAP6 POP DUP1 NOT DUP5 AND SWAP4 POP DUP1 DUP7 AND DUP5 OR SWAP3 POP POP POP SWAP4 SWAP3 POP POP POP JUMP JUMPDEST PUSH0 DUP2 SWAP1 POP SWAP2 SWAP1 POP JUMP JUMPDEST PUSH0 DUP2 SWAP1 POP SWAP2 SWAP1 POP JUMP JUMPDEST PUSH0 PUSH2 0x1DC PUSH2 0x1D7 PUSH2 0x1D2 DUP5 PUSH2 0x1B0 JUMP JUMPDEST PUSH2 0x1B9 JUMP JUMPDEST PUSH2 0x1B0 JUMP JUMPDEST SWAP1 POP SWAP2 SWAP1 POP JUMP JUMPDEST PUSH0 DUP2 SWAP1 POP SWAP2 SWAP1 POP JUMP JUMPDEST PUSH2 0x1F5 DUP4 PUSH2 0x1C2 JUMP JUMPDEST PUSH2 0x209 PUSH2 0x201 DUP3 PUSH2 0x1E3 JUMP JUMPDEST DUP5 DUP5 SLOAD PUSH2 0x15F JUMP JUMPDEST DUP3 SSTORE POP POP POP POP JUMP JUMPDEST PUSH0 SWAP1 JUMP JUMPDEST PUSH2 0x21D PUSH2 0x211 JUMP JUMPDEST PUSH2 0x228 DUP2 DUP5 DUP5 PUSH2 0x1EC JUMP JUMPDEST POP POP POP JUMP JUMPDEST JUMPDEST DUP2 DUP2 LT ISZERO PUSH2 0x24B JUMPI PUSH2 0x240 PUSH0 DUP3 PUSH2 0x215 JUMP JUMPDEST PUSH1 0x1 DUP2 ADD SWAP1 POP PUSH2 0x22E JUMP JUMPDEST POP POP JUMP JUMPDEST PUSH1 0x1F DUP3 GT ISZERO PUSH2 0x290 JUMPI PUSH2 0x261 DUP2 PUSH2 0x132 JUMP JUMPDEST PUSH2 0x26A DUP5 PUSH2 0x144 JUMP JUMPDEST DUP2 ADD PUSH1 0x20 DUP6 LT ISZERO PUSH2 0x279 JUMPI DUP2 SWAP1 POP JUMPDEST PUSH2 0x28D PUSH2 0x285 DUP6 PUSH2 0x144 JUMP JUMPDEST DUP4 ADD DUP3 PUSH2 0x22D JUMP JUMPDEST POP POP JUMPDEST POP POP POP JUMP JUMPDEST PUSH0 DUP3 DUP3 SHR SWAP1 POP SWAP3 SWAP2 POP POP JUMP JUMPDEST PUSH0 PUSH2 0x2B0 PUSH0 NOT DUP5 PUSH1 0x8 MUL PUSH2 0x295 JUMP JUMPDEST NOT DUP1 DUP4 AND SWAP2 POP POP SWAP3 SWAP2 POP POP JUMP JUMPDEST PUSH0 PUSH2 0x2C8 DUP4 DUP4 PUSH2 0x2A1 JUMP JUMPDEST SWAP2 POP DUP3 PUSH1 0x2 MUL DUP3 OR SWAP1 POP SWAP3 SWAP2 POP POP JUMP JUMPDEST PUSH2 0x2E1 DUP3 PUSH2 0x9E JUMP JUMPDEST PUSH8 0xFFFFFFFFFFFFFFFF DUP2 GT ISZERO PUSH2 0x2FA JUMPI PUSH2 0x2F9 PUSH2 0xA8 JUMP JUMPDEST JUMPDEST PUSH2 0x304 DUP3 SLOAD PUSH2 0x102 JUMP JUMPDEST PUSH2 0x30F DUP3 DUP3 DUP6 PUSH2 0x24F JUMP JUMPDEST PUSH0 PUSH1 0x20 SWAP1 POP PUSH1 0x1F DUP4 GT PUSH1 0x1 DUP2 EQ PUSH2 0x340 JUMPI PUSH0 DUP5 ISZERO PUSH2 0x32E JUMPI DUP3 DUP8 ADD MLOAD SWAP1 POP JUMPDEST PUSH2 0x338 DUP6 DUP3 PUSH2 0x2BD JUMP JUMPDEST DUP7 SSTORE POP PUSH2 0x39F JUMP JUMPDEST PUSH1 0x1F NOT DUP5 AND PUSH2 0x34E DUP7 PUSH2 0x132 JUMP JUMPDEST PUSH0 JUMPDEST DUP3 DUP2 LT ISZERO PUSH2 0x375 JUMPI DUP5 DUP10 ADD MLOAD DUP3 SSTORE PUSH1 0x1 DUP3 ADD SWAP2 POP PUSH1 0x20 DUP6 ADD SWAP5 POP PUSH1 0x20 DUP2 ADD SWAP1 POP PUSH2 0x350 JUMP JUMPDEST DUP7 DUP4 LT ISZERO PUSH2 0x392 JUMPI DUP5 DUP10 ADD MLOAD PUSH2 0x38E PUSH1 0x1F DUP10 AND DUP3 PUSH2 0x2A1 JUMP JUMPDEST DUP4 SSTORE POP JUMPDEST PUSH1 0x1 PUSH1 0x2 DUP9 MUL ADD DUP9 SSTORE POP POP POP JUMPDEST POP POP POP POP POP POP JUMP JUMPDEST PUSH2 0x1801 DUP1 PUSH2 0x3B4 PUSH0 CODECOPY PUSH0 RETURN INVALID PUSH1 0x80 PUSH1 0x40 MSTORE CALLVALUE DUP1 ISZERO PUSH2 0xF JUMPI PUSH0 DUP1 REVERT JUMPDEST POP PUSH1 0x4 CALLDATASIZE LT PUSH2 0x9C JUMPI PUSH0 CALLDATALOAD PUSH1 0xE0 SHR DUP1 PUSH4 0x5C8FC294 GT PUSH2 0x64 JUMPI DUP1 PUSH4 0x5C8FC294 EQ PUSH2 0x132 JUMPI DUP1 PUSH4 0x87DFDC6E EQ PUSH2 0x150 JUMPI DUP1 PUSH4 0x91082A52 EQ PUSH2 0x186 JUMPI DUP1 PUSH4 0xABA6DACA EQ PUSH2 0x1BC JUMPI DUP1 PUSH4 0xD799B4BC EQ PUSH2 0x1ED JUMPI PUSH2 0x9C JUMP JUMPDEST DUP1 PUSH4 0x6FDDE03 EQ PUSH2 0xA0 JUMPI DUP1 PUSH4 0x10724CA7 EQ PUSH2 0xBE JUMPI DUP1 PUSH4 0x143D49E1 EQ PUSH2 0xDC JUMPI DUP1 PUSH4 0x18DBB522 EQ PUSH2 0xF8 JUMPI DUP1 PUSH4 0x570CA735 EQ PUSH2 0x114 JUMPI JUMPDEST PUSH0 DUP1 REVERT JUMPDEST PUSH2 0xA8 PUSH2 0x21E JUMP JUMPDEST PUSH1 0x40 MLOAD PUSH2 0xB5 SWAP2 SWAP1 PUSH2 0xD6D JUMP JUMPDEST PUSH1 0x40 MLOAD DUP1 SWAP2 SUB SWAP1 RETURN JUMPDEST PUSH2 0xC6 PUSH2 0x2AA JUMP JUMPDEST PUSH1 0x40 MLOAD PUSH2 0xD3 SWAP2 SWAP1 PUSH2 0xE4D JUMP JUMPDEST PUSH1 0x40 MLOAD DUP1 SWAP2 SUB SWAP1 RETURN JUMPDEST PUSH2 0xF6 PUSH1 0x4 DUP1 CALLDATASIZE SUB DUP2 ADD SWAP1 PUSH2 0xF1 SWAP2 SWAP1 PUSH2 0xFAA JUMP JUMPDEST PUSH2 0x354 JUMP JUMPDEST STOP JUMPDEST PUSH2 0x112 PUSH1 0x4 DUP1 CALLDATASIZE SUB DUP2 ADD SWAP1 PUSH2 0x10D SWAP2 SWAP1 PUSH2 0x1078 JUMP JUMPDEST PUSH2 0x4D2 JUMP JUMPDEST STOP JUMPDEST PUSH2 0x11C PUSH2 0x60C JUMP JUMPDEST PUSH1 0x40 MLOAD PUSH2 0x129 SWAP2 SWAP1 PUSH2 0x1111 JUMP JUMPDEST PUSH1 0x40 MLOAD DUP1 SWAP2 SUB SWAP1 RETURN JUMPDEST PUSH2 0x13A PUSH2 0x631 JUMP JUMPDEST PUSH1 0x40 MLOAD PUSH2 0x147 SWAP2 SWAP1 PUSH2 0x1139 JUMP JUMPDEST PUSH1 0x40 MLOAD DUP1 SWAP2 SUB SWAP1 RETURN JUMPDEST PUSH2 0x16A PUSH1 0x4 DUP1 CALLDATASIZE SUB DUP2 ADD SWAP1 PUSH2 0x165 SWAP2 SWAP1 PUSH2 0x1152 JUMP JUMPDEST PUSH2 0x637 JUMP JUMPDEST PUSH1 0x40 MLOAD PUSH2 0x17D SWAP8 SWAP7 SWAP6 SWAP5 SWAP4 SWAP3 SWAP2 SWAP1 PUSH2 0x1197 JUMP JUMPDEST PUSH1 0x40 MLOAD DUP1 SWAP2 SUB SWAP1 RETURN JUMPDEST PUSH2 0x1A0 PUSH1 0x4 DUP1 CALLDATASIZE SUB DUP2 ADD SWAP1 PUSH2 0x19B SWAP2 SWAP1 PUSH2 0x1152 JUMP JUMPDEST PUSH2 0x831 JUMP JUMPDEST PUSH1 0x40 MLOAD PUSH2 0x1B3 SWAP8 SWAP7 SWAP6 SWAP5 SWAP4 SWAP3 SWAP2 SWAP1 PUSH2 0x1197 JUMP JUMPDEST PUSH1 0x40 MLOAD DUP1 SWAP2 SUB SWAP1 RETURN JUMPDEST PUSH2 0x1D6 PUSH1 0x4 DUP1 CALLDATASIZE SUB DUP2 ADD SWAP1 PUSH2 0x1D1 SWAP2 SWAP1 PUSH2 0x1152 JUMP JUMPDEST PUSH2 0xA4F JUMP JUMPDEST PUSH1 0x40 MLOAD PUSH2 0x1E4 SWAP3 SWAP2 SWAP1 PUSH2 0x131C JUMP JUMPDEST PUSH1 0x40 MLOAD DUP1 SWAP2 SUB SWAP1 RETURN JUMPDEST PUSH2 0x207 PUSH1 0x4 DUP1 CALLDATASIZE SUB DUP2 ADD SWAP1 PUSH2 0x202 SWAP2 SWAP1 PUSH2 0x1351 JUMP JUMPDEST PUSH2 0xC3D JUMP JUMPDEST PUSH1 0x40 MLOAD PUSH2 0x215 SWAP3 SWAP2 SWAP1 PUSH2 0x138F JUMP JUMPDEST PUSH1 0x40 MLOAD DUP1 SWAP2 SUB SWAP1 RETURN JUMPDEST PUSH1 0x2 DUP1 SLOAD PUSH2 0x22B SWAP1 PUSH2 0x13EA JUMP JUMPDEST DUP1 PUSH1 0x1F ADD PUSH1 0x20 DUP1 SWAP2 DIV MUL PUSH1 0x20 ADD PUSH1 0x40 MLOAD SWAP1 DUP2 ADD PUSH1 0x40 MSTORE DUP1 SWAP3 SWAP2 SWAP1 DUP2 DUP2 MSTORE PUSH1 0x20 ADD DUP3 DUP1 SLOAD PUSH2 0x257 SWAP1 PUSH2 0x13EA JUMP JUMPDEST DUP1 ISZERO PUSH2 0x2A2 JUMPI DUP1 PUSH1 0x1F LT PUSH2 0x279 JUMPI PUSH2 0x100 DUP1 DUP4 SLOAD DIV MUL DUP4 MSTORE SWAP2 PUSH1 0x20 ADD SWAP2 PUSH2 0x2A2 JUMP JUMPDEST DUP3 ADD SWAP2 SWAP1 PUSH0 MSTORE PUSH1 0x20 PUSH0 KECCAK256 SWAP1 JUMPDEST DUP2 SLOAD DUP2 MSTORE SWAP1 PUSH1 0x1 ADD SWAP1 PUSH1 0x20 ADD DUP1 DUP4 GT PUSH2 0x285 JUMPI DUP3 SWAP1 SUB PUSH1 0x1F AND DUP3 ADD SWAP2 JUMPDEST POP POP POP POP POP DUP2 JUMP JUMPDEST PUSH1 0x60 PUSH0 PUSH1 0x4 SLOAD PUSH8 0xFFFFFFFFFFFFFFFF DUP2 GT ISZERO PUSH2 0x2C9 JUMPI PUSH2 0x2C8 PUSH2 0xE86 JUMP JUMPDEST JUMPDEST PUSH1 0x40 MLOAD SWAP1 DUP1 DUP3 MSTORE DUP1 PUSH1 0x20 MUL PUSH1 0x20 ADD DUP3 ADD PUSH1 0x40 MSTORE DUP1 ISZERO PUSH2 0x2F7 JUMPI DUP2 PUSH1 0x20 ADD PUSH1 0x20 DUP3 MUL DUP1 CALLDATASIZE DUP4 CALLDATACOPY DUP1 DUP3 ADD SWAP2 POP POP SWAP1 POP JUMPDEST POP SWAP1 POP PUSH0 DUP1 PUSH1 0x1 SWAP1 POP JUMPDEST PUSH1 0x4 SLOAD DUP2 GT PUSH2 0x34B JUMPI DUP1 DUP4 DUP4 DUP2 MLOAD DUP2 LT PUSH2 0x31E JUMPI PUSH2 0x31D PUSH2 0x141A JUMP JUMPDEST JUMPDEST PUSH1 0x20 MUL PUSH1 0x20 ADD ADD DUP2 DUP2 MSTORE POP POP DUP2 DUP1 PUSH2 0x335 SWAP1 PUSH2 0x1474 JUMP JUMPDEST SWAP3 POP POP DUP1 DUP1 PUSH2 0x343 SWAP1 PUSH2 0x1474 JUMP JUMPDEST SWAP2 POP POP PUSH2 0x301 JUMP JUMPDEST POP DUP2 SWAP3 POP POP POP SWAP1 JUMP JUMPDEST PUSH1 0x4 PUSH0 DUP2 SLOAD DUP1 SWAP3 SWAP2 SWAP1 PUSH2 0x366 SWAP1 PUSH2 0x1474 JUMP JUMPDEST SWAP2 SWAP1 POP SSTORE POP PUSH1 0x40 MLOAD DUP1 PUSH1 0xE0 ADD PUSH1 0x40 MSTORE DUP1 PUSH1 0x4 SLOAD DUP2 MSTORE PUSH1 0x20 ADD DUP5 DUP2 MSTORE PUSH1 0x20 ADD CALLER PUSH20 0xFFFFFFFFFFFFFFFFFFFFFFFFFFFFFFFFFFFFFFFF AND DUP2 MSTORE PUSH1 0x20 ADD DUP4 DUP2 MSTORE PUSH1 0x20 ADD DUP3 DUP2 MSTORE PUSH1 0x20 ADD PUSH1 0x1 ISZERO ISZERO DUP2 MSTORE PUSH1 0x20 ADD TIMESTAMP DUP2 MSTORE POP PUSH0 DUP1 PUSH1 0x4 SLOAD DUP2 MSTORE PUSH1 0x20 ADD SWAP1 DUP2 MSTORE PUSH1 0x20 ADD PUSH0 KECCAK256 PUSH0 DUP3 ADD MLOAD DUP2 PUSH0 ADD SSTORE PUSH1 0x20 DUP3 ADD MLOAD DUP2 PUSH1 0x1 ADD SWAP1 DUP2 PUSH2 0x3E8 SWAP2 SWAP1 PUSH2 0x1658 JUMP JUMPDEST POP PUSH1 0x40 DUP3 ADD MLOAD DUP2 PUSH1 0x2 ADD PUSH0 PUSH2 0x100 EXP DUP2 SLOAD DUP2 PUSH20 0xFFFFFFFFFFFFFFFFFFFFFFFFFFFFFFFFFFFFFFFF MUL NOT AND SWAP1 DUP4 PUSH20 0xFFFFFFFFFFFFFFFFFFFFFFFFFFFFFFFFFFFFFFFF AND MUL OR SWAP1 SSTORE POP PUSH1 0x60 DUP3 ADD MLOAD DUP2 PUSH1 0x3 ADD SWAP1 DUP2 PUSH2 0x444 SWAP2 SWAP1 PUSH2 0x1658 JUMP JUMPDEST POP PUSH1 0x80 DUP3 ADD MLOAD DUP2 PUSH1 0x4 ADD SWAP1 DUP2 PUSH2 0x45A SWAP2 SWAP1 PUSH2 0x1658 JUMP JUMPDEST POP PUSH1 0xA0 DUP3 ADD MLOAD DUP2 PUSH1 0x5 ADD PUSH0 PUSH2 0x100 EXP DUP2 SLOAD DUP2 PUSH1 0xFF MUL NOT AND SWAP1 DUP4 ISZERO ISZERO MUL OR SWAP1 SSTORE POP PUSH1 0xC0 DUP3 ADD MLOAD DUP2 PUSH1 0x6 ADD SSTORE SWAP1 POP POP PUSH32 0x1A21E2AC04DCA403CE193C10C4D6DE5AB71108EAC24D59F7FE716F38F38FDFB1 PUSH1 0x4 SLOAD DUP5 CALLER DUP6 DUP6 PUSH1 0x1 TIMESTAMP PUSH1 0x40 MLOAD PUSH2 0x4C5 SWAP8 SWAP7 SWAP6 SWAP5 SWAP4 SWAP3 SWAP2 SWAP1 PUSH2 0x1197 JUMP JUMPDEST PUSH1 0x40 MLOAD DUP1 SWAP2 SUB SWAP1 LOG1 POP POP POP JUMP JUMPDEST PUSH1 0x3 PUSH0 SWAP1 SLOAD SWAP1 PUSH2 0x100 EXP SWAP1 DIV PUSH20 0xFFFFFFFFFFFFFFFFFFFFFFFFFFFFFFFFFFFFFFFF AND PUSH20 0xFFFFFFFFFFFFFFFFFFFFFFFFFFFFFFFFFFFFFFFF AND CALLER PUSH20 0xFFFFFFFFFFFFFFFFFFFFFFFFFFFFFFFFFFFFFFFF AND EQ PUSH2 0x561 JUMPI PUSH1 0x40 MLOAD PUSH32 0x8C379A000000000000000000000000000000000000000000000000000000000 DUP2 MSTORE PUSH1 0x4 ADD PUSH2 0x558 SWAP1 PUSH2 0x1771 JUMP JUMPDEST PUSH1 0x40 MLOAD DUP1 SWAP2 SUB SWAP1 REVERT JUMPDEST PUSH1 0x1 PUSH0 DUP4 DUP2 MSTORE PUSH1 0x20 ADD SWAP1 DUP2 MSTORE PUSH1 0x20 ADD PUSH0 KECCAK256 PUSH1 0x40 MLOAD DUP1 PUSH1 0x40 ADD PUSH1 0x40 MSTORE DUP1 DUP4 DUP2 MSTORE PUSH1 0x20 ADD TIMESTAMP DUP2 MSTORE POP SWAP1 DUP1 PUSH1 0x1 DUP2 SLOAD ADD DUP1 DUP3 SSTORE DUP1 SWAP2 POP POP PUSH1 0x1 SWAP1 SUB SWAP1 PUSH0 MSTORE PUSH1 0x20 PUSH0 KECCAK256 SWAP1 PUSH1 0x2 MUL ADD PUSH0 SWAP1 SWAP2 SWAP1 SWAP2 SWAP1 SWAP2 POP PUSH0 DUP3 ADD MLOAD DUP2 PUSH0 ADD SWAP1 DUP2 PUSH2 0x5C0 SWAP2 SWAP1 PUSH2 0x1658 JUMP JUMPDEST POP PUSH1 0x20 DUP3 ADD MLOAD DUP2 PUSH1 0x1 ADD SSTORE POP POP PUSH32 0x813627F6A8C0AB402F69A15ADDBFC6717F12E01D249BA9A5D234DF032FADD9BC DUP3 DUP3 TIMESTAMP PUSH1 0x40 MLOAD PUSH2 0x600 SWAP4 SWAP3 SWAP2 SWAP1 PUSH2 0x178F JUMP JUMPDEST PUSH1 0x40 MLOAD DUP1 SWAP2 SUB SWAP1 LOG1 POP POP JUMP JUMPDEST PUSH1 0x3 PUSH0 SWAP1 SLOAD SWAP1 PUSH2 0x100 EXP SWAP1 DIV PUSH20 0xFFFFFFFFFFFFFFFFFFFFFFFFFFFFFFFFFFFFFFFF AND DUP2 JUMP JUMPDEST PUSH1 0x4 SLOAD DUP2 JUMP JUMPDEST PUSH0 PUSH1 0x20 MSTORE DUP1 PUSH0 MSTORE PUSH1 0x40 PUSH0 KECCAK256 PUSH0 SWAP2 POP SWAP1 POP DUP1 PUSH0 ADD SLOAD SWAP1 DUP1 PUSH1 0x1 ADD DUP1 SLOAD PUSH2 0x65B SWAP1 PUSH2 0x13EA JUMP JUMPDEST DUP1 PUSH1 0x1F ADD PUSH1 0x20 DUP1 SWAP2 DIV MUL PUSH1 0x20 ADD PUSH1 0x40 MLOAD SWAP1 DUP2 ADD PUSH1 0x40 MSTORE DUP1 SWAP3 SWAP2 SWAP1 DUP2 DUP2 MSTORE PUSH1 0x20 ADD DUP3 DUP1 SLOAD PUSH2 0x687 SWAP1 PUSH2 0x13EA JUMP JUMPDEST DUP1 ISZERO PUSH2 0x6D2 JUMPI DUP1 PUSH1 0x1F LT PUSH2 0x6A9 JUMPI PUSH2 0x100 DUP1 DUP4 SLOAD DIV MUL DUP4 MSTORE SWAP2 PUSH1 0x20 ADD SWAP2 PUSH2 0x6D2 JUMP JUMPDEST DUP3 ADD SWAP2 SWAP1 PUSH0 MSTORE PUSH1 0x20 PUSH0 KECCAK256 SWAP1 JUMPDEST DUP2 SLOAD DUP2 MSTORE SWAP1 PUSH1 0x1 ADD SWAP1 PUSH1 0x20 ADD DUP1 DUP4 GT PUSH2 0x6B5 JUMPI DUP3 SWAP1 SUB PUSH1 0x1F AND DUP3 ADD SWAP2 JUMPDEST POP POP POP POP POP SWAP1 DUP1 PUSH1 0x2 ADD PUSH0 SWAP1 SLOAD SWAP1 PUSH2 0x100 EXP SWAP1 DIV PUSH20 0xFFFFFFFFFFFFFFFFFFFFFFFFFFFFFFFFFFFFFFFF AND SWAP1 DUP1 PUSH1 0x3 ADD DUP1 SLOAD PUSH2 0x70C SWAP1 PUSH2 0x13EA JUMP JUMPDEST DUP1 PUSH1 0x1F ADD PUSH1 0x20 DUP1 SWAP2 DIV MUL PUSH1 0x20 ADD PUSH1 0x40 MLOAD SWAP1 DUP2 ADD PUSH1 0x40 MSTORE DUP1 SWAP3 SWAP2 SWAP1 DUP2 DUP2 MSTORE PUSH1 0x20 ADD DUP3 DUP1 SLOAD PUSH2 0x738 SWAP1 PUSH2 0x13EA JUMP JUMPDEST DUP1 ISZERO PUSH2 0x783 JUMPI DUP1 PUSH1 0x1F LT PUSH2 0x75A JUMPI PUSH2 0x100 DUP1 DUP4 SLOAD DIV MUL DUP4 MSTORE SWAP2 PUSH1 0x20 ADD SWAP2 PUSH2 0x783 JUMP JUMPDEST DUP3 ADD SWAP2 SWAP1 PUSH0 MSTORE PUSH1 0x20 PUSH0 KECCAK256 SWAP1 JUMPDEST DUP2 SLOAD DUP2 MSTORE SWAP1 PUSH1 0x1 ADD SWAP1 PUSH1 0x20 ADD DUP1 DUP4 GT PUSH2 0x766 JUMPI DUP3 SWAP1 SUB PUSH1 0x1F AND DUP3 ADD SWAP2 JUMPDEST POP POP POP POP POP SWAP1 DUP1 PUSH1 0x4 ADD DUP1 SLOAD PUSH2 0x798 SWAP1 PUSH2 0x13EA JUMP JUMPDEST DUP1 PUSH1 0x1F ADD PUSH1 0x20 DUP1 SWAP2 DIV MUL PUSH1 0x20 ADD PUSH1 0x40 MLOAD SWAP1 DUP2 ADD PUSH1 0x40 MSTORE DUP1 SWAP3 SWAP2 SWAP1 DUP2 DUP2 MSTORE PUSH1 0x20 ADD DUP3 DUP1 SLOAD PUSH2 0x7C4 SWAP1 PUSH2 0x13EA JUMP JUMPDEST DUP1 ISZERO PUSH2 0x80F JUMPI DUP1 PUSH1 0x1F LT PUSH2 0x7E6 JUMPI PUSH2 0x100 DUP1 DUP4 SLOAD DIV MUL DUP4 MSTORE SWAP2 PUSH1 0x20 ADD SWAP2 PUSH2 0x80F JUMP JUMPDEST DUP3 ADD SWAP2 SWAP1 PUSH0 MSTORE PUSH1 0x20 PUSH0 KECCAK256 SWAP1 JUMPDEST DUP2 SLOAD DUP2 MSTORE SWAP1 PUSH1 0x1 ADD SWAP1 PUSH1 0x20 ADD DUP1 DUP4 GT PUSH2 0x7F2 JUMPI DUP3 SWAP1 SUB PUSH1 0x1F AND DUP3 ADD SWAP2 JUMPDEST POP POP POP POP POP SWAP1 DUP1 PUSH1 0x5 ADD PUSH0 SWAP1 SLOAD SWAP1 PUSH2 0x100 EXP SWAP1 DIV PUSH1 0xFF AND SWAP1 DUP1 PUSH1 0x6 ADD SLOAD SWAP1 POP DUP8 JUMP JUMPDEST PUSH0 PUSH1 0x60 PUSH0 PUSH1 0x60 DUP1 PUSH0 DUP1 PUSH0 DUP1 PUSH0 DUP11 DUP2 MSTORE PUSH1 0x20 ADD SWAP1 DUP2 MSTORE PUSH1 0x20 ADD PUSH0 KECCAK256 SWAP1 POP DUP1 PUSH0 ADD SLOAD DUP2 PUSH1 0x1 ADD DUP3 PUSH1 0x2 ADD PUSH0 SWAP1 SLOAD SWAP1 PUSH2 0x100 EXP SWAP1 DIV PUSH20 0xFFFFFFFFFFFFFFFFFFFFFFFFFFFFFFFFFFFFFFFF AND DUP4 PUSH1 0x3 ADD DUP5 PUSH1 0x4 ADD DUP6 PUSH1 0x5 ADD PUSH0 SWAP1 SLOAD SWAP1 PUSH2 0x100 EXP SWAP1 DIV PUSH1 0xFF AND DUP7 PUSH1 0x6 ADD SLOAD DUP6 DUP1 SLOAD PUSH2 0x8A3 SWAP1 PUSH2 0x13EA JUMP JUMPDEST DUP1 PUSH1 0x1F ADD PUSH1 0x20 DUP1 SWAP2 DIV MUL PUSH1 0x20 ADD PUSH1 0x40 MLOAD SWAP1 DUP2 ADD PUSH1 0x40 MSTORE DUP1 SWAP3 SWAP2 SWAP1 DUP2 DUP2 MSTORE PUSH1 0x20 ADD DUP3 DUP1 SLOAD PUSH2 0x8CF SWAP1 PUSH2 0x13EA JUMP JUMPDEST DUP1 ISZERO PUSH2 0x91A JUMPI DUP1 PUSH1 0x1F LT PUSH2 0x8F1 JUMPI PUSH2 0x100 DUP1 DUP4 SLOAD DIV MUL DUP4 MSTORE SWAP2 PUSH1 0x20 ADD SWAP2 PUSH2 0x91A JUMP JUMPDEST DUP3 ADD SWAP2 SWAP1 PUSH0 MSTORE PUSH1 0x20 PUSH0 KECCAK256 SWAP1 JUMPDEST DUP2 SLOAD DUP2 MSTORE SWAP1 PUSH1 0x1 ADD SWAP1 PUSH1 0x20 ADD DUP1 DUP4 GT PUSH2 0x8FD JUMPI DUP3 SWAP1 SUB PUSH1 0x1F AND DUP3 ADD SWAP2 JUMPDEST POP POP POP POP POP SWAP6 POP DUP4 DUP1 SLOAD PUSH2 0x92D SWAP1 PUSH2 0x13EA JUMP JUMPDEST DUP1 PUSH1 0x1F ADD PUSH1 0x20 DUP1 SWAP2 DIV MUL PUSH1 0x20 ADD PUSH1 0x40 MLOAD SWAP1 DUP2 ADD PUSH1 0x40 MSTORE DUP1 SWAP3 SWAP2 SWAP1 DUP2 DUP2 MSTORE PUSH1 0x20 ADD DUP3 DUP1 SLOAD PUSH2 0x959 SWAP1 PUSH2 0x13EA JUMP JUMPDEST DUP1 ISZERO PUSH2 0x9A4 JUMPI DUP1 PUSH1 0x1F LT PUSH2 0x97B JUMPI PUSH2 0x100 DUP1 DUP4 SLOAD DIV MUL DUP4 MSTORE SWAP2 PUSH1 0x20 ADD SWAP2 PUSH2 0x9A4 JUMP JUMPDEST DUP3 ADD SWAP2 SWAP1 PUSH0 MSTORE PUSH1 0x20 PUSH0 KECCAK256 SWAP1 JUMPDEST DUP2 SLOAD DUP2 MSTORE SWAP1 PUSH1 0x1 ADD SWAP1 PUSH1 0x20 ADD DUP1 DUP4 GT PUSH2 0x987 JUMPI DUP3 SWAP1 SUB PUSH1 0x1F AND DUP3 ADD SWAP2 JUMPDEST POP POP POP POP POP SWAP4 POP DUP3 DUP1 SLOAD PUSH2 0x9B7 SWAP1 PUSH2 0x13EA JUMP JUMPDEST DUP1 PUSH1 0x1F ADD PUSH1 0x20 DUP1 SWAP2 DIV MUL PUSH1 0x20 ADD PUSH1 0x40 MLOAD SWAP1 DUP2 ADD PUSH1 0x40 MSTORE DUP1 SWAP3 SWAP2 SWAP1 DUP2 DUP2 MSTORE PUSH1 0x20 ADD DUP3 DUP1 SLOAD PUSH2 0x9E3 SWAP1 PUSH2 0x13EA JUMP JUMPDEST DUP1 ISZERO PUSH2 0xA2E JUMPI DUP1 PUSH1 0x1F LT PUSH2 0xA05 JUMPI PUSH2 0x100 DUP1 DUP4 SLOAD DIV MUL DUP4 MSTORE SWAP2 PUSH1 0x20 ADD SWAP2 PUSH2 0xA2E JUMP JUMPDEST DUP3 ADD SWAP2 SWAP1 PUSH0 MSTORE PUSH1 0x20 PUSH0 KECCAK256 SWAP1 JUMPDEST DUP2 SLOAD DUP2 MSTORE SWAP1 PUSH1 0x1 ADD SWAP1 PUSH1 0x20 ADD DUP1 DUP4 GT PUSH2 0xA11 JUMPI DUP3 SWAP1 SUB PUSH1 0x1F AND DUP3 ADD SWAP2 JUMPDEST POP POP POP POP POP SWAP3 POP SWAP8 POP SWAP8 POP SWAP8 POP SWAP8 POP SWAP8 POP SWAP8 POP SWAP8 POP POP SWAP2 SWAP4 SWAP6 SWAP8 SWAP1 SWAP3 SWAP5 SWAP7 POP JUMP JUMPDEST PUSH1 0x60 DUP1 PUSH0 PUSH1 0x1 PUSH0 DUP6 DUP2 MSTORE PUSH1 0x20 ADD SWAP1 DUP2 MSTORE PUSH1 0x20 ADD PUSH0 KECCAK256 SWAP1 POP PUSH0 DUP2 DUP1 SLOAD SWAP1 POP PUSH8 0xFFFFFFFFFFFFFFFF DUP2 GT ISZERO PUSH2 0xA85 JUMPI PUSH2 0xA84 PUSH2 0xE86 JUMP JUMPDEST JUMPDEST PUSH1 0x40 MLOAD SWAP1 DUP1 DUP3 MSTORE DUP1 PUSH1 0x20 MUL PUSH1 0x20 ADD DUP3 ADD PUSH1 0x40 MSTORE DUP1 ISZERO PUSH2 0xAB8 JUMPI DUP2 PUSH1 0x20 ADD JUMPDEST PUSH1 0x60 DUP2 MSTORE PUSH1 0x20 ADD SWAP1 PUSH1 0x1 SWAP1 SUB SWAP1 DUP2 PUSH2 0xAA3 JUMPI SWAP1 POP JUMPDEST POP SWAP1 POP PUSH0 DUP3 DUP1 SLOAD SWAP1 POP PUSH8 0xFFFFFFFFFFFFFFFF DUP2 GT ISZERO PUSH2 0xADA JUMPI PUSH2 0xAD9 PUSH2 0xE86 JUMP JUMPDEST JUMPDEST PUSH1 0x40 MLOAD SWAP1 DUP1 DUP3 MSTORE DUP1 PUSH1 0x20 MUL PUSH1 0x20 ADD DUP3 ADD PUSH1 0x40 MSTORE DUP1 ISZERO PUSH2 0xB08 JUMPI DUP2 PUSH1 0x20 ADD PUSH1 0x20 DUP3 MUL DUP1 CALLDATASIZE DUP4 CALLDATACOPY DUP1 DUP3 ADD SWAP2 POP POP SWAP1 POP JUMPDEST POP SWAP1 POP PUSH0 JUMPDEST DUP4 DUP1 SLOAD SWAP1 POP DUP2 LT ISZERO PUSH2 0xC2E JUMPI DUP4 DUP2 DUP2 SLOAD DUP2 LT PUSH2 0xB2C JUMPI PUSH2 0xB2B PUSH2 0x141A JUMP JUMPDEST JUMPDEST SWAP1 PUSH0 MSTORE PUSH1 0x20 PUSH0 KECCAK256 SWAP1 PUSH1 0x2 MUL ADD PUSH0 ADD DUP1 SLOAD PUSH2 0xB45 SWAP1 PUSH2 0x13EA JUMP JUMPDEST DUP1 PUSH1 0x1F ADD PUSH1 0x20 DUP1 SWAP2 DIV MUL PUSH1 0x20 ADD PUSH1 0x40 MLOAD SWAP1 DUP2 ADD PUSH1 0x40 MSTORE DUP1 SWAP3 SWAP2 SWAP1 DUP2 DUP2 MSTORE PUSH1 0x20 ADD DUP3 DUP1 SLOAD PUSH2 0xB71 SWAP1 PUSH2 0x13EA JUMP JUMPDEST DUP1 ISZERO PUSH2 0xBBC JUMPI DUP1 PUSH1 0x1F LT PUSH2 0xB93 JUMPI PUSH2 0x100 DUP1 DUP4 SLOAD DIV MUL DUP4 MSTORE SWAP2 PUSH1 0x20 ADD SWAP2 PUSH2 0xBBC JUMP JUMPDEST DUP3 ADD SWAP2 SWAP1 PUSH0 MSTORE PUSH1 0x20 PUSH0 KECCAK256 SWAP1 JUMPDEST DUP2 SLOAD DUP2 MSTORE SWAP1 PUSH1 0x1 ADD SWAP1 PUSH1 0x20 ADD DUP1 DUP4 GT PUSH2 0xB9F JUMPI DUP3 SWAP1 SUB PUSH1 0x1F AND DUP3 ADD SWAP2 JUMPDEST POP POP POP POP POP DUP4 DUP3 DUP2 MLOAD DUP2 LT PUSH2 0xBD4 JUMPI PUSH2 0xBD3 PUSH2 0x141A JUMP JUMPDEST JUMPDEST PUSH1 0x20 MUL PUSH1 0x20 ADD ADD DUP2 SWAP1 MSTORE POP DUP4 DUP2 DUP2 SLOAD DUP2 LT PUSH2 0xBF2 JUMPI PUSH2 0xBF1 PUSH2 0x141A JUMP JUMPDEST JUMPDEST SWAP1 PUSH0 MSTORE PUSH1 0x20 PUSH0 KECCAK256 SWAP1 PUSH1 0x2 MUL ADD PUSH1 0x1 ADD SLOAD DUP3 DUP3 DUP2 MLOAD DUP2 LT PUSH2 0xC15 JUMPI PUSH2 0xC14 PUSH2 0x141A JUMP JUMPDEST JUMPDEST PUSH1 0x20 MUL PUSH1 0x20 ADD ADD DUP2 DUP2 MSTORE POP POP DUP1 DUP1 PUSH1 0x1 ADD SWAP2 POP POP PUSH2 0xB0D JUMP JUMPDEST POP DUP2 DUP2 SWAP5 POP SWAP5 POP POP POP POP SWAP2 POP SWAP2 JUMP JUMPDEST PUSH1 0x1 PUSH1 0x20 MSTORE DUP2 PUSH0 MSTORE PUSH1 0x40 PUSH0 KECCAK256 DUP2 DUP2 SLOAD DUP2 LT PUSH2 0xC56 JUMPI PUSH0 DUP1 REVERT JUMPDEST SWAP1 PUSH0 MSTORE PUSH1 0x20 PUSH0 KECCAK256 SWAP1 PUSH1 0x2 MUL ADD PUSH0 SWAP2 POP SWAP2 POP POP DUP1 PUSH0 ADD DUP1 SLOAD PUSH2 0xC76 SWAP1 PUSH2 0x13EA JUMP JUMPDEST DUP1 PUSH1 0x1F ADD PUSH1 0x20 DUP1 SWAP2 DIV MUL PUSH1 0x20 ADD PUSH1 0x40 MLOAD SWAP1 DUP2 ADD PUSH1 0x40 MSTORE DUP1 SWAP3 SWAP2 SWAP1 DUP2 DUP2 MSTORE PUSH1 0x20 ADD DUP3 DUP1 SLOAD PUSH2 0xCA2 SWAP1 PUSH2 0x13EA JUMP JUMPDEST DUP1 ISZERO PUSH2 0xCED JUMPI DUP1 PUSH1 0x1F LT PUSH2 0xCC4 JUMPI PUSH2 0x100 DUP1 DUP4 SLOAD DIV MUL DUP4 MSTORE SWAP2 PUSH1 0x20 ADD SWAP2 PUSH2 0xCED JUMP JUMPDEST DUP3 ADD SWAP2 SWAP1 PUSH0 MSTORE PUSH1 0x20 PUSH0 KECCAK256 SWAP1 JUMPDEST DUP2 SLOAD DUP2 MSTORE SWAP1 PUSH1 0x1 ADD SWAP1 PUSH1 0x20 ADD DUP1 DUP4 GT PUSH2 0xCD0 JUMPI DUP3 SWAP1 SUB PUSH1 0x1F AND DUP3 ADD SWAP2 JUMPDEST POP POP POP POP POP SWAP1 DUP1 PUSH1 0x1 ADD SLOAD SWAP1 POP DUP3 JUMP JUMPDEST PUSH0 DUP2 MLOAD SWAP1 POP SWAP2 SWAP1 POP JUMP JUMPDEST PUSH0 DUP3 DUP3 MSTORE PUSH1 0x20 DUP3 ADD SWAP1 POP SWAP3 SWAP2 POP POP JUMP JUMPDEST DUP3 DUP2 DUP4 MCOPY PUSH0 DUP4 DUP4 ADD MSTORE POP POP POP JUMP JUMPDEST PUSH0 PUSH1 0x1F NOT PUSH1 0x1F DUP4 ADD AND SWAP1 POP SWAP2 SWAP1 POP JUMP JUMPDEST PUSH0 PUSH2 0xD3F DUP3 PUSH2 0xCFD JUMP JUMPDEST PUSH2 0xD49 DUP2 DUP6 PUSH2 0xD07 JUMP JUMPDEST SWAP4 POP PUSH2 0xD59 DUP2 DUP6 PUSH1 0x20 DUP7 ADD PUSH2 0xD17 JUMP JUMPDEST PUSH2 0xD62 DUP2 PUSH2 0xD25 JUMP JUMPDEST DUP5 ADD SWAP2 POP POP SWAP3 SWAP2 POP POP JUMP JUMPDEST PUSH0 PUSH1 0x20 DUP3 ADD SWAP1 POP DUP2 DUP2 SUB PUSH0 DUP4 ADD MSTORE PUSH2 0xD85 DUP2 DUP5 PUSH2 0xD35 JUMP JUMPDEST SWAP1 POP SWAP3 SWAP2 POP POP JUMP JUMPDEST PUSH0 DUP2 MLOAD SWAP1 POP SWAP2 SWAP1 POP JUMP JUMPDEST PUSH0 DUP3 DUP3 MSTORE PUSH1 0x20 DUP3 ADD SWAP1 POP SWAP3 SWAP2 POP POP JUMP JUMPDEST PUSH0 DUP2 SWAP1 POP PUSH1 0x20 DUP3 ADD SWAP1 POP SWAP2 SWAP1 POP JUMP JUMPDEST PUSH0 DUP2 SWAP1 POP SWAP2 SWAP1 POP JUMP JUMPDEST PUSH2 0xDC8 DUP2 PUSH2 0xDB6 JUMP JUMPDEST DUP3 MSTORE POP POP JUMP JUMPDEST PUSH0 PUSH2 0xDD9 DUP4 DUP4 PUSH2 0xDBF JUMP JUMPDEST PUSH1 0x20 DUP4 ADD SWAP1 POP SWAP3 SWAP2 POP POP JUMP JUMPDEST PUSH0 PUSH1 0x20 DUP3 ADD SWAP1 POP SWAP2 SWAP1 POP JUMP JUMPDEST PUSH0 PUSH2 0xDFB DUP3 PUSH2 0xD8D JUMP JUMPDEST PUSH2 0xE05 DUP2 DUP6 PUSH2 0xD97 JUMP JUMPDEST SWAP4 POP PUSH2 0xE10 DUP4 PUSH2 0xDA7 JUMP JUMPDEST DUP1 PUSH0 JUMPDEST DUP4 DUP2 LT ISZERO PUSH2 0xE40 JUMPI DUP2 MLOAD PUSH2 0xE27 DUP9 DUP3 PUSH2 0xDCE JUMP JUMPDEST SWAP8 POP PUSH2 0xE32 DUP4 PUSH2 0xDE5 JUMP JUMPDEST SWAP3 POP POP PUSH1 0x1 DUP2 ADD SWAP1 POP PUSH2 0xE13 JUMP JUMPDEST POP DUP6 SWAP4 POP POP POP POP SWAP3 SWAP2 POP POP JUMP JUMPDEST PUSH0 PUSH1 0x20 DUP3 ADD SWAP1 POP DUP2 DUP2 SUB PUSH0 DUP4 ADD MSTORE PUSH2 0xE65 DUP2 DUP5 PUSH2 0xDF1 JUMP JUMPDEST SWAP1 POP SWAP3 SWAP2 POP POP JUMP JUMPDEST PUSH0 PUSH1 0x40 MLOAD SWAP1 POP SWAP1 JUMP JUMPDEST PUSH0 DUP1 REVERT JUMPDEST PUSH0 DUP1 REVERT JUMPDEST PUSH0 DUP1 REVERT JUMPDEST PUSH0 DUP1 REVERT JUMPDEST PUSH32 0x4E487B7100000000000000000000000000000000000000000000000000000000 PUSH0 MSTORE PUSH1 0x41 PUSH1 0x4 MSTORE PUSH1 0x24 PUSH0 REVERT JUMPDEST PUSH2 0xEBC DUP3 PUSH2 0xD25 JUMP JUMPDEST DUP2 ADD DUP2 DUP2 LT PUSH8 0xFFFFFFFFFFFFFFFF DUP3 GT OR ISZERO PUSH2 0xEDB JUMPI PUSH2 0xEDA PUSH2 0xE86 JUMP JUMPDEST JUMPDEST DUP1 PUSH1 0x40 MSTORE POP POP POP JUMP JUMPDEST PUSH0 PUSH2 0xEED PUSH2 0xE6D JUMP JUMPDEST SWAP1 POP PUSH2 0xEF9 DUP3 DUP3 PUSH2 0xEB3 JUMP JUMPDEST SWAP2 SWAP1 POP JUMP JUMPDEST PUSH0 PUSH8 0xFFFFFFFFFFFFFFFF DUP3 GT ISZERO PUSH2 0xF18 JUMPI PUSH2 0xF17 PUSH2 0xE86 JUMP JUMPDEST JUMPDEST PUSH2 0xF21 DUP3 PUSH2 0xD25 JUMP JUMPDEST SWAP1 POP PUSH1 0x20 DUP2 ADD SWAP1 POP SWAP2 SWAP1 POP JUMP JUMPDEST DUP3 DUP2 DUP4 CALLDATACOPY PUSH0 DUP4 DUP4 ADD MSTORE POP POP POP JUMP JUMPDEST PUSH0 PUSH2 0xF4E PUSH2 0xF49 DUP5 PUSH2 0xEFE JUMP JUMPDEST PUSH2 0xEE4 JUMP JUMPDEST SWAP1 POP DUP3 DUP2 MSTORE PUSH1 0x20 DUP2 ADD DUP5 DUP5 DUP5 ADD GT ISZERO PUSH2 0xF6A JUMPI PUSH2 0xF69 PUSH2 0xE82 JUMP JUMPDEST JUMPDEST PUSH2 0xF75 DUP5 DUP3 DUP6 PUSH2 0xF2E JUMP JUMPDEST POP SWAP4 SWAP3 POP POP POP JUMP JUMPDEST PUSH0 DUP3 PUSH1 0x1F DUP4 ADD SLT PUSH2 0xF91 JUMPI PUSH2 0xF90 PUSH2 0xE7E JUMP JUMPDEST JUMPDEST DUP2 CALLDATALOAD PUSH2 0xFA1 DUP5 DUP3 PUSH1 0x20 DUP7 ADD PUSH2 0xF3C JUMP JUMPDEST SWAP2 POP POP SWAP3 SWAP2 POP POP JUMP JUMPDEST PUSH0 DUP1 PUSH0 PUSH1 0x60 DUP5 DUP7 SUB SLT ISZERO PUSH2 0xFC1 JUMPI PUSH2 0xFC0 PUSH2 0xE76 JUMP JUMPDEST JUMPDEST PUSH0 DUP5 ADD CALLDATALOAD PUSH8 0xFFFFFFFFFFFFFFFF DUP2 GT ISZERO PUSH2 0xFDE JUMPI PUSH2 0xFDD PUSH2 0xE7A JUMP JUMPDEST JUMPDEST PUSH2 0xFEA DUP7 DUP3 DUP8 ADD PUSH2 0xF7D JUMP JUMPDEST SWAP4 POP POP PUSH1 0x20 DUP5 ADD CALLDATALOAD PUSH8 0xFFFFFFFFFFFFFFFF DUP2 GT ISZERO PUSH2 0x100B JUMPI PUSH2 0x100A PUSH2 0xE7A JUMP JUMPDEST JUMPDEST PUSH2 0x1017 DUP7 DUP3 DUP8 ADD PUSH2 0xF7D JUMP JUMPDEST SWAP3 POP POP PUSH1 0x40 DUP5 ADD CALLDATALOAD PUSH8 0xFFFFFFFFFFFFFFFF DUP2 GT ISZERO PUSH2 0x1038 JUMPI PUSH2 0x1037 PUSH2 0xE7A JUMP JUMPDEST JUMPDEST PUSH2 0x1044 DUP7 DUP3 DUP8 ADD PUSH2 0xF7D JUMP JUMPDEST SWAP2 POP POP SWAP3 POP SWAP3 POP SWAP3 JUMP JUMPDEST PUSH2 0x1057 DUP2 PUSH2 0xDB6 JUMP JUMPDEST DUP2 EQ PUSH2 0x1061 JUMPI PUSH0 DUP1 REVERT JUMPDEST POP JUMP JUMPDEST PUSH0 DUP2 CALLDATALOAD SWAP1 POP PUSH2 0x1072 DUP2 PUSH2 0x104E JUMP JUMPDEST SWAP3 SWAP2 POP POP JUMP JUMPDEST PUSH0 DUP1 PUSH1 0x40 DUP4 DUP6 SUB SLT ISZERO PUSH2 0x108E JUMPI PUSH2 0x108D PUSH2 0xE76 JUMP JUMPDEST JUMPDEST PUSH0 PUSH2 0x109B DUP6 DUP3 DUP7 ADD PUSH2 0x1064 JUMP JUMPDEST SWAP3 POP POP PUSH1 0x20 DUP4 ADD CALLDATALOAD PUSH8 0xFFFFFFFFFFFFFFFF DUP2 GT ISZERO PUSH2 0x10BC JUMPI PUSH2 0x10BB PUSH2 0xE7A JUMP JUMPDEST JUMPDEST PUSH2 0x10C8 DUP6 DUP3 DUP7 ADD PUSH2 0xF7D JUMP JUMPDEST SWAP2 POP POP SWAP3 POP SWAP3 SWAP1 POP JUMP JUMPDEST PUSH0 PUSH20 0xFFFFFFFFFFFFFFFFFFFFFFFFFFFFFFFFFFFFFFFF DUP3 AND SWAP1 POP SWAP2 SWAP1 POP JUMP JUMPDEST PUSH0 PUSH2 0x10FB DUP3 PUSH2 0x10D2 JUMP JUMPDEST SWAP1 POP SWAP2 SWAP1 POP JUMP JUMPDEST PUSH2 0x110B DUP2 PUSH2 0x10F1 JUMP JUMPDEST DUP3 MSTORE POP POP JUMP JUMPDEST PUSH0 PUSH1 0x20 DUP3 ADD SWAP1 POP PUSH2 0x1124 PUSH0 DUP4 ADD DUP5 PUSH2 0x1102 JUMP JUMPDEST SWAP3 SWAP2 POP POP JUMP JUMPDEST PUSH2 0x1133 DUP2 PUSH2 0xDB6 JUMP JUMPDEST DUP3 MSTORE POP POP JUMP JUMPDEST PUSH0 PUSH1 0x20 DUP3 ADD SWAP1 POP PUSH2 0x114C PUSH0 DUP4 ADD DUP5 PUSH2 0x112A JUMP JUMPDEST SWAP3 SWAP2 POP POP JUMP JUMPDEST PUSH0 PUSH1 0x20 DUP3 DUP5 SUB SLT ISZERO PUSH2 0x1167 JUMPI PUSH2 0x1166 PUSH2 0xE76 JUMP JUMPDEST JUMPDEST PUSH0 PUSH2 0x1174 DUP5 DUP3 DUP6 ADD PUSH2 0x1064 JUMP JUMPDEST SWAP2 POP POP SWAP3 SWAP2 POP POP JUMP JUMPDEST PUSH0 DUP2 ISZERO ISZERO SWAP1 POP SWAP2 SWAP1 POP JUMP JUMPDEST PUSH2 0x1191 DUP2 PUSH2 0x117D JUMP JUMPDEST DUP3 MSTORE POP POP JUMP JUMPDEST PUSH0 PUSH1 0xE0 DUP3 ADD SWAP1 POP PUSH2 0x11AA PUSH0 DUP4 ADD DUP11 PUSH2 0x112A JUMP JUMPDEST DUP2 DUP2 SUB PUSH1 0x20 DUP4 ADD MSTORE PUSH2 0x11BC DUP2 DUP10 PUSH2 0xD35 JUMP JUMPDEST SWAP1 POP PUSH2 0x11CB PUSH1 0x40 DUP4 ADD DUP9 PUSH2 0x1102 JUMP JUMPDEST DUP2 DUP2 SUB PUSH1 0x60 DUP4 ADD MSTORE PUSH2 0x11DD DUP2 DUP8 PUSH2 0xD35 JUMP JUMPDEST SWAP1 POP DUP2 DUP2 SUB PUSH1 0x80 DUP4 ADD MSTORE PUSH2 0x11F1 DUP2 DUP7 PUSH2 0xD35 JUMP JUMPDEST SWAP1 POP PUSH2 0x1200 PUSH1 0xA0 DUP4 ADD DUP6 PUSH2 0x1188 JUMP JUMPDEST PUSH2 0x120D PUSH1 0xC0 DUP4 ADD DUP5 PUSH2 0x112A JUMP JUMPDEST SWAP9 SWAP8 POP POP POP POP POP POP POP POP JUMP JUMPDEST PUSH0 DUP2 MLOAD SWAP1 POP SWAP2 SWAP1 POP JUMP JUMPDEST PUSH0 DUP3 DUP3 MSTORE PUSH1 0x20 DUP3 ADD SWAP1 POP SWAP3 SWAP2 POP POP JUMP JUMPDEST PUSH0 DUP2 SWAP1 POP PUSH1 0x20 DUP3 ADD SWAP1 POP SWAP2 SWAP1 POP JUMP JUMPDEST PUSH0 DUP3 DUP3 MSTORE PUSH1 0x20 DUP3 ADD SWAP1 POP SWAP3 SWAP2 POP POP JUMP JUMPDEST PUSH0 PUSH2 0x125C DUP3 PUSH2 0xCFD JUMP JUMPDEST PUSH2 0x1266 DUP2 DUP6 PUSH2 0x1242 JUMP JUMPDEST SWAP4 POP PUSH2 0x1276 DUP2 DUP6 PUSH1 0x20 DUP7 ADD PUSH2 0xD17 JUMP JUMPDEST PUSH2 0x127F DUP2 PUSH2 0xD25 JUMP JUMPDEST DUP5 ADD SWAP2 POP POP SWAP3 SWAP2 POP POP JUMP JUMPDEST PUSH0 PUSH2 0x1295 DUP4 DUP4 PUSH2 0x1252 JUMP JUMPDEST SWAP1 POP SWAP3 SWAP2 POP POP JUMP JUMPDEST PUSH0 PUSH1 0x20 DUP3 ADD SWAP1 POP SWAP2 SWAP1 POP JUMP JUMPDEST PUSH0 PUSH2 0x12B3 DUP3 PUSH2 0x1219 JUMP JUMPDEST PUSH2 0x12BD DUP2 DUP6 PUSH2 0x1223 JUMP JUMPDEST SWAP4 POP DUP4 PUSH1 0x20 DUP3 MUL DUP6 ADD PUSH2 0x12CF DUP6 PUSH2 0x1233 JUMP JUMPDEST DUP1 PUSH0 JUMPDEST DUP6 DUP2 LT ISZERO PUSH2 0x130A JUMPI DUP5 DUP5 SUB DUP10 MSTORE DUP2 MLOAD PUSH2 0x12EB DUP6 DUP3 PUSH2 0x128A JUMP JUMPDEST SWAP5 POP PUSH2 0x12F6 DUP4 PUSH2 0x129D JUMP JUMPDEST SWAP3 POP PUSH1 0x20 DUP11 ADD SWAP10 POP POP PUSH1 0x1 DUP2 ADD SWAP1 POP PUSH2 0x12D2 JUMP JUMPDEST POP DUP3 SWAP8 POP DUP8 SWAP6 POP POP POP POP POP POP SWAP3 SWAP2 POP POP JUMP JUMPDEST PUSH0 PUSH1 0x40 DUP3 ADD SWAP1 POP DUP2 DUP2 SUB PUSH0 DUP4 ADD MSTORE PUSH2 0x1334 DUP2 DUP6 PUSH2 0x12A9 JUMP JUMPDEST SWAP1 POP DUP2 DUP2 SUB PUSH1 0x20 DUP4 ADD MSTORE PUSH2 0x1348 DUP2 DUP5 PUSH2 0xDF1 JUMP JUMPDEST SWAP1 POP SWAP4 SWAP3 POP POP POP JUMP JUMPDEST PUSH0 DUP1 PUSH1 0x40 DUP4 DUP6 SUB SLT ISZERO PUSH2 0x1367 JUMPI PUSH2 0x1366 PUSH2 0xE76 JUMP JUMPDEST JUMPDEST PUSH0 PUSH2 0x1374 DUP6 DUP3 DUP7 ADD PUSH2 0x1064 JUMP JUMPDEST SWAP3 POP POP PUSH1 0x20 PUSH2 0x1385 DUP6 DUP3 DUP7 ADD PUSH2 0x1064 JUMP JUMPDEST SWAP2 POP POP SWAP3 POP SWAP3 SWAP1 POP JUMP JUMPDEST PUSH0 PUSH1 0x40 DUP3 ADD SWAP1 POP DUP2 DUP2 SUB PUSH0 DUP4 ADD MSTORE PUSH2 0x13A7 DUP2 DUP6 PUSH2 0xD35 JUMP JUMPDEST SWAP1 POP PUSH2 0x13B6 PUSH1 0x20 DUP4 ADD DUP5 PUSH2 0x112A JUMP JUMPDEST SWAP4 SWAP3 POP POP POP JUMP JUMPDEST PUSH32 0x4E487B7100000000000000000000000000000000000000000000000000000000 PUSH0 MSTORE PUSH1 0x22 PUSH1 0x4 MSTORE PUSH1 0x24 PUSH0 REVERT JUMPDEST PUSH0 PUSH1 0x2 DUP3 DIV SWAP1 POP PUSH1 0x1 DUP3 AND DUP1 PUSH2 0x1401 JUMPI PUSH1 0x7F DUP3 AND SWAP2 POP JUMPDEST PUSH1 0x20 DUP3 LT DUP2 SUB PUSH2 0x1414 JUMPI PUSH2 0x1413 PUSH2 0x13BD JUMP JUMPDEST JUMPDEST POP SWAP2 SWAP1 POP JUMP JUMPDEST PUSH32 0x4E487B7100000000000000000000000000000000000000000000000000000000 PUSH0 MSTORE PUSH1 0x32 PUSH1 0x4 MSTORE PUSH1 0x24 PUSH0 REVERT JUMPDEST PUSH32 0x4E487B7100000000000000000000000000000000000000000000000000000000 PUSH0 MSTORE PUSH1 0x11 PUSH1 0x4 MSTORE PUSH1 0x24 PUSH0 REVERT JUMPDEST PUSH0 PUSH2 0x147E DUP3 PUSH2 0xDB6 JUMP JUMPDEST SWAP2 POP PUSH32 0xFFFFFFFFFFFFFFFFFFFFFFFFFFFFFFFFFFFFFFFFFFFFFFFFFFFFFFFFFFFFFFFF DUP3 SUB PUSH2 0x14B0 JUMPI PUSH2 0x14AF PUSH2 0x1447 JUMP JUMPDEST JUMPDEST PUSH1 0x1 DUP3 ADD SWAP1 POP SWAP2 SWAP1 POP JUMP JUMPDEST PUSH0 DUP2 SWAP1 POP DUP2 PUSH0 MSTORE PUSH1 0x20 PUSH0 KECCAK256 SWAP1 POP SWAP2 SWAP1 POP JUMP JUMPDEST PUSH0 PUSH1 0x20 PUSH1 0x1F DUP4 ADD DIV SWAP1 POP SWAP2 SWAP1 POP JUMP JUMPDEST PUSH0 DUP3 DUP3 SHL SWAP1 POP SWAP3 SWAP2 POP POP JUMP JUMPDEST PUSH0 PUSH1 0x8 DUP4 MUL PUSH2 0x1517 PUSH32 0xFFFFFFFFFFFFFFFFFFFFFFFFFFFFFFFFFFFFFFFFFFFFFFFFFFFFFFFFFFFFFFFF DUP3 PUSH2 0x14DC JUMP JUMPDEST PUSH2 0x1521 DUP7 DUP4 PUSH2 0x14DC JUMP JUMPDEST SWAP6 POP DUP1 NOT DUP5 AND SWAP4 POP DUP1 DUP7 AND DUP5 OR SWAP3 POP POP POP SWAP4 SWAP3 POP POP POP JUMP JUMPDEST PUSH0 DUP2 SWAP1 POP SWAP2 SWAP1 POP JUMP JUMPDEST PUSH0 PUSH2 0x155C PUSH2 0x1557 PUSH2 0x1552 DUP5 PUSH2 0xDB6 JUMP JUMPDEST PUSH2 0x1539 JUMP JUMPDEST PUSH2 0xDB6 JUMP JUMPDEST SWAP1 POP SWAP2 SWAP1 POP JUMP JUMPDEST PUSH0 DUP2 SWAP1 POP SWAP2 SWAP1 POP JUMP JUMPDEST PUSH2 0x1575 DUP4 PUSH2 0x1542 JUMP JUMPDEST PUSH2 0x1589 PUSH2 0x1581 DUP3 PUSH2 0x1563 JUMP JUMPDEST DUP5 DUP5 SLOAD PUSH2 0x14E8 JUMP JUMPDEST DUP3 SSTORE POP POP POP POP JUMP JUMPDEST PUSH0 SWAP1 JUMP JUMPDEST PUSH2 0x159D PUSH2 0x1591 JUMP JUMPDEST PUSH2 0x15A8 DUP2 DUP5 DUP5 PUSH2 0x156C JUMP JUMPDEST POP POP POP JUMP JUMPDEST JUMPDEST DUP2 DUP2 LT ISZERO PUSH2 0x15CB JUMPI PUSH2 0x15C0 PUSH0 DUP3 PUSH2 0x1595 JUMP JUMPDEST PUSH1 0x1 DUP2 ADD SWAP1 POP PUSH2 0x15AE JUMP JUMPDEST POP POP JUMP JUMPDEST PUSH1 0x1F DUP3 GT ISZERO PUSH2 0x1610 JUMPI PUSH2 0x15E1 DUP2 PUSH2 0x14BB JUMP JUMPDEST PUSH2 0x15EA DUP5 PUSH2 0x14CD JUMP JUMPDEST DUP2 ADD PUSH1 0x20 DUP6 LT ISZERO PUSH2 0x15F9 JUMPI DUP2 SWAP1 POP JUMPDEST PUSH2 0x160D PUSH2 0x1605 DUP6 PUSH2 0x14CD JUMP JUMPDEST DUP4 ADD DUP3 PUSH2 0x15AD JUMP JUMPDEST POP POP JUMPDEST POP POP POP JUMP JUMPDEST PUSH0 DUP3 DUP3 SHR SWAP1 POP SWAP3 SWAP2 POP POP JUMP JUMPDEST PUSH0 PUSH2 0x1630 PUSH0 NOT DUP5 PUSH1 0x8 MUL PUSH2 0x1615 JUMP JUMPDEST NOT DUP1 DUP4 AND SWAP2 POP POP SWAP3 SWAP2 POP POP JUMP JUMPDEST PUSH0 PUSH2 0x1648 DUP4 DUP4 PUSH2 0x1621 JUMP JUMPDEST SWAP2 POP DUP3 PUSH1 0x2 MUL DUP3 OR SWAP1 POP SWAP3 SWAP2 POP POP JUMP JUMPDEST PUSH2 0x1661 DUP3 PUSH2 0xCFD JUMP JUMPDEST PUSH8 0xFFFFFFFFFFFFFFFF DUP2 GT ISZERO PUSH2 0x167A JUMPI PUSH2 0x1679 PUSH2 0xE86 JUMP JUMPDEST JUMPDEST PUSH2 0x1684 DUP3 SLOAD PUSH2 0x13EA JUMP JUMPDEST PUSH2 0x168F DUP3 DUP3 DUP6 PUSH2 0x15CF JUMP JUMPDEST PUSH0 PUSH1 0x20 SWAP1 POP PUSH1 0x1F DUP4 GT PUSH1 0x1 DUP2 EQ PUSH2 0x16C0 JUMPI PUSH0 DUP5 ISZERO PUSH2 0x16AE JUMPI DUP3 DUP8 ADD MLOAD SWAP1 POP JUMPDEST PUSH2 0x16B8 DUP6 DUP3 PUSH2 0x163D JUMP JUMPDEST DUP7 SSTORE POP PUSH2 0x171F JUMP JUMPDEST PUSH1 0x1F NOT DUP5 AND PUSH2 0x16CE DUP7 PUSH2 0x14BB JUMP JUMPDEST PUSH0 JUMPDEST DUP3 DUP2 LT ISZERO PUSH2 0x16F5 JUMPI DUP5 DUP10 ADD MLOAD DUP3 SSTORE PUSH1 0x1 DUP3 ADD SWAP2 POP PUSH1 0x20 DUP6 ADD SWAP5 POP PUSH1 0x20 DUP2 ADD SWAP1 POP PUSH2 0x16D0 JUMP JUMPDEST DUP7 DUP4 LT ISZERO PUSH2 0x1712 JUMPI DUP5 DUP10 ADD MLOAD PUSH2 0x170E PUSH1 0x1F DUP10 AND DUP3 PUSH2 0x1621 JUMP JUMPDEST DUP4 SSTORE POP JUMPDEST PUSH1 0x1 PUSH1 0x2 DUP9 MUL ADD DUP9 SSTORE POP POP POP JUMPDEST POP POP POP POP POP POP JUMP JUMPDEST PUSH32 0x4F6E6C7920746865206F7261636C652063616E206164642065766964656E6365 PUSH0 DUP3 ADD MSTORE POP JUMP JUMPDEST PUSH0 PUSH2 0x175B PUSH1 0x20 DUP4 PUSH2 0xD07 JUMP JUMPDEST SWAP2 POP PUSH2 0x1766 DUP3 PUSH2 0x1727 JUMP JUMPDEST PUSH1 0x20 DUP3 ADD SWAP1 POP SWAP2 SWAP1 POP JUMP JUMPDEST PUSH0 PUSH1 0x20 DUP3 ADD SWAP1 POP DUP2 DUP2 SUB PUSH0 DUP4 ADD MSTORE PUSH2 0x1788 DUP2 PUSH2 0x174F JUMP JUMPDEST SWAP1 POP SWAP2 SWAP1 POP JUMP JUMPDEST PUSH0 PUSH1 0x60 DUP3 ADD SWAP1 POP PUSH2 0x17A2 PUSH0 DUP4 ADD DUP7 PUSH2 0x112A JUMP JUMPDEST DUP2 DUP2 SUB PUSH1 0x20 DUP4 ADD MSTORE PUSH2 0x17B4 DUP2 DUP6 PUSH2 0xD35 JUMP JUMPDEST SWAP1 POP PUSH2 0x17C3 PUSH1 0x40 DUP4 ADD DUP5 PUSH2 0x112A JUMP JUMPDEST SWAP5 SWAP4 POP POP POP POP JUMP INVALID LOG2 PUSH5 0x6970667358 0x22 SLT KECCAK256 0x1E 0xB1 0xB7 0xBE 0xBC 0x2C 0xDF 0xD9 0x2B 0xBF PUSH22 0xF64F1577E367E7DC2A4535B00260A4D851BD725D3364 PUSH20 0x6F6C634300081A00330000000000000000000000 "
				},
				"gasEstimates": {
					"creation": {
						"codeDepositCost": "1229000",
						"executionCost": "infinite",
						"totalCost": "infinite"
					},
					"external": {
						"anadirEvidencia(uint256,string)": "infinite",
						"auditorias(uint256)": "infinite",
						"auditoriasCount()": "2425",
						"crearAuditoria(string,string,string)": "infinite",
						"evidencias(uint256,uint256)": "infinite",
						"name()": "infinite",
						"obtenerAuditoria(uint256)": "infinite",
						"obtenerEvidencias(uint256)": "infinite",
						"obtenerTodasLasAuditorias()": "infinite",
						"operator()": "2597"
					}
				},
				"methodIdentifiers": {
					"anadirEvidencia(uint256,string)": "18dbb522",
					"auditorias(uint256)": "87dfdc6e",
					"auditoriasCount()": "5c8fc294",
					"crearAuditoria(string,string,string)": "143d49e1",
					"evidencias(uint256,uint256)": "d799b4bc",
					"name()": "06fdde03",
					"obtenerAuditoria(uint256)": "91082a52",
					"obtenerEvidencias(uint256)": "aba6daca",
					"obtenerTodasLasAuditorias()": "10724ca7",
					"operator()": "570ca735"
				}
			},
			"storageLayout": {
				"storage": [
					{
						"astId": 26,
						"contract": "audits.sol:auditoriasContract",
						"label": "auditorias",
						"offset": 0,
						"slot": "0",
						"type": "t_mapping(t_uint256,t_struct(Auditoria)21_storage)"
					},
					{
						"astId": 32,
						"contract": "audits.sol:auditoriasContract",
						"label": "evidencias",
						"offset": 0,
						"slot": "1",
						"type": "t_mapping(t_uint256,t_array(t_struct(Evidencia)6_storage)dyn_storage)"
					},
					{
						"astId": 58,
						"contract": "audits.sol:auditoriasContract",
						"label": "name",
						"offset": 0,
						"slot": "2",
						"type": "t_string_storage"
					},
					{
						"astId": 60,
						"contract": "audits.sol:auditoriasContract",
						"label": "operator",
						"offset": 0,
						"slot": "3",
						"type": "t_address"
					},
					{
						"astId": 63,
						"contract": "audits.sol:auditoriasContract",
						"label": "auditoriasCount",
						"offset": 0,
						"slot": "4",
						"type": "t_uint256"
					}
				],
				"types": {
					"t_address": {
						"encoding": "inplace",
						"label": "address",
						"numberOfBytes": "20"
					},
					"t_array(t_struct(Evidencia)6_storage)dyn_storage": {
						"base": "t_struct(Evidencia)6_storage",
						"encoding": "dynamic_array",
						"label": "struct auditoriasContract.Evidencia[]",
						"numberOfBytes": "32"
					},
					"t_bool": {
						"encoding": "inplace",
						"label": "bool",
						"numberOfBytes": "1"
					},
					"t_mapping(t_uint256,t_array(t_struct(Evidencia)6_storage)dyn_storage)": {
						"encoding": "mapping",
						"key": "t_uint256",
						"label": "mapping(uint256 => struct auditoriasContract.Evidencia[])",
						"numberOfBytes": "32",
						"value": "t_array(t_struct(Evidencia)6_storage)dyn_storage"
					},
					"t_mapping(t_uint256,t_struct(Auditoria)21_storage)": {
						"encoding": "mapping",
						"key": "t_uint256",
						"label": "mapping(uint256 => struct auditoriasContract.Auditoria)",
						"numberOfBytes": "32",
						"value": "t_struct(Auditoria)21_storage"
					},
					"t_string_storage": {
						"encoding": "bytes",
						"label": "string",
						"numberOfBytes": "32"
					},
					"t_struct(Auditoria)21_storage": {
						"encoding": "inplace",
						"label": "struct auditoriasContract.Auditoria",
						"members": [
							{
								"astId": 8,
								"contract": "audits.sol:auditoriasContract",
								"label": "id",
								"offset": 0,
								"slot": "0",
								"type": "t_uint256"
							},
							{
								"astId": 10,
								"contract": "audits.sol:auditoriasContract",
								"label": "serviceName",
								"offset": 0,
								"slot": "1",
								"type": "t_string_storage"
							},
							{
								"astId": 12,
								"contract": "audits.sol:auditoriasContract",
								"label": "owner",
								"offset": 0,
								"slot": "2",
								"type": "t_address"
							},
							{
								"astId": 14,
								"contract": "audits.sol:auditoriasContract",
								"label": "uri",
								"offset": 0,
								"slot": "3",
								"type": "t_string_storage"
							},
							{
								"astId": 16,
								"contract": "audits.sol:auditoriasContract",
								"label": "port",
								"offset": 0,
								"slot": "4",
								"type": "t_string_storage"
							},
							{
								"astId": 18,
								"contract": "audits.sol:auditoriasContract",
								"label": "valid",
								"offset": 0,
								"slot": "5",
								"type": "t_bool"
							},
							{
								"astId": 20,
								"contract": "audits.sol:auditoriasContract",
								"label": "timestamp",
								"offset": 0,
								"slot": "6",
								"type": "t_uint256"
							}
						],
						"numberOfBytes": "224"
					},
					"t_struct(Evidencia)6_storage": {
						"encoding": "inplace",
						"label": "struct auditoriasContract.Evidencia",
						"members": [
							{
								"astId": 3,
								"contract": "audits.sol:auditoriasContract",
								"label": "evidencia",
								"offset": 0,
								"slot": "0",
								"type": "t_string_storage"
							},
							{
								"astId": 5,
								"contract": "audits.sol:auditoriasContract",
								"label": "timestamp",
								"offset": 0,
								"slot": "1",
								"type": "t_uint256"
							}
						],
						"numberOfBytes": "64"
					},
					"t_uint256": {
						"encoding": "inplace",
						"label": "uint256",
						"numberOfBytes": "32"
					}
				}
			},
			"userdoc": {
				"kind": "user",
				"methods": {},
				"version": 1
			}
		}
	}
}